{
	"data": {
		"bytecode": {
			"linkReferences": {},
			"object": "60806040523480156200001157600080fd5b506040518060400160405280601481526020017f5477696e746f706961204d656d626572736869700000000000000000000000008152506040518060400160405280600a81526020017f5457494e4d425253485000000000000000000000000000000000000000000000815250816000908051906020019062000096929190620001a6565b508060019080519060200190620000af929190620001a6565b505050620000d2620000c6620000d860201b60201c565b620000e060201b60201c565b620002bb565b600033905090565b6000600760009054906101000a900473ffffffffffffffffffffffffffffffffffffffff16905081600760006101000a81548173ffffffffffffffffffffffffffffffffffffffff021916908373ffffffffffffffffffffffffffffffffffffffff1602179055508173ffffffffffffffffffffffffffffffffffffffff168173ffffffffffffffffffffffffffffffffffffffff167f8be0079c531659141344cd1fd0a4f28419497f9722a3daafe3b4186f6b6457e060405160405180910390a35050565b828054620001b49062000285565b90600052602060002090601f016020900481019282620001d8576000855562000224565b82601f10620001f357805160ff191683800117855562000224565b8280016001018555821562000224579182015b828111156200022357825182559160200191906001019062000206565b5b50905062000233919062000237565b5090565b5b808211156200025257600081600090555060010162000238565b5090565b7f4e487b7100000000000000000000000000000000000000000000000000000000600052602260045260246000fd5b600060028204905060018216806200029e57607f821691505b60208210811415620002b557620002b462000256565b5b50919050565b61489480620002cb6000396000f3fe608060405234801561001057600080fd5b50600436106101585760003560e01c80636352211e116100c3578063b12fccec1161007c578063b12fccec146103cc578063b88d4fde146103e8578063c87b56dd14610404578063e5326ab114610434578063e985e9c514610452578063f2fde38b1461048257610158565b80636352211e1461030a57806370a082311461033a578063715018a61461036a5780638da5cb5b1461037457806395d89b4114610392578063a22cb465146103b057610158565b80632f39352a116101155780632f39352a1461024357806342842e0e1461026157806357729dbc1461027d5780635c76577c146102b45780635ec01e4d146102d0578063605a0512146102ee57610158565b806301ffc9a71461015d57806303d22e391461018d57806306fdde03146101bd578063081812fc146101db578063095ea7b31461020b57806323b872dd14610227575b600080fd5b610177600480360381019061017291906128ed565b61049e565b6040516101849190612935565b60405180910390f35b6101a760048036038101906101a291906129ae565b610580565b6040516101b491906129f4565b60405180910390f35b6101c5610598565b6040516101d29190612aa8565b60405180910390f35b6101f560048036038101906101f09190612af6565b61062a565b6040516102029190612b32565b60405180910390f35b61022560048036038101906102209190612b4d565b6106af565b005b610241600480360381019061023c9190612b8d565b6107c7565b005b61024b610802565b6040516102589190612aa8565b60405180910390f35b61027b60048036038101906102769190612b8d565b610890565b005b61029760048036038101906102929190612af6565b6108cb565b6040516102ab989796959493929190612be0565b60405180910390f35b6102ce60048036038101906102c991906129ae565b610a63565b005b6102d8610d91565b6040516102e591906129f4565b60405180910390f35b61030860048036038101906103039190612c6c565b610dd2565b005b610324600480360381019061031f9190612af6565b610f37565b6040516103319190612b32565b60405180910390f35b610354600480360381019061034f91906129ae565b610fe9565b60405161036191906129f4565b60405180910390f35b6103726110a1565b005b61037c611129565b6040516103899190612b32565b60405180910390f35b61039a611153565b6040516103a79190612aa8565b60405180910390f35b6103ca60048036038101906103c59190612cd8565b6111e5565b005b6103e660048036038101906103e19190612e4d565b6111fb565b005b61040260048036038101906103fd9190612f37565b611720565b005b61041e60048036038101906104199190612af6565b61175b565b60405161042b9190612aa8565b60405180910390f35b61043c611a82565b6040516104499190612aa8565b60405180910390f35b61046c60048036038101906104679190612fba565b611b10565b6040516104799190612935565b60405180910390f35b61049c600480360381019061049791906129ae565b611ba4565b005b60007f80ac58cd000000000000000000000000000000000000000000000000000000007bffffffffffffffffffffffffffffffffffffffffffffffffffffffff1916827bffffffffffffffffffffffffffffffffffffffffffffffffffffffff1916148061056957507f5b5e139f000000000000000000000000000000000000000000000000000000007bffffffffffffffffffffffffffffffffffffffffffffffffffffffff1916827bffffffffffffffffffffffffffffffffffffffffffffffffffffffff1916145b80610579575061057882611c9c565b5b9050919050565b600f6020528060005260406000206000915090505481565b6060600080546105a790613029565b80601f01602080910402602001604051908101604052809291908181526020018280546105d390613029565b80156106205780601f106105f557610100808354040283529160200191610620565b820191906000526020600020905b81548152906001019060200180831161060357829003601f168201915b5050505050905090565b600061063582611d06565b610674576040517f08c379a000000000000000000000000000000000000000000000000000000000815260040161066b906130cd565b60405180910390fd5b6004600083815260200190815260200160002060009054906101000a900473ffffffffffffffffffffffffffffffffffffffff169050919050565b60006106ba82610f37565b90508073ffffffffffffffffffffffffffffffffffffffff168373ffffffffffffffffffffffffffffffffffffffff16141561072b576040517f08c379a00000000000000000000000000000000000000000000000000000000081526004016107229061315f565b60405180910390fd5b8073ffffffffffffffffffffffffffffffffffffffff1661074a611d72565b73ffffffffffffffffffffffffffffffffffffffff161480610779575061077881610773611d72565b611b10565b5b6107b8576040517f08c379a00000000000000000000000000000000000000000000000000000000081526004016107af906131f1565b60405180910390fd5b6107c28383611d7a565b505050565b6040517f08c379a00000000000000000000000000000000000000000000000000000000081526004016107f990613283565b60405180910390fd5b600a805461080f90613029565b80601f016020809104026020016040519081016040528092919081815260200182805461083b90613029565b80156108885780601f1061085d57610100808354040283529160200191610888565b820191906000526020600020905b81548152906001019060200180831161086b57829003601f168201915b505050505081565b6040517f08c379a00000000000000000000000000000000000000000000000000000000081526004016108c290613283565b60405180910390fd5b600d6020528060005260406000206000915090508060000160009054906101000a900473ffffffffffffffffffffffffffffffffffffffff169080600101805461091490613029565b80601f016020809104026020016040519081016040528092919081815260200182805461094090613029565b801561098d5780601f106109625761010080835404028352916020019161098d565b820191906000526020600020905b81548152906001019060200180831161097057829003601f168201915b5050505050908060020154908060030154908060040154908060050154908060060180546109ba90613029565b80601f01602080910402602001604051908101604052809291908181526020018280546109e690613029565b8015610a335780601f10610a0857610100808354040283529160200191610a33565b820191906000526020600020905b815481529060010190602001808311610a1657829003601f168201915b5050505050908060070160009054906101000a900473ffffffffffffffffffffffffffffffffffffffff16905088565b6001610a6e33610fe9565b14610aae576040517f08c379a0000000000000000000000000000000000000000000000000000000008152600401610aa590613315565b60405180910390fd5b6000610ab982610fe9565b14610af9576040517f08c379a0000000000000000000000000000000000000000000000000000000008152600401610af0906133a7565b60405180910390fd5b42600e60008373ffffffffffffffffffffffffffffffffffffffff1673ffffffffffffffffffffffffffffffffffffffff1681526020019081526020016000206003015410610b7d576040517f08c379a0000000000000000000000000000000000000000000000000000000008152600401610b7490613485565b60405180910390fd5b6000600f60003373ffffffffffffffffffffffffffffffffffffffff1673ffffffffffffffffffffffffffffffffffffffff16815260200190815260200160002054905060006040518060a00160405280838152602001600d60008581526020019081526020016000206001018054610bf590613029565b80601f0160208091040260200160405190810160405280929190818152602001828054610c2190613029565b8015610c6e5780601f10610c4357610100808354040283529160200191610c6e565b820191906000526020600020905b815481529060010190602001808311610c5157829003601f168201915b505050505081526020013373ffffffffffffffffffffffffffffffffffffffff1681526020016001151581526020016203f48042610cac91906134d4565b815250905080600e60008573ffffffffffffffffffffffffffffffffffffffff1673ffffffffffffffffffffffffffffffffffffffff168152602001908152602001600020600082015181600001556020820151816001019080519060200190610d179291906127de565b5060408201518160020160006101000a81548173ffffffffffffffffffffffffffffffffffffffff021916908373ffffffffffffffffffffffffffffffffffffffff16021790555060608201518160020160146101000a81548160ff02191690831515021790555060808201518160030155905050505050565b60006003424433604051602001610daa93929190613593565b6040516020818303038152906040528051906020012060001c610dcd91906135ff565b905090565b600d6000600f60003373ffffffffffffffffffffffffffffffffffffffff1673ffffffffffffffffffffffffffffffffffffffff16815260200190815260200160002054815260200190815260200160002060000160009054906101000a900473ffffffffffffffffffffffffffffffffffffffff1673ffffffffffffffffffffffffffffffffffffffff163373ffffffffffffffffffffffffffffffffffffffff1614610e7f57600080fd5b81600d6000600f60003373ffffffffffffffffffffffffffffffffffffffff1673ffffffffffffffffffffffffffffffffffffffff1681526020019081526020016000205481526020019081526020016000206002018190555080600d6000600f60003373ffffffffffffffffffffffffffffffffffffffff1673ffffffffffffffffffffffffffffffffffffffff168152602001908152602001600020548152602001908152602001600020600301819055505050565b6000806002600084815260200190815260200160002060009054906101000a900473ffffffffffffffffffffffffffffffffffffffff169050600073ffffffffffffffffffffffffffffffffffffffff168173ffffffffffffffffffffffffffffffffffffffff161415610fe0576040517f08c379a0000000000000000000000000000000000000000000000000000000008152600401610fd7906136a2565b60405180910390fd5b80915050919050565b60008073ffffffffffffffffffffffffffffffffffffffff168273ffffffffffffffffffffffffffffffffffffffff16141561105a576040517f08c379a000000000000000000000000000000000000000000000000000000000815260040161105190613734565b60405180910390fd5b600360008373ffffffffffffffffffffffffffffffffffffffff1673ffffffffffffffffffffffffffffffffffffffff168152602001908152602001600020549050919050565b6110a9611d72565b73ffffffffffffffffffffffffffffffffffffffff166110c7611129565b73ffffffffffffffffffffffffffffffffffffffff161461111d576040517f08c379a0000000000000000000000000000000000000000000000000000000008152600401611114906137a0565b60405180910390fd5b6111276000611e33565b565b6000600760009054906101000a900473ffffffffffffffffffffffffffffffffffffffff16905090565b60606001805461116290613029565b80601f016020809104026020016040519081016040528092919081815260200182805461118e90613029565b80156111db5780601f106111b0576101008083540402835291602001916111db565b820191906000526020600020905b8154815290600101906020018083116111be57829003601f168201915b5050505050905090565b6111f76111f0611d72565b8383611ef9565b5050565b600161120633610fe9565b10611246576040517f08c379a000000000000000000000000000000000000000000000000000000000815260040161123d9061380c565b60405180910390fd5b6112506008612066565b600061125c600861207c565b9050611268338261208a565b61127a816112758361175b565b6120a8565b60006040518061010001604052803373ffffffffffffffffffffffffffffffffffffffff16815260200184815260200162373e80815260200162d2f50a815260200142815260200160008152602001600e60003373ffffffffffffffffffffffffffffffffffffffff1673ffffffffffffffffffffffffffffffffffffffff168152602001908152602001600020600101805461131690613029565b80601f016020809104026020016040519081016040528092919081815260200182805461134290613029565b801561138f5780601f106113645761010080835404028352916020019161138f565b820191906000526020600020905b81548152906001019060200180831161137257829003601f168201915b50505050508152602001600e60003373ffffffffffffffffffffffffffffffffffffffff1673ffffffffffffffffffffffffffffffffffffffff16815260200190815260200160002060020160009054906101000a900473ffffffffffffffffffffffffffffffffffffffff1673ffffffffffffffffffffffffffffffffffffffff16815250905080600d600084815260200190815260200160002060008201518160000160006101000a81548173ffffffffffffffffffffffffffffffffffffffff021916908373ffffffffffffffffffffffffffffffffffffffff160217905550602082015181600101908051906020019061148e9291906127de565b5060408201518160020155606082015181600301556080820151816004015560a0820151816005015560c08201518160060190805190602001906114d39291906127de565b5060e08201518160070160006101000a81548173ffffffffffffffffffffffffffffffffffffffff021916908373ffffffffffffffffffffffffffffffffffffffff16021790555090505081600f60003373ffffffffffffffffffffffffffffffffffffffff1673ffffffffffffffffffffffffffffffffffffffff168152602001908152602001600020819055506000600e60003373ffffffffffffffffffffffffffffffffffffffff1673ffffffffffffffffffffffffffffffffffffffff168152602001908152602001600020600001549050600d600082815260200190815260200160002060050160008154809291906115d09061382c565b919050555060006115df610d91565b9050600081141561164d5760405180608001604052806050815260200161476f60509139600b90805190602001906116189291906127de565b5060405180608001604052806050815260200161468f60509139600c90805190602001906116479291906127de565b50611719565b60018114156116b95760405180608001604052806050815260200161480f60509139600b90805190602001906116849291906127de565b506040518060800160405280605081526020016147bf60509139600c90805190602001906116b39291906127de565b50611718565b6040518060800160405280605081526020016146df60509139600b90805190602001906116e79291906127de565b5060405180608001604052806050815260200161463f60509139600c90805190602001906117169291906127de565b505b5b5050505050565b6040517f08c379a000000000000000000000000000000000000000000000000000000000815260040161175290613283565b60405180910390fd5b60606000600d6000848152602001908152602001600020604051806101000160405290816000820160009054906101000a900473ffffffffffffffffffffffffffffffffffffffff1673ffffffffffffffffffffffffffffffffffffffff1673ffffffffffffffffffffffffffffffffffffffff1681526020016001820180546117e490613029565b80601f016020809104026020016040519081016040528092919081815260200182805461181090613029565b801561185d5780601f106118325761010080835404028352916020019161185d565b820191906000526020600020905b81548152906001019060200180831161184057829003601f168201915b505050505081526020016002820154815260200160038201548152602001600482015481526020016005820154815260200160068201805461189e90613029565b80601f01602080910402602001604051908101604052809291908181526020018280546118ca90613029565b80156119175780601f106118ec57610100808354040283529160200191611917565b820191906000526020600020905b8154815290600101906020018083116118fa57829003601f168201915b505050505081526020016007820160009054906101000a900473ffffffffffffffffffffffffffffffffffffffff1673ffffffffffffffffffffffffffffffffffffffff1673ffffffffffffffffffffffffffffffffffffffff1681525050905060006119838461211c565b600d6000868152602001908152602001600020600101600d6000878152602001908152602001600020600101600d6000888152602001908152602001600020600101600b600c87602001516119e7600a8a604001516119e29190613875565b61211c565b611a00600a8b606001516119fb9190613875565b61211c565b611a0d8b6080015161211c565b8b60c00151611a1f8d60a0015161211c565b604051602001611a3a9c9b9a99989796959493929190614001565b60405160208183030381529060405290506000611a568261227d565b604051602001611a669190614182565b6040516020818303038152906040529050809350505050919050565b60098054611a8f90613029565b80601f0160208091040260200160405190810160405280929190818152602001828054611abb90613029565b8015611b085780601f10611add57610100808354040283529160200191611b08565b820191906000526020600020905b815481529060010190602001808311611aeb57829003601f168201915b505050505081565b6000600560008473ffffffffffffffffffffffffffffffffffffffff1673ffffffffffffffffffffffffffffffffffffffff16815260200190815260200160002060008373ffffffffffffffffffffffffffffffffffffffff1673ffffffffffffffffffffffffffffffffffffffff16815260200190815260200160002060009054906101000a900460ff16905092915050565b611bac611d72565b73ffffffffffffffffffffffffffffffffffffffff16611bca611129565b73ffffffffffffffffffffffffffffffffffffffff1614611c20576040517f08c379a0000000000000000000000000000000000000000000000000000000008152600401611c17906137a0565b60405180910390fd5b600073ffffffffffffffffffffffffffffffffffffffff168173ffffffffffffffffffffffffffffffffffffffff161415611c90576040517f08c379a0000000000000000000000000000000000000000000000000000000008152600401611c8790614216565b60405180910390fd5b611c9981611e33565b50565b60007f01ffc9a7000000000000000000000000000000000000000000000000000000007bffffffffffffffffffffffffffffffffffffffffffffffffffffffff1916827bffffffffffffffffffffffffffffffffffffffffffffffffffffffff1916149050919050565b60008073ffffffffffffffffffffffffffffffffffffffff166002600084815260200190815260200160002060009054906101000a900473ffffffffffffffffffffffffffffffffffffffff1673ffffffffffffffffffffffffffffffffffffffff1614159050919050565b600033905090565b816004600083815260200190815260200160002060006101000a81548173ffffffffffffffffffffffffffffffffffffffff021916908373ffffffffffffffffffffffffffffffffffffffff160217905550808273ffffffffffffffffffffffffffffffffffffffff16611ded83610f37565b73ffffffffffffffffffffffffffffffffffffffff167f8c5be1e5ebec7d5bd14f71427d1e84f3dd0314c0f7b2291e5b200ac8c7c3b92560405160405180910390a45050565b6000600760009054906101000a900473ffffffffffffffffffffffffffffffffffffffff16905081600760006101000a81548173ffffffffffffffffffffffffffffffffffffffff021916908373ffffffffffffffffffffffffffffffffffffffff1602179055508173ffffffffffffffffffffffffffffffffffffffff168173ffffffffffffffffffffffffffffffffffffffff167f8be0079c531659141344cd1fd0a4f28419497f9722a3daafe3b4186f6b6457e060405160405180910390a35050565b8173ffffffffffffffffffffffffffffffffffffffff168373ffffffffffffffffffffffffffffffffffffffff161415611f68576040517f08c379a0000000000000000000000000000000000000000000000000000000008152600401611f5f90614282565b60405180910390fd5b80600560008573ffffffffffffffffffffffffffffffffffffffff1673ffffffffffffffffffffffffffffffffffffffff16815260200190815260200160002060008473ffffffffffffffffffffffffffffffffffffffff1673ffffffffffffffffffffffffffffffffffffffff16815260200190815260200160002060006101000a81548160ff0219169083151502179055508173ffffffffffffffffffffffffffffffffffffffff168373ffffffffffffffffffffffffffffffffffffffff167f17307eab39ab6107e8899845ad3d59bd9653f200f220920489ca2b5937696c31836040516120599190612935565b60405180910390a3505050565b6001816000016000828254019250508190555050565b600081600001549050919050565b6120a4828260405180602001604052806000815250612415565b5050565b6120b182611d06565b6120f0576040517f08c379a00000000000000000000000000000000000000000000000000000000081526004016120e790614314565b60405180910390fd5b806006600084815260200190815260200160002090805190602001906121179291906127de565b505050565b60606000821415612164576040518060400160405280600181526020017f30000000000000000000000000000000000000000000000000000000000000008152509050612278565b600082905060005b6000821461219657808061217f9061382c565b915050600a8261218f9190613875565b915061216c565b60008167ffffffffffffffff8111156121b2576121b1612d22565b5b6040519080825280601f01601f1916602001820160405280156121e45781602001600182028036833780820191505090505b5090505b60008514612271576001826121fd9190614334565b9150600a8561220c91906135ff565b603061221891906134d4565b60f81b81838151811061222e5761222d614368565b5b60200101907effffffffffffffffffffffffffffffffffffffffffffffffffffffffffffff1916908160001a905350600a8561226a9190613875565b94506121e8565b8093505050505b919050565b606060008251905060008114156122a65760405180602001604052806000815250915050612410565b600060036002836122b791906134d4565b6122c19190613875565b60046122cd9190614397565b905060006020826122de91906134d4565b67ffffffffffffffff8111156122f7576122f6612d22565b5b6040519080825280601f01601f1916602001820160405280156123295781602001600182028036833780820191505090505b509050600060405180606001604052806040815260200161472f604091399050600181016020830160005b868110156123cd5760038101905062ffffff818a015116603f8160121c168401518060081b905060ff603f83600c1c1686015116810190508060081b905060ff603f8360061c1686015116810190508060081b905060ff603f831686015116810190508060e01b90508084526004840193505050612354565b5060038606600181146123e757600281146123f757612402565b613d3d60f01b6002830352612402565b603d60f81b60018303525b508484525050819450505050505b919050565b61241f8383612470565b61242c600084848461263e565b61246b576040517f08c379a000000000000000000000000000000000000000000000000000000000815260040161246290614463565b60405180910390fd5b505050565b600073ffffffffffffffffffffffffffffffffffffffff168273ffffffffffffffffffffffffffffffffffffffff1614156124e0576040517f08c379a00000000000000000000000000000000000000000000000000000000081526004016124d7906144cf565b60405180910390fd5b6124e981611d06565b15612529576040517f08c379a00000000000000000000000000000000000000000000000000000000081526004016125209061453b565b60405180910390fd5b612535600083836127c6565b6001600360008473ffffffffffffffffffffffffffffffffffffffff1673ffffffffffffffffffffffffffffffffffffffff168152602001908152602001600020600082825461258591906134d4565b92505081905550816002600083815260200190815260200160002060006101000a81548173ffffffffffffffffffffffffffffffffffffffff021916908373ffffffffffffffffffffffffffffffffffffffff160217905550808273ffffffffffffffffffffffffffffffffffffffff16600073ffffffffffffffffffffffffffffffffffffffff167fddf252ad1be2c89b69c2b068fc378daa952ba7f163c4a11628f55a4df523b3ef60405160405180910390a45050565b600061265f8473ffffffffffffffffffffffffffffffffffffffff166127cb565b156127b9578373ffffffffffffffffffffffffffffffffffffffff1663150b7a02612688611d72565b8786866040518563ffffffff1660e01b81526004016126aa94939291906145b0565b6020604051808303816000875af19250505080156126e657506040513d601f19601f820116820180604052508101906126e39190614611565b60015b612769573d8060008114612716576040519150601f19603f3d011682016040523d82523d6000602084013e61271b565b606091505b50600081511415612761576040517f08c379a000000000000000000000000000000000000000000000000000000000815260040161275890614463565b60405180910390fd5b805181602001fd5b63150b7a0260e01b7bffffffffffffffffffffffffffffffffffffffffffffffffffffffff1916817bffffffffffffffffffffffffffffffffffffffffffffffffffffffff1916149150506127be565b600190505b949350505050565b505050565b600080823b905060008111915050919050565b8280546127ea90613029565b90600052602060002090601f01602090048101928261280c5760008555612853565b82601f1061282557805160ff1916838001178555612853565b82800160010185558215612853579182015b82811115612852578251825591602001919060010190612837565b5b5090506128609190612864565b5090565b5b8082111561287d576000816000905550600101612865565b5090565b6000604051905090565b600080fd5b600080fd5b60007fffffffff0000000000000000000000000000000000000000000000000000000082169050919050565b6128ca81612895565b81146128d557600080fd5b50565b6000813590506128e7816128c1565b92915050565b6000602082840312156129035761290261288b565b5b6000612911848285016128d8565b91505092915050565b60008115159050919050565b61292f8161291a565b82525050565b600060208201905061294a6000830184612926565b92915050565b600073ffffffffffffffffffffffffffffffffffffffff82169050919050565b600061297b82612950565b9050919050565b61298b81612970565b811461299657600080fd5b50565b6000813590506129a881612982565b92915050565b6000602082840312156129c4576129c361288b565b5b60006129d284828501612999565b91505092915050565b6000819050919050565b6129ee816129db565b82525050565b6000602082019050612a0960008301846129e5565b92915050565b600081519050919050565b600082825260208201905092915050565b60005b83811015612a49578082015181840152602081019050612a2e565b83811115612a58576000848401525b50505050565b6000601f19601f8301169050919050565b6000612a7a82612a0f565b612a848185612a1a565b9350612a94818560208601612a2b565b612a9d81612a5e565b840191505092915050565b60006020820190508181036000830152612ac28184612a6f565b905092915050565b612ad3816129db565b8114612ade57600080fd5b50565b600081359050612af081612aca565b92915050565b600060208284031215612b0c57612b0b61288b565b5b6000612b1a84828501612ae1565b91505092915050565b612b2c81612970565b82525050565b6000602082019050612b476000830184612b23565b92915050565b60008060408385031215612b6457612b6361288b565b5b6000612b7285828601612999565b9250506020612b8385828601612ae1565b9150509250929050565b600080600060608486031215612ba657612ba561288b565b5b6000612bb486828701612999565b9350506020612bc586828701612999565b9250506040612bd686828701612ae1565b9150509250925092565b600061010082019050612bf6600083018b612b23565b8181036020830152612c08818a612a6f565b9050612c1760408301896129e5565b612c2460608301886129e5565b612c3160808301876129e5565b612c3e60a08301866129e5565b81810360c0830152612c508185612a6f565b9050612c5f60e0830184612b23565b9998505050505050505050565b60008060408385031215612c8357612c8261288b565b5b6000612c9185828601612ae1565b9250506020612ca285828601612ae1565b9150509250929050565b612cb58161291a565b8114612cc057600080fd5b50565b600081359050612cd281612cac565b92915050565b60008060408385031215612cef57612cee61288b565b5b6000612cfd85828601612999565b9250506020612d0e85828601612cc3565b9150509250929050565b600080fd5b600080fd5b7f4e487b7100000000000000000000000000000000000000000000000000000000600052604160045260246000fd5b612d5a82612a5e565b810181811067ffffffffffffffff82111715612d7957612d78612d22565b5b80604052505050565b6000612d8c612881565b9050612d988282612d51565b919050565b600067ffffffffffffffff821115612db857612db7612d22565b5b612dc182612a5e565b9050602081019050919050565b82818337600083830152505050565b6000612df0612deb84612d9d565b612d82565b905082815260208101848484011115612e0c57612e0b612d1d565b5b612e17848285612dce565b509392505050565b600082601f830112612e3457612e33612d18565b5b8135612e44848260208601612ddd565b91505092915050565b600060208284031215612e6357612e6261288b565b5b600082013567ffffffffffffffff811115612e8157612e80612890565b5b612e8d84828501612e1f565b91505092915050565b600067ffffffffffffffff821115612eb157612eb0612d22565b5b612eba82612a5e565b9050602081019050919050565b6000612eda612ed584612e96565b612d82565b905082815260208101848484011115612ef657612ef5612d1d565b5b612f01848285612dce565b509392505050565b600082601f830112612f1e57612f1d612d18565b5b8135612f2e848260208601612ec7565b91505092915050565b60008060008060808587031215612f5157612f5061288b565b5b6000612f5f87828801612999565b9450506020612f7087828801612999565b9350506040612f8187828801612ae1565b925050606085013567ffffffffffffffff811115612fa257612fa1612890565b5b612fae87828801612f09565b91505092959194509250565b60008060408385031215612fd157612fd061288b565b5b6000612fdf85828601612999565b9250506020612ff085828601612999565b9150509250929050565b7f4e487b7100000000000000000000000000000000000000000000000000000000600052602260045260246000fd5b6000600282049050600182168061304157607f821691505b6020821081141561305557613054612ffa565b5b50919050565b7f4552433732313a20617070726f76656420717565727920666f72206e6f6e657860008201527f697374656e7420746f6b656e0000000000000000000000000000000000000000602082015250565b60006130b7602c83612a1a565b91506130c28261305b565b604082019050919050565b600060208201905081810360008301526130e6816130aa565b9050919050565b7f4552433732313a20617070726f76616c20746f2063757272656e74206f776e6560008201527f7200000000000000000000000000000000000000000000000000000000000000602082015250565b6000613149602183612a1a565b9150613154826130ed565b604082019050919050565b600060208201905081810360008301526131788161313c565b9050919050565b7f4552433732313a20617070726f76652063616c6c6572206973206e6f74206f7760008201527f6e6572206e6f7220617070726f76656420666f7220616c6c0000000000000000602082015250565b60006131db603883612a1a565b91506131e68261317f565b604082019050919050565b6000602082019050818103600083015261320a816131ce565b9050919050565b7f5457494e4d42525348503a2074686973206d6574686f64206973206e6f74207360008201527f7570706f72746564000000000000000000000000000000000000000000000000602082015250565b600061326d602883612a1a565b915061327882613211565b604082019050919050565b6000602082019050818103600083015261329c81613260565b9050919050565b7f536f7272792c20596f7572206861766520746f206d696e74204d42525348502060008201527f66697273742e0000000000000000000000000000000000000000000000000000602082015250565b60006132ff602683612a1a565b915061330a826132a3565b604082019050919050565b6000602082019050818103600083015261332e816132f2565b9050919050565b7f546869732057616c6c6574205573657220697320616c7265616479206d656d6260008201527f6572210000000000000000000000000000000000000000000000000000000000602082015250565b6000613391602383612a1a565b915061339c82613335565b604082019050919050565b600060208201905081810360008301526133c081613384565b9050919050565b7f5468697320757365722068617320616c7265616479206265656e20696e76697460008201527f65642e202054686520696e7669746174696f6e2077696c6c206578706972652060208201527f696e203320646179732028373220686f757273292c20736f20706c656173652060408201527f74727920616761696e2e00000000000000000000000000000000000000000000606082015250565b600061346f606a83612a1a565b915061347a826133c7565b608082019050919050565b6000602082019050818103600083015261349e81613462565b9050919050565b7f4e487b7100000000000000000000000000000000000000000000000000000000600052601160045260246000fd5b60006134df826129db565b91506134ea836129db565b9250827fffffffffffffffffffffffffffffffffffffffffffffffffffffffffffffffff0382111561351f5761351e6134a5565b5b828201905092915050565b6000819050919050565b613545613540826129db565b61352a565b82525050565b60008160601b9050919050565b60006135638261354b565b9050919050565b600061357582613558565b9050919050565b61358d61358882612970565b61356a565b82525050565b600061359f8286613534565b6020820191506135af8285613534565b6020820191506135bf828461357c565b601482019150819050949350505050565b7f4e487b7100000000000000000000000000000000000000000000000000000000600052601260045260246000fd5b600061360a826129db565b9150613615836129db565b925082613625576136246135d0565b5b828206905092915050565b7f4552433732313a206f776e657220717565727920666f72206e6f6e657869737460008201527f656e7420746f6b656e0000000000000000000000000000000000000000000000602082015250565b600061368c602983612a1a565b915061369782613630565b604082019050919050565b600060208201905081810360008301526136bb8161367f565b9050919050565b7f4552433732313a2062616c616e636520717565727920666f7220746865207a6560008201527f726f206164647265737300000000000000000000000000000000000000000000602082015250565b600061371e602a83612a1a565b9150613729826136c2565b604082019050919050565b6000602082019050818103600083015261374d81613711565b9050919050565b7f4f776e61626c653a2063616c6c6572206973206e6f7420746865206f776e6572600082015250565b600061378a602083612a1a565b915061379582613754565b602082019050919050565b600060208201905081810360008301526137b98161377d565b9050919050565b7f596f7520616c72656164792068617665204d42525348502e0000000000000000600082015250565b60006137f6601883612a1a565b9150613801826137c0565b602082019050919050565b60006020820190508181036000830152613825816137e9565b9050919050565b6000613837826129db565b91507fffffffffffffffffffffffffffffffffffffffffffffffffffffffffffffffff82141561386a576138696134a5565b5b600182019050919050565b6000613880826129db565b915061388b836129db565b92508261389b5761389a6135d0565b5b828204905092915050565b600081905092915050565b7f7b226e616d65223a20225477696e746f706961204d656d626572736869702023600082015250565b60006138e76020836138a6565b91506138f2826138b1565b602082019050919050565b600061390882612a0f565b61391281856138a6565b9350613922818560208601612a2b565b80840191505092915050565b7f2000000000000000000000000000000000000000000000000000000000000000600082015250565b60006139646001836138a6565b915061396f8261392e565b600182019050919050565b60008190508160005260206000209050919050565b6000815461399c81613029565b6139a681866138a6565b945060018216600081146139c157600181146139d257613a05565b60ff19831686528186019350613a05565b6139db8561397a565b60005b838110156139fd578154818901526001820191506020810190506139de565b838801955050505b50505092915050565b7f222c202265787465726e616c5f75726c223a2268747470733a2f2f747769747460008201527f65722e636f6d2f00000000000000000000000000000000000000000000000000602082015250565b6000613a6a6027836138a6565b9150613a7582613a0e565b602782019050919050565b7f222c20226465736372697074696f6e223a20225b56696577206f6e205477697460008201527f7465722061626f7574206d656d6265725d2868747470733a2f2f74776974746560208201527f722e636f6d2f0000000000000000000000000000000000000000000000000000604082015250565b6000613b026046836138a6565b9150613b0d82613a80565b604682019050919050565b7f292e202054686973204e465420697320666f7220546865204d656d626572732060008201527f6f6620746865205477696e746f70696120636f6d6d756e6974792072756e206260208201527f792073796e73636869736d6f20496e632e202020f09f8f86205468652072696760408201527f687420746f20696e76697465206e6577206d656d626572732e20202020f09f8e60608201527f8920507265666572656e7469616c2061636365737320746f2062656e6566697460808201527f732072656c6174656420746f206f75722073657276696365732e20202020f09f60a08201527f9a802054686520726967687420746f20706172746963697061746520696e206660c08201527f75747572652074657374696e67206f66206f75722073657276696365732e222c60e08201527f2022616e696d6174696f6e5f75726c223a20220000000000000000000000000061010082015250565b6000613c80610113836138a6565b9150613c8b82613b18565b61011382019050919050565b7f222c2022696d616765223a202200000000000000000000000000000000000000600082015250565b6000613ccd600d836138a6565b9150613cd882613c97565b600d82019050919050565b7f222c202261747472696275746573223a5b7b2274726169745f74797065223a2060008201527f224d696e746564204279222c2276616c7565223a202200000000000000000000602082015250565b6000613d3f6036836138a6565b9150613d4a82613ce3565b603682019050919050565b7f227d2c7b2274726169745f74797065223a20224c61746974756465222c20227660008201527f616c7565223a2200000000000000000000000000000000000000000000000000602082015250565b6000613db16027836138a6565b9150613dbc82613d55565b602782019050919050565b7f227d2c7b2274726169745f74797065223a224c6f6e676974756465222c20227660008201527f616c7565223a2200000000000000000000000000000000000000000000000000602082015250565b6000613e236027836138a6565b9150613e2e82613dc7565b602782019050919050565b7f227d2c7b22646973706c61795f74797065223a202264617465222c227472616960008201527f745f74797065223a202244617465206f66204a6f696e696e67222c2276616c7560208201527f65223a2200000000000000000000000000000000000000000000000000000000604082015250565b6000613ebb6044836138a6565b9150613ec682613e39565b604482019050919050565b7f227d2c7b2274726169745f74797065223a2022496e7669746564206279222c2060008201527f2276616c7565223a220000000000000000000000000000000000000000000000602082015250565b6000613f2d6029836138a6565b9150613f3882613ed1565b602982019050919050565b7f227d2c7b2274726169745f74797065223a224e756d626572206f6620496e766960008201527f7465222c202276616c7565223a22000000000000000000000000000000000000602082015250565b6000613f9f602e836138a6565b9150613faa82613f43565b602e82019050919050565b7f227d5d7d00000000000000000000000000000000000000000000000000000000600082015250565b6000613feb6004836138a6565b9150613ff682613fb5565b600482019050919050565b600061400c826138da565b9150614018828f6138fd565b915061402382613957565b915061402f828e61398f565b915061403a82613a5d565b9150614046828d61398f565b915061405182613af5565b915061405d828c61398f565b915061406882613c72565b9150614074828b61398f565b915061407f82613cc0565b915061408b828a61398f565b915061409682613d32565b91506140a282896138fd565b91506140ad82613da4565b91506140b982886138fd565b91506140c482613e16565b91506140d082876138fd565b91506140db82613eae565b91506140e782866138fd565b91506140f282613f20565b91506140fe82856138fd565b915061410982613f92565b915061411582846138fd565b915061412082613fde565b91508190509d9c50505050505050505050505050565b7f646174613a6170706c69636174696f6e2f6a736f6e3b6261736536342c000000600082015250565b600061416c601d836138a6565b915061417782614136565b601d82019050919050565b600061418d8261415f565b915061419982846138fd565b915081905092915050565b7f4f776e61626c653a206e6577206f776e657220697320746865207a65726f206160008201527f6464726573730000000000000000000000000000000000000000000000000000602082015250565b6000614200602683612a1a565b915061420b826141a4565b604082019050919050565b6000602082019050818103600083015261422f816141f3565b9050919050565b7f4552433732313a20617070726f766520746f2063616c6c657200000000000000600082015250565b600061426c601983612a1a565b915061427782614236565b602082019050919050565b6000602082019050818103600083015261429b8161425f565b9050919050565b7f45524337323155524953746f726167653a2055524920736574206f66206e6f6e60008201527f6578697374656e7420746f6b656e000000000000000000000000000000000000602082015250565b60006142fe602e83612a1a565b9150614309826142a2565b604082019050919050565b6000602082019050818103600083015261432d816142f1565b9050919050565b600061433f826129db565b915061434a836129db565b92508282101561435d5761435c6134a5565b5b828203905092915050565b7f4e487b7100000000000000000000000000000000000000000000000000000000600052603260045260246000fd5b60006143a2826129db565b91506143ad836129db565b9250817fffffffffffffffffffffffffffffffffffffffffffffffffffffffffffffffff04831182151516156143e6576143e56134a5565b5b828202905092915050565b7f4552433732313a207472616e7366657220746f206e6f6e20455243373231526560008201527f63656976657220696d706c656d656e7465720000000000000000000000000000602082015250565b600061444d603283612a1a565b9150614458826143f1565b604082019050919050565b6000602082019050818103600083015261447c81614440565b9050919050565b7f4552433732313a206d696e7420746f20746865207a65726f2061646472657373600082015250565b60006144b9602083612a1a565b91506144c482614483565b602082019050919050565b600060208201905081810360008301526144e8816144ac565b9050919050565b7f4552433732313a20746f6b656e20616c7265616479206d696e74656400000000600082015250565b6000614525601c83612a1a565b9150614530826144ef565b602082019050919050565b6000602082019050818103600083015261455481614518565b9050919050565b600081519050919050565b600082825260208201905092915050565b60006145828261455b565b61458c8185614566565b935061459c818560208601612a2b565b6145a581612a5e565b840191505092915050565b60006080820190506145c56000830187612b23565b6145d26020830186612b23565b6145df60408301856129e5565b81810360608301526145f18184614577565b905095945050505050565b60008151905061460b816128c1565b92915050565b6000602082840312156146275761462661288b565b5b6000614635848285016145fc565b9150509291505056fe68747470733a2f2f676174657761792e70696e6174612e636c6f75642f697066732f516d5958766a5179647576517a746f6e454c6d6a42506d3152426b646e615969714b395734364548707a7832386968747470733a2f2f676174657761792e70696e6174612e636c6f75642f697066732f516d50525970506a62445358333743654e5457694d78576e336479354c77696f353966706a33646674484b70684368747470733a2f2f676174657761792e70696e6174612e636c6f75642f697066732f516d4e554270647438624661726344455a6f6259376b515371414b6a39586359375053655a686736384a663135774142434445464748494a4b4c4d4e4f505152535455565758595a6162636465666768696a6b6c6d6e6f707172737475767778797a303132333435363738392b2f68747470733a2f2f676174657761792e70696e6174612e636c6f75642f697066732f516d5a35706e79734e4742327a6f52384b737471394c70375138746d414368394852486e4c55506d3646454a514468747470733a2f2f676174657761792e70696e6174612e636c6f75642f697066732f516d5250616b697379554d774448456d475177516e574e643468647744734d57555645387a67415a55754654546868747470733a2f2f676174657761792e70696e6174612e636c6f75642f697066732f516d504d6b3678634c58647a686b4c684452565a715465705459344d324c62336358443447444b4a335171365331a26469706673582212202782766d8a8d504b590669ab4df4411c6ffac0112c58f228dea74608983e048c64736f6c634300080c0033",
			"opcodes": "PUSH1 0x80 PUSH1 0x40 MSTORE CALLVALUE DUP1 ISZERO PUSH3 0x11 JUMPI PUSH1 0x0 DUP1 REVERT JUMPDEST POP PUSH1 0x40 MLOAD DUP1 PUSH1 0x40 ADD PUSH1 0x40 MSTORE DUP1 PUSH1 0x14 DUP2 MSTORE PUSH1 0x20 ADD PUSH32 0x5477696E746F706961204D656D62657273686970000000000000000000000000 DUP2 MSTORE POP PUSH1 0x40 MLOAD DUP1 PUSH1 0x40 ADD PUSH1 0x40 MSTORE DUP1 PUSH1 0xA DUP2 MSTORE PUSH1 0x20 ADD PUSH32 0x5457494E4D425253485000000000000000000000000000000000000000000000 DUP2 MSTORE POP DUP2 PUSH1 0x0 SWAP1 DUP1 MLOAD SWAP1 PUSH1 0x20 ADD SWAP1 PUSH3 0x96 SWAP3 SWAP2 SWAP1 PUSH3 0x1A6 JUMP JUMPDEST POP DUP1 PUSH1 0x1 SWAP1 DUP1 MLOAD SWAP1 PUSH1 0x20 ADD SWAP1 PUSH3 0xAF SWAP3 SWAP2 SWAP1 PUSH3 0x1A6 JUMP JUMPDEST POP POP POP PUSH3 0xD2 PUSH3 0xC6 PUSH3 0xD8 PUSH1 0x20 SHL PUSH1 0x20 SHR JUMP JUMPDEST PUSH3 0xE0 PUSH1 0x20 SHL PUSH1 0x20 SHR JUMP JUMPDEST PUSH3 0x2BB JUMP JUMPDEST PUSH1 0x0 CALLER SWAP1 POP SWAP1 JUMP JUMPDEST PUSH1 0x0 PUSH1 0x7 PUSH1 0x0 SWAP1 SLOAD SWAP1 PUSH2 0x100 EXP SWAP1 DIV PUSH20 0xFFFFFFFFFFFFFFFFFFFFFFFFFFFFFFFFFFFFFFFF AND SWAP1 POP DUP2 PUSH1 0x7 PUSH1 0x0 PUSH2 0x100 EXP DUP2 SLOAD DUP2 PUSH20 0xFFFFFFFFFFFFFFFFFFFFFFFFFFFFFFFFFFFFFFFF MUL NOT AND SWAP1 DUP4 PUSH20 0xFFFFFFFFFFFFFFFFFFFFFFFFFFFFFFFFFFFFFFFF AND MUL OR SWAP1 SSTORE POP DUP2 PUSH20 0xFFFFFFFFFFFFFFFFFFFFFFFFFFFFFFFFFFFFFFFF AND DUP2 PUSH20 0xFFFFFFFFFFFFFFFFFFFFFFFFFFFFFFFFFFFFFFFF AND PUSH32 0x8BE0079C531659141344CD1FD0A4F28419497F9722A3DAAFE3B4186F6B6457E0 PUSH1 0x40 MLOAD PUSH1 0x40 MLOAD DUP1 SWAP2 SUB SWAP1 LOG3 POP POP JUMP JUMPDEST DUP3 DUP1 SLOAD PUSH3 0x1B4 SWAP1 PUSH3 0x285 JUMP JUMPDEST SWAP1 PUSH1 0x0 MSTORE PUSH1 0x20 PUSH1 0x0 KECCAK256 SWAP1 PUSH1 0x1F ADD PUSH1 0x20 SWAP1 DIV DUP2 ADD SWAP3 DUP3 PUSH3 0x1D8 JUMPI PUSH1 0x0 DUP6 SSTORE PUSH3 0x224 JUMP JUMPDEST DUP3 PUSH1 0x1F LT PUSH3 0x1F3 JUMPI DUP1 MLOAD PUSH1 0xFF NOT AND DUP4 DUP1 ADD OR DUP6 SSTORE PUSH3 0x224 JUMP JUMPDEST DUP3 DUP1 ADD PUSH1 0x1 ADD DUP6 SSTORE DUP3 ISZERO PUSH3 0x224 JUMPI SWAP2 DUP3 ADD JUMPDEST DUP3 DUP2 GT ISZERO PUSH3 0x223 JUMPI DUP3 MLOAD DUP3 SSTORE SWAP2 PUSH1 0x20 ADD SWAP2 SWAP1 PUSH1 0x1 ADD SWAP1 PUSH3 0x206 JUMP JUMPDEST JUMPDEST POP SWAP1 POP PUSH3 0x233 SWAP2 SWAP1 PUSH3 0x237 JUMP JUMPDEST POP SWAP1 JUMP JUMPDEST JUMPDEST DUP1 DUP3 GT ISZERO PUSH3 0x252 JUMPI PUSH1 0x0 DUP2 PUSH1 0x0 SWAP1 SSTORE POP PUSH1 0x1 ADD PUSH3 0x238 JUMP JUMPDEST POP SWAP1 JUMP JUMPDEST PUSH32 0x4E487B7100000000000000000000000000000000000000000000000000000000 PUSH1 0x0 MSTORE PUSH1 0x22 PUSH1 0x4 MSTORE PUSH1 0x24 PUSH1 0x0 REVERT JUMPDEST PUSH1 0x0 PUSH1 0x2 DUP3 DIV SWAP1 POP PUSH1 0x1 DUP3 AND DUP1 PUSH3 0x29E JUMPI PUSH1 0x7F DUP3 AND SWAP2 POP JUMPDEST PUSH1 0x20 DUP3 LT DUP2 EQ ISZERO PUSH3 0x2B5 JUMPI PUSH3 0x2B4 PUSH3 0x256 JUMP JUMPDEST JUMPDEST POP SWAP2 SWAP1 POP JUMP JUMPDEST PUSH2 0x4894 DUP1 PUSH3 0x2CB PUSH1 0x0 CODECOPY PUSH1 0x0 RETURN INVALID PUSH1 0x80 PUSH1 0x40 MSTORE CALLVALUE DUP1 ISZERO PUSH2 0x10 JUMPI PUSH1 0x0 DUP1 REVERT JUMPDEST POP PUSH1 0x4 CALLDATASIZE LT PUSH2 0x158 JUMPI PUSH1 0x0 CALLDATALOAD PUSH1 0xE0 SHR DUP1 PUSH4 0x6352211E GT PUSH2 0xC3 JUMPI DUP1 PUSH4 0xB12FCCEC GT PUSH2 0x7C JUMPI DUP1 PUSH4 0xB12FCCEC EQ PUSH2 0x3CC JUMPI DUP1 PUSH4 0xB88D4FDE EQ PUSH2 0x3E8 JUMPI DUP1 PUSH4 0xC87B56DD EQ PUSH2 0x404 JUMPI DUP1 PUSH4 0xE5326AB1 EQ PUSH2 0x434 JUMPI DUP1 PUSH4 0xE985E9C5 EQ PUSH2 0x452 JUMPI DUP1 PUSH4 0xF2FDE38B EQ PUSH2 0x482 JUMPI PUSH2 0x158 JUMP JUMPDEST DUP1 PUSH4 0x6352211E EQ PUSH2 0x30A JUMPI DUP1 PUSH4 0x70A08231 EQ PUSH2 0x33A JUMPI DUP1 PUSH4 0x715018A6 EQ PUSH2 0x36A JUMPI DUP1 PUSH4 0x8DA5CB5B EQ PUSH2 0x374 JUMPI DUP1 PUSH4 0x95D89B41 EQ PUSH2 0x392 JUMPI DUP1 PUSH4 0xA22CB465 EQ PUSH2 0x3B0 JUMPI PUSH2 0x158 JUMP JUMPDEST DUP1 PUSH4 0x2F39352A GT PUSH2 0x115 JUMPI DUP1 PUSH4 0x2F39352A EQ PUSH2 0x243 JUMPI DUP1 PUSH4 0x42842E0E EQ PUSH2 0x261 JUMPI DUP1 PUSH4 0x57729DBC EQ PUSH2 0x27D JUMPI DUP1 PUSH4 0x5C76577C EQ PUSH2 0x2B4 JUMPI DUP1 PUSH4 0x5EC01E4D EQ PUSH2 0x2D0 JUMPI DUP1 PUSH4 0x605A0512 EQ PUSH2 0x2EE JUMPI PUSH2 0x158 JUMP JUMPDEST DUP1 PUSH4 0x1FFC9A7 EQ PUSH2 0x15D JUMPI DUP1 PUSH4 0x3D22E39 EQ PUSH2 0x18D JUMPI DUP1 PUSH4 0x6FDDE03 EQ PUSH2 0x1BD JUMPI DUP1 PUSH4 0x81812FC EQ PUSH2 0x1DB JUMPI DUP1 PUSH4 0x95EA7B3 EQ PUSH2 0x20B JUMPI DUP1 PUSH4 0x23B872DD EQ PUSH2 0x227 JUMPI JUMPDEST PUSH1 0x0 DUP1 REVERT JUMPDEST PUSH2 0x177 PUSH1 0x4 DUP1 CALLDATASIZE SUB DUP2 ADD SWAP1 PUSH2 0x172 SWAP2 SWAP1 PUSH2 0x28ED JUMP JUMPDEST PUSH2 0x49E JUMP JUMPDEST PUSH1 0x40 MLOAD PUSH2 0x184 SWAP2 SWAP1 PUSH2 0x2935 JUMP JUMPDEST PUSH1 0x40 MLOAD DUP1 SWAP2 SUB SWAP1 RETURN JUMPDEST PUSH2 0x1A7 PUSH1 0x4 DUP1 CALLDATASIZE SUB DUP2 ADD SWAP1 PUSH2 0x1A2 SWAP2 SWAP1 PUSH2 0x29AE JUMP JUMPDEST PUSH2 0x580 JUMP JUMPDEST PUSH1 0x40 MLOAD PUSH2 0x1B4 SWAP2 SWAP1 PUSH2 0x29F4 JUMP JUMPDEST PUSH1 0x40 MLOAD DUP1 SWAP2 SUB SWAP1 RETURN JUMPDEST PUSH2 0x1C5 PUSH2 0x598 JUMP JUMPDEST PUSH1 0x40 MLOAD PUSH2 0x1D2 SWAP2 SWAP1 PUSH2 0x2AA8 JUMP JUMPDEST PUSH1 0x40 MLOAD DUP1 SWAP2 SUB SWAP1 RETURN JUMPDEST PUSH2 0x1F5 PUSH1 0x4 DUP1 CALLDATASIZE SUB DUP2 ADD SWAP1 PUSH2 0x1F0 SWAP2 SWAP1 PUSH2 0x2AF6 JUMP JUMPDEST PUSH2 0x62A JUMP JUMPDEST PUSH1 0x40 MLOAD PUSH2 0x202 SWAP2 SWAP1 PUSH2 0x2B32 JUMP JUMPDEST PUSH1 0x40 MLOAD DUP1 SWAP2 SUB SWAP1 RETURN JUMPDEST PUSH2 0x225 PUSH1 0x4 DUP1 CALLDATASIZE SUB DUP2 ADD SWAP1 PUSH2 0x220 SWAP2 SWAP1 PUSH2 0x2B4D JUMP JUMPDEST PUSH2 0x6AF JUMP JUMPDEST STOP JUMPDEST PUSH2 0x241 PUSH1 0x4 DUP1 CALLDATASIZE SUB DUP2 ADD SWAP1 PUSH2 0x23C SWAP2 SWAP1 PUSH2 0x2B8D JUMP JUMPDEST PUSH2 0x7C7 JUMP JUMPDEST STOP JUMPDEST PUSH2 0x24B PUSH2 0x802 JUMP JUMPDEST PUSH1 0x40 MLOAD PUSH2 0x258 SWAP2 SWAP1 PUSH2 0x2AA8 JUMP JUMPDEST PUSH1 0x40 MLOAD DUP1 SWAP2 SUB SWAP1 RETURN JUMPDEST PUSH2 0x27B PUSH1 0x4 DUP1 CALLDATASIZE SUB DUP2 ADD SWAP1 PUSH2 0x276 SWAP2 SWAP1 PUSH2 0x2B8D JUMP JUMPDEST PUSH2 0x890 JUMP JUMPDEST STOP JUMPDEST PUSH2 0x297 PUSH1 0x4 DUP1 CALLDATASIZE SUB DUP2 ADD SWAP1 PUSH2 0x292 SWAP2 SWAP1 PUSH2 0x2AF6 JUMP JUMPDEST PUSH2 0x8CB JUMP JUMPDEST PUSH1 0x40 MLOAD PUSH2 0x2AB SWAP9 SWAP8 SWAP7 SWAP6 SWAP5 SWAP4 SWAP3 SWAP2 SWAP1 PUSH2 0x2BE0 JUMP JUMPDEST PUSH1 0x40 MLOAD DUP1 SWAP2 SUB SWAP1 RETURN JUMPDEST PUSH2 0x2CE PUSH1 0x4 DUP1 CALLDATASIZE SUB DUP2 ADD SWAP1 PUSH2 0x2C9 SWAP2 SWAP1 PUSH2 0x29AE JUMP JUMPDEST PUSH2 0xA63 JUMP JUMPDEST STOP JUMPDEST PUSH2 0x2D8 PUSH2 0xD91 JUMP JUMPDEST PUSH1 0x40 MLOAD PUSH2 0x2E5 SWAP2 SWAP1 PUSH2 0x29F4 JUMP JUMPDEST PUSH1 0x40 MLOAD DUP1 SWAP2 SUB SWAP1 RETURN JUMPDEST PUSH2 0x308 PUSH1 0x4 DUP1 CALLDATASIZE SUB DUP2 ADD SWAP1 PUSH2 0x303 SWAP2 SWAP1 PUSH2 0x2C6C JUMP JUMPDEST PUSH2 0xDD2 JUMP JUMPDEST STOP JUMPDEST PUSH2 0x324 PUSH1 0x4 DUP1 CALLDATASIZE SUB DUP2 ADD SWAP1 PUSH2 0x31F SWAP2 SWAP1 PUSH2 0x2AF6 JUMP JUMPDEST PUSH2 0xF37 JUMP JUMPDEST PUSH1 0x40 MLOAD PUSH2 0x331 SWAP2 SWAP1 PUSH2 0x2B32 JUMP JUMPDEST PUSH1 0x40 MLOAD DUP1 SWAP2 SUB SWAP1 RETURN JUMPDEST PUSH2 0x354 PUSH1 0x4 DUP1 CALLDATASIZE SUB DUP2 ADD SWAP1 PUSH2 0x34F SWAP2 SWAP1 PUSH2 0x29AE JUMP JUMPDEST PUSH2 0xFE9 JUMP JUMPDEST PUSH1 0x40 MLOAD PUSH2 0x361 SWAP2 SWAP1 PUSH2 0x29F4 JUMP JUMPDEST PUSH1 0x40 MLOAD DUP1 SWAP2 SUB SWAP1 RETURN JUMPDEST PUSH2 0x372 PUSH2 0x10A1 JUMP JUMPDEST STOP JUMPDEST PUSH2 0x37C PUSH2 0x1129 JUMP JUMPDEST PUSH1 0x40 MLOAD PUSH2 0x389 SWAP2 SWAP1 PUSH2 0x2B32 JUMP JUMPDEST PUSH1 0x40 MLOAD DUP1 SWAP2 SUB SWAP1 RETURN JUMPDEST PUSH2 0x39A PUSH2 0x1153 JUMP JUMPDEST PUSH1 0x40 MLOAD PUSH2 0x3A7 SWAP2 SWAP1 PUSH2 0x2AA8 JUMP JUMPDEST PUSH1 0x40 MLOAD DUP1 SWAP2 SUB SWAP1 RETURN JUMPDEST PUSH2 0x3CA PUSH1 0x4 DUP1 CALLDATASIZE SUB DUP2 ADD SWAP1 PUSH2 0x3C5 SWAP2 SWAP1 PUSH2 0x2CD8 JUMP JUMPDEST PUSH2 0x11E5 JUMP JUMPDEST STOP JUMPDEST PUSH2 0x3E6 PUSH1 0x4 DUP1 CALLDATASIZE SUB DUP2 ADD SWAP1 PUSH2 0x3E1 SWAP2 SWAP1 PUSH2 0x2E4D JUMP JUMPDEST PUSH2 0x11FB JUMP JUMPDEST STOP JUMPDEST PUSH2 0x402 PUSH1 0x4 DUP1 CALLDATASIZE SUB DUP2 ADD SWAP1 PUSH2 0x3FD SWAP2 SWAP1 PUSH2 0x2F37 JUMP JUMPDEST PUSH2 0x1720 JUMP JUMPDEST STOP JUMPDEST PUSH2 0x41E PUSH1 0x4 DUP1 CALLDATASIZE SUB DUP2 ADD SWAP1 PUSH2 0x419 SWAP2 SWAP1 PUSH2 0x2AF6 JUMP JUMPDEST PUSH2 0x175B JUMP JUMPDEST PUSH1 0x40 MLOAD PUSH2 0x42B SWAP2 SWAP1 PUSH2 0x2AA8 JUMP JUMPDEST PUSH1 0x40 MLOAD DUP1 SWAP2 SUB SWAP1 RETURN JUMPDEST PUSH2 0x43C PUSH2 0x1A82 JUMP JUMPDEST PUSH1 0x40 MLOAD PUSH2 0x449 SWAP2 SWAP1 PUSH2 0x2AA8 JUMP JUMPDEST PUSH1 0x40 MLOAD DUP1 SWAP2 SUB SWAP1 RETURN JUMPDEST PUSH2 0x46C PUSH1 0x4 DUP1 CALLDATASIZE SUB DUP2 ADD SWAP1 PUSH2 0x467 SWAP2 SWAP1 PUSH2 0x2FBA JUMP JUMPDEST PUSH2 0x1B10 JUMP JUMPDEST PUSH1 0x40 MLOAD PUSH2 0x479 SWAP2 SWAP1 PUSH2 0x2935 JUMP JUMPDEST PUSH1 0x40 MLOAD DUP1 SWAP2 SUB SWAP1 RETURN JUMPDEST PUSH2 0x49C PUSH1 0x4 DUP1 CALLDATASIZE SUB DUP2 ADD SWAP1 PUSH2 0x497 SWAP2 SWAP1 PUSH2 0x29AE JUMP JUMPDEST PUSH2 0x1BA4 JUMP JUMPDEST STOP JUMPDEST PUSH1 0x0 PUSH32 0x80AC58CD00000000000000000000000000000000000000000000000000000000 PUSH28 0xFFFFFFFFFFFFFFFFFFFFFFFFFFFFFFFFFFFFFFFFFFFFFFFFFFFFFFFF NOT AND DUP3 PUSH28 0xFFFFFFFFFFFFFFFFFFFFFFFFFFFFFFFFFFFFFFFFFFFFFFFFFFFFFFFF NOT AND EQ DUP1 PUSH2 0x569 JUMPI POP PUSH32 0x5B5E139F00000000000000000000000000000000000000000000000000000000 PUSH28 0xFFFFFFFFFFFFFFFFFFFFFFFFFFFFFFFFFFFFFFFFFFFFFFFFFFFFFFFF NOT AND DUP3 PUSH28 0xFFFFFFFFFFFFFFFFFFFFFFFFFFFFFFFFFFFFFFFFFFFFFFFFFFFFFFFF NOT AND EQ JUMPDEST DUP1 PUSH2 0x579 JUMPI POP PUSH2 0x578 DUP3 PUSH2 0x1C9C JUMP JUMPDEST JUMPDEST SWAP1 POP SWAP2 SWAP1 POP JUMP JUMPDEST PUSH1 0xF PUSH1 0x20 MSTORE DUP1 PUSH1 0x0 MSTORE PUSH1 0x40 PUSH1 0x0 KECCAK256 PUSH1 0x0 SWAP2 POP SWAP1 POP SLOAD DUP2 JUMP JUMPDEST PUSH1 0x60 PUSH1 0x0 DUP1 SLOAD PUSH2 0x5A7 SWAP1 PUSH2 0x3029 JUMP JUMPDEST DUP1 PUSH1 0x1F ADD PUSH1 0x20 DUP1 SWAP2 DIV MUL PUSH1 0x20 ADD PUSH1 0x40 MLOAD SWAP1 DUP2 ADD PUSH1 0x40 MSTORE DUP1 SWAP3 SWAP2 SWAP1 DUP2 DUP2 MSTORE PUSH1 0x20 ADD DUP3 DUP1 SLOAD PUSH2 0x5D3 SWAP1 PUSH2 0x3029 JUMP JUMPDEST DUP1 ISZERO PUSH2 0x620 JUMPI DUP1 PUSH1 0x1F LT PUSH2 0x5F5 JUMPI PUSH2 0x100 DUP1 DUP4 SLOAD DIV MUL DUP4 MSTORE SWAP2 PUSH1 0x20 ADD SWAP2 PUSH2 0x620 JUMP JUMPDEST DUP3 ADD SWAP2 SWAP1 PUSH1 0x0 MSTORE PUSH1 0x20 PUSH1 0x0 KECCAK256 SWAP1 JUMPDEST DUP2 SLOAD DUP2 MSTORE SWAP1 PUSH1 0x1 ADD SWAP1 PUSH1 0x20 ADD DUP1 DUP4 GT PUSH2 0x603 JUMPI DUP3 SWAP1 SUB PUSH1 0x1F AND DUP3 ADD SWAP2 JUMPDEST POP POP POP POP POP SWAP1 POP SWAP1 JUMP JUMPDEST PUSH1 0x0 PUSH2 0x635 DUP3 PUSH2 0x1D06 JUMP JUMPDEST PUSH2 0x674 JUMPI PUSH1 0x40 MLOAD PUSH32 0x8C379A000000000000000000000000000000000000000000000000000000000 DUP2 MSTORE PUSH1 0x4 ADD PUSH2 0x66B SWAP1 PUSH2 0x30CD JUMP JUMPDEST PUSH1 0x40 MLOAD DUP1 SWAP2 SUB SWAP1 REVERT JUMPDEST PUSH1 0x4 PUSH1 0x0 DUP4 DUP2 MSTORE PUSH1 0x20 ADD SWAP1 DUP2 MSTORE PUSH1 0x20 ADD PUSH1 0x0 KECCAK256 PUSH1 0x0 SWAP1 SLOAD SWAP1 PUSH2 0x100 EXP SWAP1 DIV PUSH20 0xFFFFFFFFFFFFFFFFFFFFFFFFFFFFFFFFFFFFFFFF AND SWAP1 POP SWAP2 SWAP1 POP JUMP JUMPDEST PUSH1 0x0 PUSH2 0x6BA DUP3 PUSH2 0xF37 JUMP JUMPDEST SWAP1 POP DUP1 PUSH20 0xFFFFFFFFFFFFFFFFFFFFFFFFFFFFFFFFFFFFFFFF AND DUP4 PUSH20 0xFFFFFFFFFFFFFFFFFFFFFFFFFFFFFFFFFFFFFFFF AND EQ ISZERO PUSH2 0x72B JUMPI PUSH1 0x40 MLOAD PUSH32 0x8C379A000000000000000000000000000000000000000000000000000000000 DUP2 MSTORE PUSH1 0x4 ADD PUSH2 0x722 SWAP1 PUSH2 0x315F JUMP JUMPDEST PUSH1 0x40 MLOAD DUP1 SWAP2 SUB SWAP1 REVERT JUMPDEST DUP1 PUSH20 0xFFFFFFFFFFFFFFFFFFFFFFFFFFFFFFFFFFFFFFFF AND PUSH2 0x74A PUSH2 0x1D72 JUMP JUMPDEST PUSH20 0xFFFFFFFFFFFFFFFFFFFFFFFFFFFFFFFFFFFFFFFF AND EQ DUP1 PUSH2 0x779 JUMPI POP PUSH2 0x778 DUP2 PUSH2 0x773 PUSH2 0x1D72 JUMP JUMPDEST PUSH2 0x1B10 JUMP JUMPDEST JUMPDEST PUSH2 0x7B8 JUMPI PUSH1 0x40 MLOAD PUSH32 0x8C379A000000000000000000000000000000000000000000000000000000000 DUP2 MSTORE PUSH1 0x4 ADD PUSH2 0x7AF SWAP1 PUSH2 0x31F1 JUMP JUMPDEST PUSH1 0x40 MLOAD DUP1 SWAP2 SUB SWAP1 REVERT JUMPDEST PUSH2 0x7C2 DUP4 DUP4 PUSH2 0x1D7A JUMP JUMPDEST POP POP POP JUMP JUMPDEST PUSH1 0x40 MLOAD PUSH32 0x8C379A000000000000000000000000000000000000000000000000000000000 DUP2 MSTORE PUSH1 0x4 ADD PUSH2 0x7F9 SWAP1 PUSH2 0x3283 JUMP JUMPDEST PUSH1 0x40 MLOAD DUP1 SWAP2 SUB SWAP1 REVERT JUMPDEST PUSH1 0xA DUP1 SLOAD PUSH2 0x80F SWAP1 PUSH2 0x3029 JUMP JUMPDEST DUP1 PUSH1 0x1F ADD PUSH1 0x20 DUP1 SWAP2 DIV MUL PUSH1 0x20 ADD PUSH1 0x40 MLOAD SWAP1 DUP2 ADD PUSH1 0x40 MSTORE DUP1 SWAP3 SWAP2 SWAP1 DUP2 DUP2 MSTORE PUSH1 0x20 ADD DUP3 DUP1 SLOAD PUSH2 0x83B SWAP1 PUSH2 0x3029 JUMP JUMPDEST DUP1 ISZERO PUSH2 0x888 JUMPI DUP1 PUSH1 0x1F LT PUSH2 0x85D JUMPI PUSH2 0x100 DUP1 DUP4 SLOAD DIV MUL DUP4 MSTORE SWAP2 PUSH1 0x20 ADD SWAP2 PUSH2 0x888 JUMP JUMPDEST DUP3 ADD SWAP2 SWAP1 PUSH1 0x0 MSTORE PUSH1 0x20 PUSH1 0x0 KECCAK256 SWAP1 JUMPDEST DUP2 SLOAD DUP2 MSTORE SWAP1 PUSH1 0x1 ADD SWAP1 PUSH1 0x20 ADD DUP1 DUP4 GT PUSH2 0x86B JUMPI DUP3 SWAP1 SUB PUSH1 0x1F AND DUP3 ADD SWAP2 JUMPDEST POP POP POP POP POP DUP2 JUMP JUMPDEST PUSH1 0x40 MLOAD PUSH32 0x8C379A000000000000000000000000000000000000000000000000000000000 DUP2 MSTORE PUSH1 0x4 ADD PUSH2 0x8C2 SWAP1 PUSH2 0x3283 JUMP JUMPDEST PUSH1 0x40 MLOAD DUP1 SWAP2 SUB SWAP1 REVERT JUMPDEST PUSH1 0xD PUSH1 0x20 MSTORE DUP1 PUSH1 0x0 MSTORE PUSH1 0x40 PUSH1 0x0 KECCAK256 PUSH1 0x0 SWAP2 POP SWAP1 POP DUP1 PUSH1 0x0 ADD PUSH1 0x0 SWAP1 SLOAD SWAP1 PUSH2 0x100 EXP SWAP1 DIV PUSH20 0xFFFFFFFFFFFFFFFFFFFFFFFFFFFFFFFFFFFFFFFF AND SWAP1 DUP1 PUSH1 0x1 ADD DUP1 SLOAD PUSH2 0x914 SWAP1 PUSH2 0x3029 JUMP JUMPDEST DUP1 PUSH1 0x1F ADD PUSH1 0x20 DUP1 SWAP2 DIV MUL PUSH1 0x20 ADD PUSH1 0x40 MLOAD SWAP1 DUP2 ADD PUSH1 0x40 MSTORE DUP1 SWAP3 SWAP2 SWAP1 DUP2 DUP2 MSTORE PUSH1 0x20 ADD DUP3 DUP1 SLOAD PUSH2 0x940 SWAP1 PUSH2 0x3029 JUMP JUMPDEST DUP1 ISZERO PUSH2 0x98D JUMPI DUP1 PUSH1 0x1F LT PUSH2 0x962 JUMPI PUSH2 0x100 DUP1 DUP4 SLOAD DIV MUL DUP4 MSTORE SWAP2 PUSH1 0x20 ADD SWAP2 PUSH2 0x98D JUMP JUMPDEST DUP3 ADD SWAP2 SWAP1 PUSH1 0x0 MSTORE PUSH1 0x20 PUSH1 0x0 KECCAK256 SWAP1 JUMPDEST DUP2 SLOAD DUP2 MSTORE SWAP1 PUSH1 0x1 ADD SWAP1 PUSH1 0x20 ADD DUP1 DUP4 GT PUSH2 0x970 JUMPI DUP3 SWAP1 SUB PUSH1 0x1F AND DUP3 ADD SWAP2 JUMPDEST POP POP POP POP POP SWAP1 DUP1 PUSH1 0x2 ADD SLOAD SWAP1 DUP1 PUSH1 0x3 ADD SLOAD SWAP1 DUP1 PUSH1 0x4 ADD SLOAD SWAP1 DUP1 PUSH1 0x5 ADD SLOAD SWAP1 DUP1 PUSH1 0x6 ADD DUP1 SLOAD PUSH2 0x9BA SWAP1 PUSH2 0x3029 JUMP JUMPDEST DUP1 PUSH1 0x1F ADD PUSH1 0x20 DUP1 SWAP2 DIV MUL PUSH1 0x20 ADD PUSH1 0x40 MLOAD SWAP1 DUP2 ADD PUSH1 0x40 MSTORE DUP1 SWAP3 SWAP2 SWAP1 DUP2 DUP2 MSTORE PUSH1 0x20 ADD DUP3 DUP1 SLOAD PUSH2 0x9E6 SWAP1 PUSH2 0x3029 JUMP JUMPDEST DUP1 ISZERO PUSH2 0xA33 JUMPI DUP1 PUSH1 0x1F LT PUSH2 0xA08 JUMPI PUSH2 0x100 DUP1 DUP4 SLOAD DIV MUL DUP4 MSTORE SWAP2 PUSH1 0x20 ADD SWAP2 PUSH2 0xA33 JUMP JUMPDEST DUP3 ADD SWAP2 SWAP1 PUSH1 0x0 MSTORE PUSH1 0x20 PUSH1 0x0 KECCAK256 SWAP1 JUMPDEST DUP2 SLOAD DUP2 MSTORE SWAP1 PUSH1 0x1 ADD SWAP1 PUSH1 0x20 ADD DUP1 DUP4 GT PUSH2 0xA16 JUMPI DUP3 SWAP1 SUB PUSH1 0x1F AND DUP3 ADD SWAP2 JUMPDEST POP POP POP POP POP SWAP1 DUP1 PUSH1 0x7 ADD PUSH1 0x0 SWAP1 SLOAD SWAP1 PUSH2 0x100 EXP SWAP1 DIV PUSH20 0xFFFFFFFFFFFFFFFFFFFFFFFFFFFFFFFFFFFFFFFF AND SWAP1 POP DUP9 JUMP JUMPDEST PUSH1 0x1 PUSH2 0xA6E CALLER PUSH2 0xFE9 JUMP JUMPDEST EQ PUSH2 0xAAE JUMPI PUSH1 0x40 MLOAD PUSH32 0x8C379A000000000000000000000000000000000000000000000000000000000 DUP2 MSTORE PUSH1 0x4 ADD PUSH2 0xAA5 SWAP1 PUSH2 0x3315 JUMP JUMPDEST PUSH1 0x40 MLOAD DUP1 SWAP2 SUB SWAP1 REVERT JUMPDEST PUSH1 0x0 PUSH2 0xAB9 DUP3 PUSH2 0xFE9 JUMP JUMPDEST EQ PUSH2 0xAF9 JUMPI PUSH1 0x40 MLOAD PUSH32 0x8C379A000000000000000000000000000000000000000000000000000000000 DUP2 MSTORE PUSH1 0x4 ADD PUSH2 0xAF0 SWAP1 PUSH2 0x33A7 JUMP JUMPDEST PUSH1 0x40 MLOAD DUP1 SWAP2 SUB SWAP1 REVERT JUMPDEST TIMESTAMP PUSH1 0xE PUSH1 0x0 DUP4 PUSH20 0xFFFFFFFFFFFFFFFFFFFFFFFFFFFFFFFFFFFFFFFF AND PUSH20 0xFFFFFFFFFFFFFFFFFFFFFFFFFFFFFFFFFFFFFFFF AND DUP2 MSTORE PUSH1 0x20 ADD SWAP1 DUP2 MSTORE PUSH1 0x20 ADD PUSH1 0x0 KECCAK256 PUSH1 0x3 ADD SLOAD LT PUSH2 0xB7D JUMPI PUSH1 0x40 MLOAD PUSH32 0x8C379A000000000000000000000000000000000000000000000000000000000 DUP2 MSTORE PUSH1 0x4 ADD PUSH2 0xB74 SWAP1 PUSH2 0x3485 JUMP JUMPDEST PUSH1 0x40 MLOAD DUP1 SWAP2 SUB SWAP1 REVERT JUMPDEST PUSH1 0x0 PUSH1 0xF PUSH1 0x0 CALLER PUSH20 0xFFFFFFFFFFFFFFFFFFFFFFFFFFFFFFFFFFFFFFFF AND PUSH20 0xFFFFFFFFFFFFFFFFFFFFFFFFFFFFFFFFFFFFFFFF AND DUP2 MSTORE PUSH1 0x20 ADD SWAP1 DUP2 MSTORE PUSH1 0x20 ADD PUSH1 0x0 KECCAK256 SLOAD SWAP1 POP PUSH1 0x0 PUSH1 0x40 MLOAD DUP1 PUSH1 0xA0 ADD PUSH1 0x40 MSTORE DUP1 DUP4 DUP2 MSTORE PUSH1 0x20 ADD PUSH1 0xD PUSH1 0x0 DUP6 DUP2 MSTORE PUSH1 0x20 ADD SWAP1 DUP2 MSTORE PUSH1 0x20 ADD PUSH1 0x0 KECCAK256 PUSH1 0x1 ADD DUP1 SLOAD PUSH2 0xBF5 SWAP1 PUSH2 0x3029 JUMP JUMPDEST DUP1 PUSH1 0x1F ADD PUSH1 0x20 DUP1 SWAP2 DIV MUL PUSH1 0x20 ADD PUSH1 0x40 MLOAD SWAP1 DUP2 ADD PUSH1 0x40 MSTORE DUP1 SWAP3 SWAP2 SWAP1 DUP2 DUP2 MSTORE PUSH1 0x20 ADD DUP3 DUP1 SLOAD PUSH2 0xC21 SWAP1 PUSH2 0x3029 JUMP JUMPDEST DUP1 ISZERO PUSH2 0xC6E JUMPI DUP1 PUSH1 0x1F LT PUSH2 0xC43 JUMPI PUSH2 0x100 DUP1 DUP4 SLOAD DIV MUL DUP4 MSTORE SWAP2 PUSH1 0x20 ADD SWAP2 PUSH2 0xC6E JUMP JUMPDEST DUP3 ADD SWAP2 SWAP1 PUSH1 0x0 MSTORE PUSH1 0x20 PUSH1 0x0 KECCAK256 SWAP1 JUMPDEST DUP2 SLOAD DUP2 MSTORE SWAP1 PUSH1 0x1 ADD SWAP1 PUSH1 0x20 ADD DUP1 DUP4 GT PUSH2 0xC51 JUMPI DUP3 SWAP1 SUB PUSH1 0x1F AND DUP3 ADD SWAP2 JUMPDEST POP POP POP POP POP DUP2 MSTORE PUSH1 0x20 ADD CALLER PUSH20 0xFFFFFFFFFFFFFFFFFFFFFFFFFFFFFFFFFFFFFFFF AND DUP2 MSTORE PUSH1 0x20 ADD PUSH1 0x1 ISZERO ISZERO DUP2 MSTORE PUSH1 0x20 ADD PUSH3 0x3F480 TIMESTAMP PUSH2 0xCAC SWAP2 SWAP1 PUSH2 0x34D4 JUMP JUMPDEST DUP2 MSTORE POP SWAP1 POP DUP1 PUSH1 0xE PUSH1 0x0 DUP6 PUSH20 0xFFFFFFFFFFFFFFFFFFFFFFFFFFFFFFFFFFFFFFFF AND PUSH20 0xFFFFFFFFFFFFFFFFFFFFFFFFFFFFFFFFFFFFFFFF AND DUP2 MSTORE PUSH1 0x20 ADD SWAP1 DUP2 MSTORE PUSH1 0x20 ADD PUSH1 0x0 KECCAK256 PUSH1 0x0 DUP3 ADD MLOAD DUP2 PUSH1 0x0 ADD SSTORE PUSH1 0x20 DUP3 ADD MLOAD DUP2 PUSH1 0x1 ADD SWAP1 DUP1 MLOAD SWAP1 PUSH1 0x20 ADD SWAP1 PUSH2 0xD17 SWAP3 SWAP2 SWAP1 PUSH2 0x27DE JUMP JUMPDEST POP PUSH1 0x40 DUP3 ADD MLOAD DUP2 PUSH1 0x2 ADD PUSH1 0x0 PUSH2 0x100 EXP DUP2 SLOAD DUP2 PUSH20 0xFFFFFFFFFFFFFFFFFFFFFFFFFFFFFFFFFFFFFFFF MUL NOT AND SWAP1 DUP4 PUSH20 0xFFFFFFFFFFFFFFFFFFFFFFFFFFFFFFFFFFFFFFFF AND MUL OR SWAP1 SSTORE POP PUSH1 0x60 DUP3 ADD MLOAD DUP2 PUSH1 0x2 ADD PUSH1 0x14 PUSH2 0x100 EXP DUP2 SLOAD DUP2 PUSH1 0xFF MUL NOT AND SWAP1 DUP4 ISZERO ISZERO MUL OR SWAP1 SSTORE POP PUSH1 0x80 DUP3 ADD MLOAD DUP2 PUSH1 0x3 ADD SSTORE SWAP1 POP POP POP POP POP JUMP JUMPDEST PUSH1 0x0 PUSH1 0x3 TIMESTAMP DIFFICULTY CALLER PUSH1 0x40 MLOAD PUSH1 0x20 ADD PUSH2 0xDAA SWAP4 SWAP3 SWAP2 SWAP1 PUSH2 0x3593 JUMP JUMPDEST PUSH1 0x40 MLOAD PUSH1 0x20 DUP2 DUP4 SUB SUB DUP2 MSTORE SWAP1 PUSH1 0x40 MSTORE DUP1 MLOAD SWAP1 PUSH1 0x20 ADD KECCAK256 PUSH1 0x0 SHR PUSH2 0xDCD SWAP2 SWAP1 PUSH2 0x35FF JUMP JUMPDEST SWAP1 POP SWAP1 JUMP JUMPDEST PUSH1 0xD PUSH1 0x0 PUSH1 0xF PUSH1 0x0 CALLER PUSH20 0xFFFFFFFFFFFFFFFFFFFFFFFFFFFFFFFFFFFFFFFF AND PUSH20 0xFFFFFFFFFFFFFFFFFFFFFFFFFFFFFFFFFFFFFFFF AND DUP2 MSTORE PUSH1 0x20 ADD SWAP1 DUP2 MSTORE PUSH1 0x20 ADD PUSH1 0x0 KECCAK256 SLOAD DUP2 MSTORE PUSH1 0x20 ADD SWAP1 DUP2 MSTORE PUSH1 0x20 ADD PUSH1 0x0 KECCAK256 PUSH1 0x0 ADD PUSH1 0x0 SWAP1 SLOAD SWAP1 PUSH2 0x100 EXP SWAP1 DIV PUSH20 0xFFFFFFFFFFFFFFFFFFFFFFFFFFFFFFFFFFFFFFFF AND PUSH20 0xFFFFFFFFFFFFFFFFFFFFFFFFFFFFFFFFFFFFFFFF AND CALLER PUSH20 0xFFFFFFFFFFFFFFFFFFFFFFFFFFFFFFFFFFFFFFFF AND EQ PUSH2 0xE7F JUMPI PUSH1 0x0 DUP1 REVERT JUMPDEST DUP2 PUSH1 0xD PUSH1 0x0 PUSH1 0xF PUSH1 0x0 CALLER PUSH20 0xFFFFFFFFFFFFFFFFFFFFFFFFFFFFFFFFFFFFFFFF AND PUSH20 0xFFFFFFFFFFFFFFFFFFFFFFFFFFFFFFFFFFFFFFFF AND DUP2 MSTORE PUSH1 0x20 ADD SWAP1 DUP2 MSTORE PUSH1 0x20 ADD PUSH1 0x0 KECCAK256 SLOAD DUP2 MSTORE PUSH1 0x20 ADD SWAP1 DUP2 MSTORE PUSH1 0x20 ADD PUSH1 0x0 KECCAK256 PUSH1 0x2 ADD DUP2 SWAP1 SSTORE POP DUP1 PUSH1 0xD PUSH1 0x0 PUSH1 0xF PUSH1 0x0 CALLER PUSH20 0xFFFFFFFFFFFFFFFFFFFFFFFFFFFFFFFFFFFFFFFF AND PUSH20 0xFFFFFFFFFFFFFFFFFFFFFFFFFFFFFFFFFFFFFFFF AND DUP2 MSTORE PUSH1 0x20 ADD SWAP1 DUP2 MSTORE PUSH1 0x20 ADD PUSH1 0x0 KECCAK256 SLOAD DUP2 MSTORE PUSH1 0x20 ADD SWAP1 DUP2 MSTORE PUSH1 0x20 ADD PUSH1 0x0 KECCAK256 PUSH1 0x3 ADD DUP2 SWAP1 SSTORE POP POP POP JUMP JUMPDEST PUSH1 0x0 DUP1 PUSH1 0x2 PUSH1 0x0 DUP5 DUP2 MSTORE PUSH1 0x20 ADD SWAP1 DUP2 MSTORE PUSH1 0x20 ADD PUSH1 0x0 KECCAK256 PUSH1 0x0 SWAP1 SLOAD SWAP1 PUSH2 0x100 EXP SWAP1 DIV PUSH20 0xFFFFFFFFFFFFFFFFFFFFFFFFFFFFFFFFFFFFFFFF AND SWAP1 POP PUSH1 0x0 PUSH20 0xFFFFFFFFFFFFFFFFFFFFFFFFFFFFFFFFFFFFFFFF AND DUP2 PUSH20 0xFFFFFFFFFFFFFFFFFFFFFFFFFFFFFFFFFFFFFFFF AND EQ ISZERO PUSH2 0xFE0 JUMPI PUSH1 0x40 MLOAD PUSH32 0x8C379A000000000000000000000000000000000000000000000000000000000 DUP2 MSTORE PUSH1 0x4 ADD PUSH2 0xFD7 SWAP1 PUSH2 0x36A2 JUMP JUMPDEST PUSH1 0x40 MLOAD DUP1 SWAP2 SUB SWAP1 REVERT JUMPDEST DUP1 SWAP2 POP POP SWAP2 SWAP1 POP JUMP JUMPDEST PUSH1 0x0 DUP1 PUSH20 0xFFFFFFFFFFFFFFFFFFFFFFFFFFFFFFFFFFFFFFFF AND DUP3 PUSH20 0xFFFFFFFFFFFFFFFFFFFFFFFFFFFFFFFFFFFFFFFF AND EQ ISZERO PUSH2 0x105A JUMPI PUSH1 0x40 MLOAD PUSH32 0x8C379A000000000000000000000000000000000000000000000000000000000 DUP2 MSTORE PUSH1 0x4 ADD PUSH2 0x1051 SWAP1 PUSH2 0x3734 JUMP JUMPDEST PUSH1 0x40 MLOAD DUP1 SWAP2 SUB SWAP1 REVERT JUMPDEST PUSH1 0x3 PUSH1 0x0 DUP4 PUSH20 0xFFFFFFFFFFFFFFFFFFFFFFFFFFFFFFFFFFFFFFFF AND PUSH20 0xFFFFFFFFFFFFFFFFFFFFFFFFFFFFFFFFFFFFFFFF AND DUP2 MSTORE PUSH1 0x20 ADD SWAP1 DUP2 MSTORE PUSH1 0x20 ADD PUSH1 0x0 KECCAK256 SLOAD SWAP1 POP SWAP2 SWAP1 POP JUMP JUMPDEST PUSH2 0x10A9 PUSH2 0x1D72 JUMP JUMPDEST PUSH20 0xFFFFFFFFFFFFFFFFFFFFFFFFFFFFFFFFFFFFFFFF AND PUSH2 0x10C7 PUSH2 0x1129 JUMP JUMPDEST PUSH20 0xFFFFFFFFFFFFFFFFFFFFFFFFFFFFFFFFFFFFFFFF AND EQ PUSH2 0x111D JUMPI PUSH1 0x40 MLOAD PUSH32 0x8C379A000000000000000000000000000000000000000000000000000000000 DUP2 MSTORE PUSH1 0x4 ADD PUSH2 0x1114 SWAP1 PUSH2 0x37A0 JUMP JUMPDEST PUSH1 0x40 MLOAD DUP1 SWAP2 SUB SWAP1 REVERT JUMPDEST PUSH2 0x1127 PUSH1 0x0 PUSH2 0x1E33 JUMP JUMPDEST JUMP JUMPDEST PUSH1 0x0 PUSH1 0x7 PUSH1 0x0 SWAP1 SLOAD SWAP1 PUSH2 0x100 EXP SWAP1 DIV PUSH20 0xFFFFFFFFFFFFFFFFFFFFFFFFFFFFFFFFFFFFFFFF AND SWAP1 POP SWAP1 JUMP JUMPDEST PUSH1 0x60 PUSH1 0x1 DUP1 SLOAD PUSH2 0x1162 SWAP1 PUSH2 0x3029 JUMP JUMPDEST DUP1 PUSH1 0x1F ADD PUSH1 0x20 DUP1 SWAP2 DIV MUL PUSH1 0x20 ADD PUSH1 0x40 MLOAD SWAP1 DUP2 ADD PUSH1 0x40 MSTORE DUP1 SWAP3 SWAP2 SWAP1 DUP2 DUP2 MSTORE PUSH1 0x20 ADD DUP3 DUP1 SLOAD PUSH2 0x118E SWAP1 PUSH2 0x3029 JUMP JUMPDEST DUP1 ISZERO PUSH2 0x11DB JUMPI DUP1 PUSH1 0x1F LT PUSH2 0x11B0 JUMPI PUSH2 0x100 DUP1 DUP4 SLOAD DIV MUL DUP4 MSTORE SWAP2 PUSH1 0x20 ADD SWAP2 PUSH2 0x11DB JUMP JUMPDEST DUP3 ADD SWAP2 SWAP1 PUSH1 0x0 MSTORE PUSH1 0x20 PUSH1 0x0 KECCAK256 SWAP1 JUMPDEST DUP2 SLOAD DUP2 MSTORE SWAP1 PUSH1 0x1 ADD SWAP1 PUSH1 0x20 ADD DUP1 DUP4 GT PUSH2 0x11BE JUMPI DUP3 SWAP1 SUB PUSH1 0x1F AND DUP3 ADD SWAP2 JUMPDEST POP POP POP POP POP SWAP1 POP SWAP1 JUMP JUMPDEST PUSH2 0x11F7 PUSH2 0x11F0 PUSH2 0x1D72 JUMP JUMPDEST DUP4 DUP4 PUSH2 0x1EF9 JUMP JUMPDEST POP POP JUMP JUMPDEST PUSH1 0x1 PUSH2 0x1206 CALLER PUSH2 0xFE9 JUMP JUMPDEST LT PUSH2 0x1246 JUMPI PUSH1 0x40 MLOAD PUSH32 0x8C379A000000000000000000000000000000000000000000000000000000000 DUP2 MSTORE PUSH1 0x4 ADD PUSH2 0x123D SWAP1 PUSH2 0x380C JUMP JUMPDEST PUSH1 0x40 MLOAD DUP1 SWAP2 SUB SWAP1 REVERT JUMPDEST PUSH2 0x1250 PUSH1 0x8 PUSH2 0x2066 JUMP JUMPDEST PUSH1 0x0 PUSH2 0x125C PUSH1 0x8 PUSH2 0x207C JUMP JUMPDEST SWAP1 POP PUSH2 0x1268 CALLER DUP3 PUSH2 0x208A JUMP JUMPDEST PUSH2 0x127A DUP2 PUSH2 0x1275 DUP4 PUSH2 0x175B JUMP JUMPDEST PUSH2 0x20A8 JUMP JUMPDEST PUSH1 0x0 PUSH1 0x40 MLOAD DUP1 PUSH2 0x100 ADD PUSH1 0x40 MSTORE DUP1 CALLER PUSH20 0xFFFFFFFFFFFFFFFFFFFFFFFFFFFFFFFFFFFFFFFF AND DUP2 MSTORE PUSH1 0x20 ADD DUP5 DUP2 MSTORE PUSH1 0x20 ADD PUSH3 0x373E80 DUP2 MSTORE PUSH1 0x20 ADD PUSH3 0xD2F50A DUP2 MSTORE PUSH1 0x20 ADD TIMESTAMP DUP2 MSTORE PUSH1 0x20 ADD PUSH1 0x0 DUP2 MSTORE PUSH1 0x20 ADD PUSH1 0xE PUSH1 0x0 CALLER PUSH20 0xFFFFFFFFFFFFFFFFFFFFFFFFFFFFFFFFFFFFFFFF AND PUSH20 0xFFFFFFFFFFFFFFFFFFFFFFFFFFFFFFFFFFFFFFFF AND DUP2 MSTORE PUSH1 0x20 ADD SWAP1 DUP2 MSTORE PUSH1 0x20 ADD PUSH1 0x0 KECCAK256 PUSH1 0x1 ADD DUP1 SLOAD PUSH2 0x1316 SWAP1 PUSH2 0x3029 JUMP JUMPDEST DUP1 PUSH1 0x1F ADD PUSH1 0x20 DUP1 SWAP2 DIV MUL PUSH1 0x20 ADD PUSH1 0x40 MLOAD SWAP1 DUP2 ADD PUSH1 0x40 MSTORE DUP1 SWAP3 SWAP2 SWAP1 DUP2 DUP2 MSTORE PUSH1 0x20 ADD DUP3 DUP1 SLOAD PUSH2 0x1342 SWAP1 PUSH2 0x3029 JUMP JUMPDEST DUP1 ISZERO PUSH2 0x138F JUMPI DUP1 PUSH1 0x1F LT PUSH2 0x1364 JUMPI PUSH2 0x100 DUP1 DUP4 SLOAD DIV MUL DUP4 MSTORE SWAP2 PUSH1 0x20 ADD SWAP2 PUSH2 0x138F JUMP JUMPDEST DUP3 ADD SWAP2 SWAP1 PUSH1 0x0 MSTORE PUSH1 0x20 PUSH1 0x0 KECCAK256 SWAP1 JUMPDEST DUP2 SLOAD DUP2 MSTORE SWAP1 PUSH1 0x1 ADD SWAP1 PUSH1 0x20 ADD DUP1 DUP4 GT PUSH2 0x1372 JUMPI DUP3 SWAP1 SUB PUSH1 0x1F AND DUP3 ADD SWAP2 JUMPDEST POP POP POP POP POP DUP2 MSTORE PUSH1 0x20 ADD PUSH1 0xE PUSH1 0x0 CALLER PUSH20 0xFFFFFFFFFFFFFFFFFFFFFFFFFFFFFFFFFFFFFFFF AND PUSH20 0xFFFFFFFFFFFFFFFFFFFFFFFFFFFFFFFFFFFFFFFF AND DUP2 MSTORE PUSH1 0x20 ADD SWAP1 DUP2 MSTORE PUSH1 0x20 ADD PUSH1 0x0 KECCAK256 PUSH1 0x2 ADD PUSH1 0x0 SWAP1 SLOAD SWAP1 PUSH2 0x100 EXP SWAP1 DIV PUSH20 0xFFFFFFFFFFFFFFFFFFFFFFFFFFFFFFFFFFFFFFFF AND PUSH20 0xFFFFFFFFFFFFFFFFFFFFFFFFFFFFFFFFFFFFFFFF AND DUP2 MSTORE POP SWAP1 POP DUP1 PUSH1 0xD PUSH1 0x0 DUP5 DUP2 MSTORE PUSH1 0x20 ADD SWAP1 DUP2 MSTORE PUSH1 0x20 ADD PUSH1 0x0 KECCAK256 PUSH1 0x0 DUP3 ADD MLOAD DUP2 PUSH1 0x0 ADD PUSH1 0x0 PUSH2 0x100 EXP DUP2 SLOAD DUP2 PUSH20 0xFFFFFFFFFFFFFFFFFFFFFFFFFFFFFFFFFFFFFFFF MUL NOT AND SWAP1 DUP4 PUSH20 0xFFFFFFFFFFFFFFFFFFFFFFFFFFFFFFFFFFFFFFFF AND MUL OR SWAP1 SSTORE POP PUSH1 0x20 DUP3 ADD MLOAD DUP2 PUSH1 0x1 ADD SWAP1 DUP1 MLOAD SWAP1 PUSH1 0x20 ADD SWAP1 PUSH2 0x148E SWAP3 SWAP2 SWAP1 PUSH2 0x27DE JUMP JUMPDEST POP PUSH1 0x40 DUP3 ADD MLOAD DUP2 PUSH1 0x2 ADD SSTORE PUSH1 0x60 DUP3 ADD MLOAD DUP2 PUSH1 0x3 ADD SSTORE PUSH1 0x80 DUP3 ADD MLOAD DUP2 PUSH1 0x4 ADD SSTORE PUSH1 0xA0 DUP3 ADD MLOAD DUP2 PUSH1 0x5 ADD SSTORE PUSH1 0xC0 DUP3 ADD MLOAD DUP2 PUSH1 0x6 ADD SWAP1 DUP1 MLOAD SWAP1 PUSH1 0x20 ADD SWAP1 PUSH2 0x14D3 SWAP3 SWAP2 SWAP1 PUSH2 0x27DE JUMP JUMPDEST POP PUSH1 0xE0 DUP3 ADD MLOAD DUP2 PUSH1 0x7 ADD PUSH1 0x0 PUSH2 0x100 EXP DUP2 SLOAD DUP2 PUSH20 0xFFFFFFFFFFFFFFFFFFFFFFFFFFFFFFFFFFFFFFFF MUL NOT AND SWAP1 DUP4 PUSH20 0xFFFFFFFFFFFFFFFFFFFFFFFFFFFFFFFFFFFFFFFF AND MUL OR SWAP1 SSTORE POP SWAP1 POP POP DUP2 PUSH1 0xF PUSH1 0x0 CALLER PUSH20 0xFFFFFFFFFFFFFFFFFFFFFFFFFFFFFFFFFFFFFFFF AND PUSH20 0xFFFFFFFFFFFFFFFFFFFFFFFFFFFFFFFFFFFFFFFF AND DUP2 MSTORE PUSH1 0x20 ADD SWAP1 DUP2 MSTORE PUSH1 0x20 ADD PUSH1 0x0 KECCAK256 DUP2 SWAP1 SSTORE POP PUSH1 0x0 PUSH1 0xE PUSH1 0x0 CALLER PUSH20 0xFFFFFFFFFFFFFFFFFFFFFFFFFFFFFFFFFFFFFFFF AND PUSH20 0xFFFFFFFFFFFFFFFFFFFFFFFFFFFFFFFFFFFFFFFF AND DUP2 MSTORE PUSH1 0x20 ADD SWAP1 DUP2 MSTORE PUSH1 0x20 ADD PUSH1 0x0 KECCAK256 PUSH1 0x0 ADD SLOAD SWAP1 POP PUSH1 0xD PUSH1 0x0 DUP3 DUP2 MSTORE PUSH1 0x20 ADD SWAP1 DUP2 MSTORE PUSH1 0x20 ADD PUSH1 0x0 KECCAK256 PUSH1 0x5 ADD PUSH1 0x0 DUP2 SLOAD DUP1 SWAP3 SWAP2 SWAP1 PUSH2 0x15D0 SWAP1 PUSH2 0x382C JUMP JUMPDEST SWAP2 SWAP1 POP SSTORE POP PUSH1 0x0 PUSH2 0x15DF PUSH2 0xD91 JUMP JUMPDEST SWAP1 POP PUSH1 0x0 DUP2 EQ ISZERO PUSH2 0x164D JUMPI PUSH1 0x40 MLOAD DUP1 PUSH1 0x80 ADD PUSH1 0x40 MSTORE DUP1 PUSH1 0x50 DUP2 MSTORE PUSH1 0x20 ADD PUSH2 0x476F PUSH1 0x50 SWAP2 CODECOPY PUSH1 0xB SWAP1 DUP1 MLOAD SWAP1 PUSH1 0x20 ADD SWAP1 PUSH2 0x1618 SWAP3 SWAP2 SWAP1 PUSH2 0x27DE JUMP JUMPDEST POP PUSH1 0x40 MLOAD DUP1 PUSH1 0x80 ADD PUSH1 0x40 MSTORE DUP1 PUSH1 0x50 DUP2 MSTORE PUSH1 0x20 ADD PUSH2 0x468F PUSH1 0x50 SWAP2 CODECOPY PUSH1 0xC SWAP1 DUP1 MLOAD SWAP1 PUSH1 0x20 ADD SWAP1 PUSH2 0x1647 SWAP3 SWAP2 SWAP1 PUSH2 0x27DE JUMP JUMPDEST POP PUSH2 0x1719 JUMP JUMPDEST PUSH1 0x1 DUP2 EQ ISZERO PUSH2 0x16B9 JUMPI PUSH1 0x40 MLOAD DUP1 PUSH1 0x80 ADD PUSH1 0x40 MSTORE DUP1 PUSH1 0x50 DUP2 MSTORE PUSH1 0x20 ADD PUSH2 0x480F PUSH1 0x50 SWAP2 CODECOPY PUSH1 0xB SWAP1 DUP1 MLOAD SWAP1 PUSH1 0x20 ADD SWAP1 PUSH2 0x1684 SWAP3 SWAP2 SWAP1 PUSH2 0x27DE JUMP JUMPDEST POP PUSH1 0x40 MLOAD DUP1 PUSH1 0x80 ADD PUSH1 0x40 MSTORE DUP1 PUSH1 0x50 DUP2 MSTORE PUSH1 0x20 ADD PUSH2 0x47BF PUSH1 0x50 SWAP2 CODECOPY PUSH1 0xC SWAP1 DUP1 MLOAD SWAP1 PUSH1 0x20 ADD SWAP1 PUSH2 0x16B3 SWAP3 SWAP2 SWAP1 PUSH2 0x27DE JUMP JUMPDEST POP PUSH2 0x1718 JUMP JUMPDEST PUSH1 0x40 MLOAD DUP1 PUSH1 0x80 ADD PUSH1 0x40 MSTORE DUP1 PUSH1 0x50 DUP2 MSTORE PUSH1 0x20 ADD PUSH2 0x46DF PUSH1 0x50 SWAP2 CODECOPY PUSH1 0xB SWAP1 DUP1 MLOAD SWAP1 PUSH1 0x20 ADD SWAP1 PUSH2 0x16E7 SWAP3 SWAP2 SWAP1 PUSH2 0x27DE JUMP JUMPDEST POP PUSH1 0x40 MLOAD DUP1 PUSH1 0x80 ADD PUSH1 0x40 MSTORE DUP1 PUSH1 0x50 DUP2 MSTORE PUSH1 0x20 ADD PUSH2 0x463F PUSH1 0x50 SWAP2 CODECOPY PUSH1 0xC SWAP1 DUP1 MLOAD SWAP1 PUSH1 0x20 ADD SWAP1 PUSH2 0x1716 SWAP3 SWAP2 SWAP1 PUSH2 0x27DE JUMP JUMPDEST POP JUMPDEST JUMPDEST POP POP POP POP POP JUMP JUMPDEST PUSH1 0x40 MLOAD PUSH32 0x8C379A000000000000000000000000000000000000000000000000000000000 DUP2 MSTORE PUSH1 0x4 ADD PUSH2 0x1752 SWAP1 PUSH2 0x3283 JUMP JUMPDEST PUSH1 0x40 MLOAD DUP1 SWAP2 SUB SWAP1 REVERT JUMPDEST PUSH1 0x60 PUSH1 0x0 PUSH1 0xD PUSH1 0x0 DUP5 DUP2 MSTORE PUSH1 0x20 ADD SWAP1 DUP2 MSTORE PUSH1 0x20 ADD PUSH1 0x0 KECCAK256 PUSH1 0x40 MLOAD DUP1 PUSH2 0x100 ADD PUSH1 0x40 MSTORE SWAP1 DUP2 PUSH1 0x0 DUP3 ADD PUSH1 0x0 SWAP1 SLOAD SWAP1 PUSH2 0x100 EXP SWAP1 DIV PUSH20 0xFFFFFFFFFFFFFFFFFFFFFFFFFFFFFFFFFFFFFFFF AND PUSH20 0xFFFFFFFFFFFFFFFFFFFFFFFFFFFFFFFFFFFFFFFF AND PUSH20 0xFFFFFFFFFFFFFFFFFFFFFFFFFFFFFFFFFFFFFFFF AND DUP2 MSTORE PUSH1 0x20 ADD PUSH1 0x1 DUP3 ADD DUP1 SLOAD PUSH2 0x17E4 SWAP1 PUSH2 0x3029 JUMP JUMPDEST DUP1 PUSH1 0x1F ADD PUSH1 0x20 DUP1 SWAP2 DIV MUL PUSH1 0x20 ADD PUSH1 0x40 MLOAD SWAP1 DUP2 ADD PUSH1 0x40 MSTORE DUP1 SWAP3 SWAP2 SWAP1 DUP2 DUP2 MSTORE PUSH1 0x20 ADD DUP3 DUP1 SLOAD PUSH2 0x1810 SWAP1 PUSH2 0x3029 JUMP JUMPDEST DUP1 ISZERO PUSH2 0x185D JUMPI DUP1 PUSH1 0x1F LT PUSH2 0x1832 JUMPI PUSH2 0x100 DUP1 DUP4 SLOAD DIV MUL DUP4 MSTORE SWAP2 PUSH1 0x20 ADD SWAP2 PUSH2 0x185D JUMP JUMPDEST DUP3 ADD SWAP2 SWAP1 PUSH1 0x0 MSTORE PUSH1 0x20 PUSH1 0x0 KECCAK256 SWAP1 JUMPDEST DUP2 SLOAD DUP2 MSTORE SWAP1 PUSH1 0x1 ADD SWAP1 PUSH1 0x20 ADD DUP1 DUP4 GT PUSH2 0x1840 JUMPI DUP3 SWAP1 SUB PUSH1 0x1F AND DUP3 ADD SWAP2 JUMPDEST POP POP POP POP POP DUP2 MSTORE PUSH1 0x20 ADD PUSH1 0x2 DUP3 ADD SLOAD DUP2 MSTORE PUSH1 0x20 ADD PUSH1 0x3 DUP3 ADD SLOAD DUP2 MSTORE PUSH1 0x20 ADD PUSH1 0x4 DUP3 ADD SLOAD DUP2 MSTORE PUSH1 0x20 ADD PUSH1 0x5 DUP3 ADD SLOAD DUP2 MSTORE PUSH1 0x20 ADD PUSH1 0x6 DUP3 ADD DUP1 SLOAD PUSH2 0x189E SWAP1 PUSH2 0x3029 JUMP JUMPDEST DUP1 PUSH1 0x1F ADD PUSH1 0x20 DUP1 SWAP2 DIV MUL PUSH1 0x20 ADD PUSH1 0x40 MLOAD SWAP1 DUP2 ADD PUSH1 0x40 MSTORE DUP1 SWAP3 SWAP2 SWAP1 DUP2 DUP2 MSTORE PUSH1 0x20 ADD DUP3 DUP1 SLOAD PUSH2 0x18CA SWAP1 PUSH2 0x3029 JUMP JUMPDEST DUP1 ISZERO PUSH2 0x1917 JUMPI DUP1 PUSH1 0x1F LT PUSH2 0x18EC JUMPI PUSH2 0x100 DUP1 DUP4 SLOAD DIV MUL DUP4 MSTORE SWAP2 PUSH1 0x20 ADD SWAP2 PUSH2 0x1917 JUMP JUMPDEST DUP3 ADD SWAP2 SWAP1 PUSH1 0x0 MSTORE PUSH1 0x20 PUSH1 0x0 KECCAK256 SWAP1 JUMPDEST DUP2 SLOAD DUP2 MSTORE SWAP1 PUSH1 0x1 ADD SWAP1 PUSH1 0x20 ADD DUP1 DUP4 GT PUSH2 0x18FA JUMPI DUP3 SWAP1 SUB PUSH1 0x1F AND DUP3 ADD SWAP2 JUMPDEST POP POP POP POP POP DUP2 MSTORE PUSH1 0x20 ADD PUSH1 0x7 DUP3 ADD PUSH1 0x0 SWAP1 SLOAD SWAP1 PUSH2 0x100 EXP SWAP1 DIV PUSH20 0xFFFFFFFFFFFFFFFFFFFFFFFFFFFFFFFFFFFFFFFF AND PUSH20 0xFFFFFFFFFFFFFFFFFFFFFFFFFFFFFFFFFFFFFFFF AND PUSH20 0xFFFFFFFFFFFFFFFFFFFFFFFFFFFFFFFFFFFFFFFF AND DUP2 MSTORE POP POP SWAP1 POP PUSH1 0x0 PUSH2 0x1983 DUP5 PUSH2 0x211C JUMP JUMPDEST PUSH1 0xD PUSH1 0x0 DUP7 DUP2 MSTORE PUSH1 0x20 ADD SWAP1 DUP2 MSTORE PUSH1 0x20 ADD PUSH1 0x0 KECCAK256 PUSH1 0x1 ADD PUSH1 0xD PUSH1 0x0 DUP8 DUP2 MSTORE PUSH1 0x20 ADD SWAP1 DUP2 MSTORE PUSH1 0x20 ADD PUSH1 0x0 KECCAK256 PUSH1 0x1 ADD PUSH1 0xD PUSH1 0x0 DUP9 DUP2 MSTORE PUSH1 0x20 ADD SWAP1 DUP2 MSTORE PUSH1 0x20 ADD PUSH1 0x0 KECCAK256 PUSH1 0x1 ADD PUSH1 0xB PUSH1 0xC DUP8 PUSH1 0x20 ADD MLOAD PUSH2 0x19E7 PUSH1 0xA DUP11 PUSH1 0x40 ADD MLOAD PUSH2 0x19E2 SWAP2 SWAP1 PUSH2 0x3875 JUMP JUMPDEST PUSH2 0x211C JUMP JUMPDEST PUSH2 0x1A00 PUSH1 0xA DUP12 PUSH1 0x60 ADD MLOAD PUSH2 0x19FB SWAP2 SWAP1 PUSH2 0x3875 JUMP JUMPDEST PUSH2 0x211C JUMP JUMPDEST PUSH2 0x1A0D DUP12 PUSH1 0x80 ADD MLOAD PUSH2 0x211C JUMP JUMPDEST DUP12 PUSH1 0xC0 ADD MLOAD PUSH2 0x1A1F DUP14 PUSH1 0xA0 ADD MLOAD PUSH2 0x211C JUMP JUMPDEST PUSH1 0x40 MLOAD PUSH1 0x20 ADD PUSH2 0x1A3A SWAP13 SWAP12 SWAP11 SWAP10 SWAP9 SWAP8 SWAP7 SWAP6 SWAP5 SWAP4 SWAP3 SWAP2 SWAP1 PUSH2 0x4001 JUMP JUMPDEST PUSH1 0x40 MLOAD PUSH1 0x20 DUP2 DUP4 SUB SUB DUP2 MSTORE SWAP1 PUSH1 0x40 MSTORE SWAP1 POP PUSH1 0x0 PUSH2 0x1A56 DUP3 PUSH2 0x227D JUMP JUMPDEST PUSH1 0x40 MLOAD PUSH1 0x20 ADD PUSH2 0x1A66 SWAP2 SWAP1 PUSH2 0x4182 JUMP JUMPDEST PUSH1 0x40 MLOAD PUSH1 0x20 DUP2 DUP4 SUB SUB DUP2 MSTORE SWAP1 PUSH1 0x40 MSTORE SWAP1 POP DUP1 SWAP4 POP POP POP POP SWAP2 SWAP1 POP JUMP JUMPDEST PUSH1 0x9 DUP1 SLOAD PUSH2 0x1A8F SWAP1 PUSH2 0x3029 JUMP JUMPDEST DUP1 PUSH1 0x1F ADD PUSH1 0x20 DUP1 SWAP2 DIV MUL PUSH1 0x20 ADD PUSH1 0x40 MLOAD SWAP1 DUP2 ADD PUSH1 0x40 MSTORE DUP1 SWAP3 SWAP2 SWAP1 DUP2 DUP2 MSTORE PUSH1 0x20 ADD DUP3 DUP1 SLOAD PUSH2 0x1ABB SWAP1 PUSH2 0x3029 JUMP JUMPDEST DUP1 ISZERO PUSH2 0x1B08 JUMPI DUP1 PUSH1 0x1F LT PUSH2 0x1ADD JUMPI PUSH2 0x100 DUP1 DUP4 SLOAD DIV MUL DUP4 MSTORE SWAP2 PUSH1 0x20 ADD SWAP2 PUSH2 0x1B08 JUMP JUMPDEST DUP3 ADD SWAP2 SWAP1 PUSH1 0x0 MSTORE PUSH1 0x20 PUSH1 0x0 KECCAK256 SWAP1 JUMPDEST DUP2 SLOAD DUP2 MSTORE SWAP1 PUSH1 0x1 ADD SWAP1 PUSH1 0x20 ADD DUP1 DUP4 GT PUSH2 0x1AEB JUMPI DUP3 SWAP1 SUB PUSH1 0x1F AND DUP3 ADD SWAP2 JUMPDEST POP POP POP POP POP DUP2 JUMP JUMPDEST PUSH1 0x0 PUSH1 0x5 PUSH1 0x0 DUP5 PUSH20 0xFFFFFFFFFFFFFFFFFFFFFFFFFFFFFFFFFFFFFFFF AND PUSH20 0xFFFFFFFFFFFFFFFFFFFFFFFFFFFFFFFFFFFFFFFF AND DUP2 MSTORE PUSH1 0x20 ADD SWAP1 DUP2 MSTORE PUSH1 0x20 ADD PUSH1 0x0 KECCAK256 PUSH1 0x0 DUP4 PUSH20 0xFFFFFFFFFFFFFFFFFFFFFFFFFFFFFFFFFFFFFFFF AND PUSH20 0xFFFFFFFFFFFFFFFFFFFFFFFFFFFFFFFFFFFFFFFF AND DUP2 MSTORE PUSH1 0x20 ADD SWAP1 DUP2 MSTORE PUSH1 0x20 ADD PUSH1 0x0 KECCAK256 PUSH1 0x0 SWAP1 SLOAD SWAP1 PUSH2 0x100 EXP SWAP1 DIV PUSH1 0xFF AND SWAP1 POP SWAP3 SWAP2 POP POP JUMP JUMPDEST PUSH2 0x1BAC PUSH2 0x1D72 JUMP JUMPDEST PUSH20 0xFFFFFFFFFFFFFFFFFFFFFFFFFFFFFFFFFFFFFFFF AND PUSH2 0x1BCA PUSH2 0x1129 JUMP JUMPDEST PUSH20 0xFFFFFFFFFFFFFFFFFFFFFFFFFFFFFFFFFFFFFFFF AND EQ PUSH2 0x1C20 JUMPI PUSH1 0x40 MLOAD PUSH32 0x8C379A000000000000000000000000000000000000000000000000000000000 DUP2 MSTORE PUSH1 0x4 ADD PUSH2 0x1C17 SWAP1 PUSH2 0x37A0 JUMP JUMPDEST PUSH1 0x40 MLOAD DUP1 SWAP2 SUB SWAP1 REVERT JUMPDEST PUSH1 0x0 PUSH20 0xFFFFFFFFFFFFFFFFFFFFFFFFFFFFFFFFFFFFFFFF AND DUP2 PUSH20 0xFFFFFFFFFFFFFFFFFFFFFFFFFFFFFFFFFFFFFFFF AND EQ ISZERO PUSH2 0x1C90 JUMPI PUSH1 0x40 MLOAD PUSH32 0x8C379A000000000000000000000000000000000000000000000000000000000 DUP2 MSTORE PUSH1 0x4 ADD PUSH2 0x1C87 SWAP1 PUSH2 0x4216 JUMP JUMPDEST PUSH1 0x40 MLOAD DUP1 SWAP2 SUB SWAP1 REVERT JUMPDEST PUSH2 0x1C99 DUP2 PUSH2 0x1E33 JUMP JUMPDEST POP JUMP JUMPDEST PUSH1 0x0 PUSH32 0x1FFC9A700000000000000000000000000000000000000000000000000000000 PUSH28 0xFFFFFFFFFFFFFFFFFFFFFFFFFFFFFFFFFFFFFFFFFFFFFFFFFFFFFFFF NOT AND DUP3 PUSH28 0xFFFFFFFFFFFFFFFFFFFFFFFFFFFFFFFFFFFFFFFFFFFFFFFFFFFFFFFF NOT AND EQ SWAP1 POP SWAP2 SWAP1 POP JUMP JUMPDEST PUSH1 0x0 DUP1 PUSH20 0xFFFFFFFFFFFFFFFFFFFFFFFFFFFFFFFFFFFFFFFF AND PUSH1 0x2 PUSH1 0x0 DUP5 DUP2 MSTORE PUSH1 0x20 ADD SWAP1 DUP2 MSTORE PUSH1 0x20 ADD PUSH1 0x0 KECCAK256 PUSH1 0x0 SWAP1 SLOAD SWAP1 PUSH2 0x100 EXP SWAP1 DIV PUSH20 0xFFFFFFFFFFFFFFFFFFFFFFFFFFFFFFFFFFFFFFFF AND PUSH20 0xFFFFFFFFFFFFFFFFFFFFFFFFFFFFFFFFFFFFFFFF AND EQ ISZERO SWAP1 POP SWAP2 SWAP1 POP JUMP JUMPDEST PUSH1 0x0 CALLER SWAP1 POP SWAP1 JUMP JUMPDEST DUP2 PUSH1 0x4 PUSH1 0x0 DUP4 DUP2 MSTORE PUSH1 0x20 ADD SWAP1 DUP2 MSTORE PUSH1 0x20 ADD PUSH1 0x0 KECCAK256 PUSH1 0x0 PUSH2 0x100 EXP DUP2 SLOAD DUP2 PUSH20 0xFFFFFFFFFFFFFFFFFFFFFFFFFFFFFFFFFFFFFFFF MUL NOT AND SWAP1 DUP4 PUSH20 0xFFFFFFFFFFFFFFFFFFFFFFFFFFFFFFFFFFFFFFFF AND MUL OR SWAP1 SSTORE POP DUP1 DUP3 PUSH20 0xFFFFFFFFFFFFFFFFFFFFFFFFFFFFFFFFFFFFFFFF AND PUSH2 0x1DED DUP4 PUSH2 0xF37 JUMP JUMPDEST PUSH20 0xFFFFFFFFFFFFFFFFFFFFFFFFFFFFFFFFFFFFFFFF AND PUSH32 0x8C5BE1E5EBEC7D5BD14F71427D1E84F3DD0314C0F7B2291E5B200AC8C7C3B925 PUSH1 0x40 MLOAD PUSH1 0x40 MLOAD DUP1 SWAP2 SUB SWAP1 LOG4 POP POP JUMP JUMPDEST PUSH1 0x0 PUSH1 0x7 PUSH1 0x0 SWAP1 SLOAD SWAP1 PUSH2 0x100 EXP SWAP1 DIV PUSH20 0xFFFFFFFFFFFFFFFFFFFFFFFFFFFFFFFFFFFFFFFF AND SWAP1 POP DUP2 PUSH1 0x7 PUSH1 0x0 PUSH2 0x100 EXP DUP2 SLOAD DUP2 PUSH20 0xFFFFFFFFFFFFFFFFFFFFFFFFFFFFFFFFFFFFFFFF MUL NOT AND SWAP1 DUP4 PUSH20 0xFFFFFFFFFFFFFFFFFFFFFFFFFFFFFFFFFFFFFFFF AND MUL OR SWAP1 SSTORE POP DUP2 PUSH20 0xFFFFFFFFFFFFFFFFFFFFFFFFFFFFFFFFFFFFFFFF AND DUP2 PUSH20 0xFFFFFFFFFFFFFFFFFFFFFFFFFFFFFFFFFFFFFFFF AND PUSH32 0x8BE0079C531659141344CD1FD0A4F28419497F9722A3DAAFE3B4186F6B6457E0 PUSH1 0x40 MLOAD PUSH1 0x40 MLOAD DUP1 SWAP2 SUB SWAP1 LOG3 POP POP JUMP JUMPDEST DUP2 PUSH20 0xFFFFFFFFFFFFFFFFFFFFFFFFFFFFFFFFFFFFFFFF AND DUP4 PUSH20 0xFFFFFFFFFFFFFFFFFFFFFFFFFFFFFFFFFFFFFFFF AND EQ ISZERO PUSH2 0x1F68 JUMPI PUSH1 0x40 MLOAD PUSH32 0x8C379A000000000000000000000000000000000000000000000000000000000 DUP2 MSTORE PUSH1 0x4 ADD PUSH2 0x1F5F SWAP1 PUSH2 0x4282 JUMP JUMPDEST PUSH1 0x40 MLOAD DUP1 SWAP2 SUB SWAP1 REVERT JUMPDEST DUP1 PUSH1 0x5 PUSH1 0x0 DUP6 PUSH20 0xFFFFFFFFFFFFFFFFFFFFFFFFFFFFFFFFFFFFFFFF AND PUSH20 0xFFFFFFFFFFFFFFFFFFFFFFFFFFFFFFFFFFFFFFFF AND DUP2 MSTORE PUSH1 0x20 ADD SWAP1 DUP2 MSTORE PUSH1 0x20 ADD PUSH1 0x0 KECCAK256 PUSH1 0x0 DUP5 PUSH20 0xFFFFFFFFFFFFFFFFFFFFFFFFFFFFFFFFFFFFFFFF AND PUSH20 0xFFFFFFFFFFFFFFFFFFFFFFFFFFFFFFFFFFFFFFFF AND DUP2 MSTORE PUSH1 0x20 ADD SWAP1 DUP2 MSTORE PUSH1 0x20 ADD PUSH1 0x0 KECCAK256 PUSH1 0x0 PUSH2 0x100 EXP DUP2 SLOAD DUP2 PUSH1 0xFF MUL NOT AND SWAP1 DUP4 ISZERO ISZERO MUL OR SWAP1 SSTORE POP DUP2 PUSH20 0xFFFFFFFFFFFFFFFFFFFFFFFFFFFFFFFFFFFFFFFF AND DUP4 PUSH20 0xFFFFFFFFFFFFFFFFFFFFFFFFFFFFFFFFFFFFFFFF AND PUSH32 0x17307EAB39AB6107E8899845AD3D59BD9653F200F220920489CA2B5937696C31 DUP4 PUSH1 0x40 MLOAD PUSH2 0x2059 SWAP2 SWAP1 PUSH2 0x2935 JUMP JUMPDEST PUSH1 0x40 MLOAD DUP1 SWAP2 SUB SWAP1 LOG3 POP POP POP JUMP JUMPDEST PUSH1 0x1 DUP2 PUSH1 0x0 ADD PUSH1 0x0 DUP3 DUP3 SLOAD ADD SWAP3 POP POP DUP2 SWAP1 SSTORE POP POP JUMP JUMPDEST PUSH1 0x0 DUP2 PUSH1 0x0 ADD SLOAD SWAP1 POP SWAP2 SWAP1 POP JUMP JUMPDEST PUSH2 0x20A4 DUP3 DUP3 PUSH1 0x40 MLOAD DUP1 PUSH1 0x20 ADD PUSH1 0x40 MSTORE DUP1 PUSH1 0x0 DUP2 MSTORE POP PUSH2 0x2415 JUMP JUMPDEST POP POP JUMP JUMPDEST PUSH2 0x20B1 DUP3 PUSH2 0x1D06 JUMP JUMPDEST PUSH2 0x20F0 JUMPI PUSH1 0x40 MLOAD PUSH32 0x8C379A000000000000000000000000000000000000000000000000000000000 DUP2 MSTORE PUSH1 0x4 ADD PUSH2 0x20E7 SWAP1 PUSH2 0x4314 JUMP JUMPDEST PUSH1 0x40 MLOAD DUP1 SWAP2 SUB SWAP1 REVERT JUMPDEST DUP1 PUSH1 0x6 PUSH1 0x0 DUP5 DUP2 MSTORE PUSH1 0x20 ADD SWAP1 DUP2 MSTORE PUSH1 0x20 ADD PUSH1 0x0 KECCAK256 SWAP1 DUP1 MLOAD SWAP1 PUSH1 0x20 ADD SWAP1 PUSH2 0x2117 SWAP3 SWAP2 SWAP1 PUSH2 0x27DE JUMP JUMPDEST POP POP POP JUMP JUMPDEST PUSH1 0x60 PUSH1 0x0 DUP3 EQ ISZERO PUSH2 0x2164 JUMPI PUSH1 0x40 MLOAD DUP1 PUSH1 0x40 ADD PUSH1 0x40 MSTORE DUP1 PUSH1 0x1 DUP2 MSTORE PUSH1 0x20 ADD PUSH32 0x3000000000000000000000000000000000000000000000000000000000000000 DUP2 MSTORE POP SWAP1 POP PUSH2 0x2278 JUMP JUMPDEST PUSH1 0x0 DUP3 SWAP1 POP PUSH1 0x0 JUMPDEST PUSH1 0x0 DUP3 EQ PUSH2 0x2196 JUMPI DUP1 DUP1 PUSH2 0x217F SWAP1 PUSH2 0x382C JUMP JUMPDEST SWAP2 POP POP PUSH1 0xA DUP3 PUSH2 0x218F SWAP2 SWAP1 PUSH2 0x3875 JUMP JUMPDEST SWAP2 POP PUSH2 0x216C JUMP JUMPDEST PUSH1 0x0 DUP2 PUSH8 0xFFFFFFFFFFFFFFFF DUP2 GT ISZERO PUSH2 0x21B2 JUMPI PUSH2 0x21B1 PUSH2 0x2D22 JUMP JUMPDEST JUMPDEST PUSH1 0x40 MLOAD SWAP1 DUP1 DUP3 MSTORE DUP1 PUSH1 0x1F ADD PUSH1 0x1F NOT AND PUSH1 0x20 ADD DUP3 ADD PUSH1 0x40 MSTORE DUP1 ISZERO PUSH2 0x21E4 JUMPI DUP2 PUSH1 0x20 ADD PUSH1 0x1 DUP3 MUL DUP1 CALLDATASIZE DUP4 CALLDATACOPY DUP1 DUP3 ADD SWAP2 POP POP SWAP1 POP JUMPDEST POP SWAP1 POP JUMPDEST PUSH1 0x0 DUP6 EQ PUSH2 0x2271 JUMPI PUSH1 0x1 DUP3 PUSH2 0x21FD SWAP2 SWAP1 PUSH2 0x4334 JUMP JUMPDEST SWAP2 POP PUSH1 0xA DUP6 PUSH2 0x220C SWAP2 SWAP1 PUSH2 0x35FF JUMP JUMPDEST PUSH1 0x30 PUSH2 0x2218 SWAP2 SWAP1 PUSH2 0x34D4 JUMP JUMPDEST PUSH1 0xF8 SHL DUP2 DUP4 DUP2 MLOAD DUP2 LT PUSH2 0x222E JUMPI PUSH2 0x222D PUSH2 0x4368 JUMP JUMPDEST JUMPDEST PUSH1 0x20 ADD ADD SWAP1 PUSH31 0xFFFFFFFFFFFFFFFFFFFFFFFFFFFFFFFFFFFFFFFFFFFFFFFFFFFFFFFFFFFFFF NOT AND SWAP1 DUP2 PUSH1 0x0 BYTE SWAP1 MSTORE8 POP PUSH1 0xA DUP6 PUSH2 0x226A SWAP2 SWAP1 PUSH2 0x3875 JUMP JUMPDEST SWAP5 POP PUSH2 0x21E8 JUMP JUMPDEST DUP1 SWAP4 POP POP POP POP JUMPDEST SWAP2 SWAP1 POP JUMP JUMPDEST PUSH1 0x60 PUSH1 0x0 DUP3 MLOAD SWAP1 POP PUSH1 0x0 DUP2 EQ ISZERO PUSH2 0x22A6 JUMPI PUSH1 0x40 MLOAD DUP1 PUSH1 0x20 ADD PUSH1 0x40 MSTORE DUP1 PUSH1 0x0 DUP2 MSTORE POP SWAP2 POP POP PUSH2 0x2410 JUMP JUMPDEST PUSH1 0x0 PUSH1 0x3 PUSH1 0x2 DUP4 PUSH2 0x22B7 SWAP2 SWAP1 PUSH2 0x34D4 JUMP JUMPDEST PUSH2 0x22C1 SWAP2 SWAP1 PUSH2 0x3875 JUMP JUMPDEST PUSH1 0x4 PUSH2 0x22CD SWAP2 SWAP1 PUSH2 0x4397 JUMP JUMPDEST SWAP1 POP PUSH1 0x0 PUSH1 0x20 DUP3 PUSH2 0x22DE SWAP2 SWAP1 PUSH2 0x34D4 JUMP JUMPDEST PUSH8 0xFFFFFFFFFFFFFFFF DUP2 GT ISZERO PUSH2 0x22F7 JUMPI PUSH2 0x22F6 PUSH2 0x2D22 JUMP JUMPDEST JUMPDEST PUSH1 0x40 MLOAD SWAP1 DUP1 DUP3 MSTORE DUP1 PUSH1 0x1F ADD PUSH1 0x1F NOT AND PUSH1 0x20 ADD DUP3 ADD PUSH1 0x40 MSTORE DUP1 ISZERO PUSH2 0x2329 JUMPI DUP2 PUSH1 0x20 ADD PUSH1 0x1 DUP3 MUL DUP1 CALLDATASIZE DUP4 CALLDATACOPY DUP1 DUP3 ADD SWAP2 POP POP SWAP1 POP JUMPDEST POP SWAP1 POP PUSH1 0x0 PUSH1 0x40 MLOAD DUP1 PUSH1 0x60 ADD PUSH1 0x40 MSTORE DUP1 PUSH1 0x40 DUP2 MSTORE PUSH1 0x20 ADD PUSH2 0x472F PUSH1 0x40 SWAP2 CODECOPY SWAP1 POP PUSH1 0x1 DUP2 ADD PUSH1 0x20 DUP4 ADD PUSH1 0x0 JUMPDEST DUP7 DUP2 LT ISZERO PUSH2 0x23CD JUMPI PUSH1 0x3 DUP2 ADD SWAP1 POP PUSH3 0xFFFFFF DUP2 DUP11 ADD MLOAD AND PUSH1 0x3F DUP2 PUSH1 0x12 SHR AND DUP5 ADD MLOAD DUP1 PUSH1 0x8 SHL SWAP1 POP PUSH1 0xFF PUSH1 0x3F DUP4 PUSH1 0xC SHR AND DUP7 ADD MLOAD AND DUP2 ADD SWAP1 POP DUP1 PUSH1 0x8 SHL SWAP1 POP PUSH1 0xFF PUSH1 0x3F DUP4 PUSH1 0x6 SHR AND DUP7 ADD MLOAD AND DUP2 ADD SWAP1 POP DUP1 PUSH1 0x8 SHL SWAP1 POP PUSH1 0xFF PUSH1 0x3F DUP4 AND DUP7 ADD MLOAD AND DUP2 ADD SWAP1 POP DUP1 PUSH1 0xE0 SHL SWAP1 POP DUP1 DUP5 MSTORE PUSH1 0x4 DUP5 ADD SWAP4 POP POP POP PUSH2 0x2354 JUMP JUMPDEST POP PUSH1 0x3 DUP7 MOD PUSH1 0x1 DUP2 EQ PUSH2 0x23E7 JUMPI PUSH1 0x2 DUP2 EQ PUSH2 0x23F7 JUMPI PUSH2 0x2402 JUMP JUMPDEST PUSH2 0x3D3D PUSH1 0xF0 SHL PUSH1 0x2 DUP4 SUB MSTORE PUSH2 0x2402 JUMP JUMPDEST PUSH1 0x3D PUSH1 0xF8 SHL PUSH1 0x1 DUP4 SUB MSTORE JUMPDEST POP DUP5 DUP5 MSTORE POP POP DUP2 SWAP5 POP POP POP POP POP JUMPDEST SWAP2 SWAP1 POP JUMP JUMPDEST PUSH2 0x241F DUP4 DUP4 PUSH2 0x2470 JUMP JUMPDEST PUSH2 0x242C PUSH1 0x0 DUP5 DUP5 DUP5 PUSH2 0x263E JUMP JUMPDEST PUSH2 0x246B JUMPI PUSH1 0x40 MLOAD PUSH32 0x8C379A000000000000000000000000000000000000000000000000000000000 DUP2 MSTORE PUSH1 0x4 ADD PUSH2 0x2462 SWAP1 PUSH2 0x4463 JUMP JUMPDEST PUSH1 0x40 MLOAD DUP1 SWAP2 SUB SWAP1 REVERT JUMPDEST POP POP POP JUMP JUMPDEST PUSH1 0x0 PUSH20 0xFFFFFFFFFFFFFFFFFFFFFFFFFFFFFFFFFFFFFFFF AND DUP3 PUSH20 0xFFFFFFFFFFFFFFFFFFFFFFFFFFFFFFFFFFFFFFFF AND EQ ISZERO PUSH2 0x24E0 JUMPI PUSH1 0x40 MLOAD PUSH32 0x8C379A000000000000000000000000000000000000000000000000000000000 DUP2 MSTORE PUSH1 0x4 ADD PUSH2 0x24D7 SWAP1 PUSH2 0x44CF JUMP JUMPDEST PUSH1 0x40 MLOAD DUP1 SWAP2 SUB SWAP1 REVERT JUMPDEST PUSH2 0x24E9 DUP2 PUSH2 0x1D06 JUMP JUMPDEST ISZERO PUSH2 0x2529 JUMPI PUSH1 0x40 MLOAD PUSH32 0x8C379A000000000000000000000000000000000000000000000000000000000 DUP2 MSTORE PUSH1 0x4 ADD PUSH2 0x2520 SWAP1 PUSH2 0x453B JUMP JUMPDEST PUSH1 0x40 MLOAD DUP1 SWAP2 SUB SWAP1 REVERT JUMPDEST PUSH2 0x2535 PUSH1 0x0 DUP4 DUP4 PUSH2 0x27C6 JUMP JUMPDEST PUSH1 0x1 PUSH1 0x3 PUSH1 0x0 DUP5 PUSH20 0xFFFFFFFFFFFFFFFFFFFFFFFFFFFFFFFFFFFFFFFF AND PUSH20 0xFFFFFFFFFFFFFFFFFFFFFFFFFFFFFFFFFFFFFFFF AND DUP2 MSTORE PUSH1 0x20 ADD SWAP1 DUP2 MSTORE PUSH1 0x20 ADD PUSH1 0x0 KECCAK256 PUSH1 0x0 DUP3 DUP3 SLOAD PUSH2 0x2585 SWAP2 SWAP1 PUSH2 0x34D4 JUMP JUMPDEST SWAP3 POP POP DUP2 SWAP1 SSTORE POP DUP2 PUSH1 0x2 PUSH1 0x0 DUP4 DUP2 MSTORE PUSH1 0x20 ADD SWAP1 DUP2 MSTORE PUSH1 0x20 ADD PUSH1 0x0 KECCAK256 PUSH1 0x0 PUSH2 0x100 EXP DUP2 SLOAD DUP2 PUSH20 0xFFFFFFFFFFFFFFFFFFFFFFFFFFFFFFFFFFFFFFFF MUL NOT AND SWAP1 DUP4 PUSH20 0xFFFFFFFFFFFFFFFFFFFFFFFFFFFFFFFFFFFFFFFF AND MUL OR SWAP1 SSTORE POP DUP1 DUP3 PUSH20 0xFFFFFFFFFFFFFFFFFFFFFFFFFFFFFFFFFFFFFFFF AND PUSH1 0x0 PUSH20 0xFFFFFFFFFFFFFFFFFFFFFFFFFFFFFFFFFFFFFFFF AND PUSH32 0xDDF252AD1BE2C89B69C2B068FC378DAA952BA7F163C4A11628F55A4DF523B3EF PUSH1 0x40 MLOAD PUSH1 0x40 MLOAD DUP1 SWAP2 SUB SWAP1 LOG4 POP POP JUMP JUMPDEST PUSH1 0x0 PUSH2 0x265F DUP5 PUSH20 0xFFFFFFFFFFFFFFFFFFFFFFFFFFFFFFFFFFFFFFFF AND PUSH2 0x27CB JUMP JUMPDEST ISZERO PUSH2 0x27B9 JUMPI DUP4 PUSH20 0xFFFFFFFFFFFFFFFFFFFFFFFFFFFFFFFFFFFFFFFF AND PUSH4 0x150B7A02 PUSH2 0x2688 PUSH2 0x1D72 JUMP JUMPDEST DUP8 DUP7 DUP7 PUSH1 0x40 MLOAD DUP6 PUSH4 0xFFFFFFFF AND PUSH1 0xE0 SHL DUP2 MSTORE PUSH1 0x4 ADD PUSH2 0x26AA SWAP5 SWAP4 SWAP3 SWAP2 SWAP1 PUSH2 0x45B0 JUMP JUMPDEST PUSH1 0x20 PUSH1 0x40 MLOAD DUP1 DUP4 SUB DUP2 PUSH1 0x0 DUP8 GAS CALL SWAP3 POP POP POP DUP1 ISZERO PUSH2 0x26E6 JUMPI POP PUSH1 0x40 MLOAD RETURNDATASIZE PUSH1 0x1F NOT PUSH1 0x1F DUP3 ADD AND DUP3 ADD DUP1 PUSH1 0x40 MSTORE POP DUP2 ADD SWAP1 PUSH2 0x26E3 SWAP2 SWAP1 PUSH2 0x4611 JUMP JUMPDEST PUSH1 0x1 JUMPDEST PUSH2 0x2769 JUMPI RETURNDATASIZE DUP1 PUSH1 0x0 DUP2 EQ PUSH2 0x2716 JUMPI PUSH1 0x40 MLOAD SWAP2 POP PUSH1 0x1F NOT PUSH1 0x3F RETURNDATASIZE ADD AND DUP3 ADD PUSH1 0x40 MSTORE RETURNDATASIZE DUP3 MSTORE RETURNDATASIZE PUSH1 0x0 PUSH1 0x20 DUP5 ADD RETURNDATACOPY PUSH2 0x271B JUMP JUMPDEST PUSH1 0x60 SWAP2 POP JUMPDEST POP PUSH1 0x0 DUP2 MLOAD EQ ISZERO PUSH2 0x2761 JUMPI PUSH1 0x40 MLOAD PUSH32 0x8C379A000000000000000000000000000000000000000000000000000000000 DUP2 MSTORE PUSH1 0x4 ADD PUSH2 0x2758 SWAP1 PUSH2 0x4463 JUMP JUMPDEST PUSH1 0x40 MLOAD DUP1 SWAP2 SUB SWAP1 REVERT JUMPDEST DUP1 MLOAD DUP2 PUSH1 0x20 ADD REVERT JUMPDEST PUSH4 0x150B7A02 PUSH1 0xE0 SHL PUSH28 0xFFFFFFFFFFFFFFFFFFFFFFFFFFFFFFFFFFFFFFFFFFFFFFFFFFFFFFFF NOT AND DUP2 PUSH28 0xFFFFFFFFFFFFFFFFFFFFFFFFFFFFFFFFFFFFFFFFFFFFFFFFFFFFFFFF NOT AND EQ SWAP2 POP POP PUSH2 0x27BE JUMP JUMPDEST PUSH1 0x1 SWAP1 POP JUMPDEST SWAP5 SWAP4 POP POP POP POP JUMP JUMPDEST POP POP POP JUMP JUMPDEST PUSH1 0x0 DUP1 DUP3 EXTCODESIZE SWAP1 POP PUSH1 0x0 DUP2 GT SWAP2 POP POP SWAP2 SWAP1 POP JUMP JUMPDEST DUP3 DUP1 SLOAD PUSH2 0x27EA SWAP1 PUSH2 0x3029 JUMP JUMPDEST SWAP1 PUSH1 0x0 MSTORE PUSH1 0x20 PUSH1 0x0 KECCAK256 SWAP1 PUSH1 0x1F ADD PUSH1 0x20 SWAP1 DIV DUP2 ADD SWAP3 DUP3 PUSH2 0x280C JUMPI PUSH1 0x0 DUP6 SSTORE PUSH2 0x2853 JUMP JUMPDEST DUP3 PUSH1 0x1F LT PUSH2 0x2825 JUMPI DUP1 MLOAD PUSH1 0xFF NOT AND DUP4 DUP1 ADD OR DUP6 SSTORE PUSH2 0x2853 JUMP JUMPDEST DUP3 DUP1 ADD PUSH1 0x1 ADD DUP6 SSTORE DUP3 ISZERO PUSH2 0x2853 JUMPI SWAP2 DUP3 ADD JUMPDEST DUP3 DUP2 GT ISZERO PUSH2 0x2852 JUMPI DUP3 MLOAD DUP3 SSTORE SWAP2 PUSH1 0x20 ADD SWAP2 SWAP1 PUSH1 0x1 ADD SWAP1 PUSH2 0x2837 JUMP JUMPDEST JUMPDEST POP SWAP1 POP PUSH2 0x2860 SWAP2 SWAP1 PUSH2 0x2864 JUMP JUMPDEST POP SWAP1 JUMP JUMPDEST JUMPDEST DUP1 DUP3 GT ISZERO PUSH2 0x287D JUMPI PUSH1 0x0 DUP2 PUSH1 0x0 SWAP1 SSTORE POP PUSH1 0x1 ADD PUSH2 0x2865 JUMP JUMPDEST POP SWAP1 JUMP JUMPDEST PUSH1 0x0 PUSH1 0x40 MLOAD SWAP1 POP SWAP1 JUMP JUMPDEST PUSH1 0x0 DUP1 REVERT JUMPDEST PUSH1 0x0 DUP1 REVERT JUMPDEST PUSH1 0x0 PUSH32 0xFFFFFFFF00000000000000000000000000000000000000000000000000000000 DUP3 AND SWAP1 POP SWAP2 SWAP1 POP JUMP JUMPDEST PUSH2 0x28CA DUP2 PUSH2 0x2895 JUMP JUMPDEST DUP2 EQ PUSH2 0x28D5 JUMPI PUSH1 0x0 DUP1 REVERT JUMPDEST POP JUMP JUMPDEST PUSH1 0x0 DUP2 CALLDATALOAD SWAP1 POP PUSH2 0x28E7 DUP2 PUSH2 0x28C1 JUMP JUMPDEST SWAP3 SWAP2 POP POP JUMP JUMPDEST PUSH1 0x0 PUSH1 0x20 DUP3 DUP5 SUB SLT ISZERO PUSH2 0x2903 JUMPI PUSH2 0x2902 PUSH2 0x288B JUMP JUMPDEST JUMPDEST PUSH1 0x0 PUSH2 0x2911 DUP5 DUP3 DUP6 ADD PUSH2 0x28D8 JUMP JUMPDEST SWAP2 POP POP SWAP3 SWAP2 POP POP JUMP JUMPDEST PUSH1 0x0 DUP2 ISZERO ISZERO SWAP1 POP SWAP2 SWAP1 POP JUMP JUMPDEST PUSH2 0x292F DUP2 PUSH2 0x291A JUMP JUMPDEST DUP3 MSTORE POP POP JUMP JUMPDEST PUSH1 0x0 PUSH1 0x20 DUP3 ADD SWAP1 POP PUSH2 0x294A PUSH1 0x0 DUP4 ADD DUP5 PUSH2 0x2926 JUMP JUMPDEST SWAP3 SWAP2 POP POP JUMP JUMPDEST PUSH1 0x0 PUSH20 0xFFFFFFFFFFFFFFFFFFFFFFFFFFFFFFFFFFFFFFFF DUP3 AND SWAP1 POP SWAP2 SWAP1 POP JUMP JUMPDEST PUSH1 0x0 PUSH2 0x297B DUP3 PUSH2 0x2950 JUMP JUMPDEST SWAP1 POP SWAP2 SWAP1 POP JUMP JUMPDEST PUSH2 0x298B DUP2 PUSH2 0x2970 JUMP JUMPDEST DUP2 EQ PUSH2 0x2996 JUMPI PUSH1 0x0 DUP1 REVERT JUMPDEST POP JUMP JUMPDEST PUSH1 0x0 DUP2 CALLDATALOAD SWAP1 POP PUSH2 0x29A8 DUP2 PUSH2 0x2982 JUMP JUMPDEST SWAP3 SWAP2 POP POP JUMP JUMPDEST PUSH1 0x0 PUSH1 0x20 DUP3 DUP5 SUB SLT ISZERO PUSH2 0x29C4 JUMPI PUSH2 0x29C3 PUSH2 0x288B JUMP JUMPDEST JUMPDEST PUSH1 0x0 PUSH2 0x29D2 DUP5 DUP3 DUP6 ADD PUSH2 0x2999 JUMP JUMPDEST SWAP2 POP POP SWAP3 SWAP2 POP POP JUMP JUMPDEST PUSH1 0x0 DUP2 SWAP1 POP SWAP2 SWAP1 POP JUMP JUMPDEST PUSH2 0x29EE DUP2 PUSH2 0x29DB JUMP JUMPDEST DUP3 MSTORE POP POP JUMP JUMPDEST PUSH1 0x0 PUSH1 0x20 DUP3 ADD SWAP1 POP PUSH2 0x2A09 PUSH1 0x0 DUP4 ADD DUP5 PUSH2 0x29E5 JUMP JUMPDEST SWAP3 SWAP2 POP POP JUMP JUMPDEST PUSH1 0x0 DUP2 MLOAD SWAP1 POP SWAP2 SWAP1 POP JUMP JUMPDEST PUSH1 0x0 DUP3 DUP3 MSTORE PUSH1 0x20 DUP3 ADD SWAP1 POP SWAP3 SWAP2 POP POP JUMP JUMPDEST PUSH1 0x0 JUMPDEST DUP4 DUP2 LT ISZERO PUSH2 0x2A49 JUMPI DUP1 DUP3 ADD MLOAD DUP2 DUP5 ADD MSTORE PUSH1 0x20 DUP2 ADD SWAP1 POP PUSH2 0x2A2E JUMP JUMPDEST DUP4 DUP2 GT ISZERO PUSH2 0x2A58 JUMPI PUSH1 0x0 DUP5 DUP5 ADD MSTORE JUMPDEST POP POP POP POP JUMP JUMPDEST PUSH1 0x0 PUSH1 0x1F NOT PUSH1 0x1F DUP4 ADD AND SWAP1 POP SWAP2 SWAP1 POP JUMP JUMPDEST PUSH1 0x0 PUSH2 0x2A7A DUP3 PUSH2 0x2A0F JUMP JUMPDEST PUSH2 0x2A84 DUP2 DUP6 PUSH2 0x2A1A JUMP JUMPDEST SWAP4 POP PUSH2 0x2A94 DUP2 DUP6 PUSH1 0x20 DUP7 ADD PUSH2 0x2A2B JUMP JUMPDEST PUSH2 0x2A9D DUP2 PUSH2 0x2A5E JUMP JUMPDEST DUP5 ADD SWAP2 POP POP SWAP3 SWAP2 POP POP JUMP JUMPDEST PUSH1 0x0 PUSH1 0x20 DUP3 ADD SWAP1 POP DUP2 DUP2 SUB PUSH1 0x0 DUP4 ADD MSTORE PUSH2 0x2AC2 DUP2 DUP5 PUSH2 0x2A6F JUMP JUMPDEST SWAP1 POP SWAP3 SWAP2 POP POP JUMP JUMPDEST PUSH2 0x2AD3 DUP2 PUSH2 0x29DB JUMP JUMPDEST DUP2 EQ PUSH2 0x2ADE JUMPI PUSH1 0x0 DUP1 REVERT JUMPDEST POP JUMP JUMPDEST PUSH1 0x0 DUP2 CALLDATALOAD SWAP1 POP PUSH2 0x2AF0 DUP2 PUSH2 0x2ACA JUMP JUMPDEST SWAP3 SWAP2 POP POP JUMP JUMPDEST PUSH1 0x0 PUSH1 0x20 DUP3 DUP5 SUB SLT ISZERO PUSH2 0x2B0C JUMPI PUSH2 0x2B0B PUSH2 0x288B JUMP JUMPDEST JUMPDEST PUSH1 0x0 PUSH2 0x2B1A DUP5 DUP3 DUP6 ADD PUSH2 0x2AE1 JUMP JUMPDEST SWAP2 POP POP SWAP3 SWAP2 POP POP JUMP JUMPDEST PUSH2 0x2B2C DUP2 PUSH2 0x2970 JUMP JUMPDEST DUP3 MSTORE POP POP JUMP JUMPDEST PUSH1 0x0 PUSH1 0x20 DUP3 ADD SWAP1 POP PUSH2 0x2B47 PUSH1 0x0 DUP4 ADD DUP5 PUSH2 0x2B23 JUMP JUMPDEST SWAP3 SWAP2 POP POP JUMP JUMPDEST PUSH1 0x0 DUP1 PUSH1 0x40 DUP4 DUP6 SUB SLT ISZERO PUSH2 0x2B64 JUMPI PUSH2 0x2B63 PUSH2 0x288B JUMP JUMPDEST JUMPDEST PUSH1 0x0 PUSH2 0x2B72 DUP6 DUP3 DUP7 ADD PUSH2 0x2999 JUMP JUMPDEST SWAP3 POP POP PUSH1 0x20 PUSH2 0x2B83 DUP6 DUP3 DUP7 ADD PUSH2 0x2AE1 JUMP JUMPDEST SWAP2 POP POP SWAP3 POP SWAP3 SWAP1 POP JUMP JUMPDEST PUSH1 0x0 DUP1 PUSH1 0x0 PUSH1 0x60 DUP5 DUP7 SUB SLT ISZERO PUSH2 0x2BA6 JUMPI PUSH2 0x2BA5 PUSH2 0x288B JUMP JUMPDEST JUMPDEST PUSH1 0x0 PUSH2 0x2BB4 DUP7 DUP3 DUP8 ADD PUSH2 0x2999 JUMP JUMPDEST SWAP4 POP POP PUSH1 0x20 PUSH2 0x2BC5 DUP7 DUP3 DUP8 ADD PUSH2 0x2999 JUMP JUMPDEST SWAP3 POP POP PUSH1 0x40 PUSH2 0x2BD6 DUP7 DUP3 DUP8 ADD PUSH2 0x2AE1 JUMP JUMPDEST SWAP2 POP POP SWAP3 POP SWAP3 POP SWAP3 JUMP JUMPDEST PUSH1 0x0 PUSH2 0x100 DUP3 ADD SWAP1 POP PUSH2 0x2BF6 PUSH1 0x0 DUP4 ADD DUP12 PUSH2 0x2B23 JUMP JUMPDEST DUP2 DUP2 SUB PUSH1 0x20 DUP4 ADD MSTORE PUSH2 0x2C08 DUP2 DUP11 PUSH2 0x2A6F JUMP JUMPDEST SWAP1 POP PUSH2 0x2C17 PUSH1 0x40 DUP4 ADD DUP10 PUSH2 0x29E5 JUMP JUMPDEST PUSH2 0x2C24 PUSH1 0x60 DUP4 ADD DUP9 PUSH2 0x29E5 JUMP JUMPDEST PUSH2 0x2C31 PUSH1 0x80 DUP4 ADD DUP8 PUSH2 0x29E5 JUMP JUMPDEST PUSH2 0x2C3E PUSH1 0xA0 DUP4 ADD DUP7 PUSH2 0x29E5 JUMP JUMPDEST DUP2 DUP2 SUB PUSH1 0xC0 DUP4 ADD MSTORE PUSH2 0x2C50 DUP2 DUP6 PUSH2 0x2A6F JUMP JUMPDEST SWAP1 POP PUSH2 0x2C5F PUSH1 0xE0 DUP4 ADD DUP5 PUSH2 0x2B23 JUMP JUMPDEST SWAP10 SWAP9 POP POP POP POP POP POP POP POP POP JUMP JUMPDEST PUSH1 0x0 DUP1 PUSH1 0x40 DUP4 DUP6 SUB SLT ISZERO PUSH2 0x2C83 JUMPI PUSH2 0x2C82 PUSH2 0x288B JUMP JUMPDEST JUMPDEST PUSH1 0x0 PUSH2 0x2C91 DUP6 DUP3 DUP7 ADD PUSH2 0x2AE1 JUMP JUMPDEST SWAP3 POP POP PUSH1 0x20 PUSH2 0x2CA2 DUP6 DUP3 DUP7 ADD PUSH2 0x2AE1 JUMP JUMPDEST SWAP2 POP POP SWAP3 POP SWAP3 SWAP1 POP JUMP JUMPDEST PUSH2 0x2CB5 DUP2 PUSH2 0x291A JUMP JUMPDEST DUP2 EQ PUSH2 0x2CC0 JUMPI PUSH1 0x0 DUP1 REVERT JUMPDEST POP JUMP JUMPDEST PUSH1 0x0 DUP2 CALLDATALOAD SWAP1 POP PUSH2 0x2CD2 DUP2 PUSH2 0x2CAC JUMP JUMPDEST SWAP3 SWAP2 POP POP JUMP JUMPDEST PUSH1 0x0 DUP1 PUSH1 0x40 DUP4 DUP6 SUB SLT ISZERO PUSH2 0x2CEF JUMPI PUSH2 0x2CEE PUSH2 0x288B JUMP JUMPDEST JUMPDEST PUSH1 0x0 PUSH2 0x2CFD DUP6 DUP3 DUP7 ADD PUSH2 0x2999 JUMP JUMPDEST SWAP3 POP POP PUSH1 0x20 PUSH2 0x2D0E DUP6 DUP3 DUP7 ADD PUSH2 0x2CC3 JUMP JUMPDEST SWAP2 POP POP SWAP3 POP SWAP3 SWAP1 POP JUMP JUMPDEST PUSH1 0x0 DUP1 REVERT JUMPDEST PUSH1 0x0 DUP1 REVERT JUMPDEST PUSH32 0x4E487B7100000000000000000000000000000000000000000000000000000000 PUSH1 0x0 MSTORE PUSH1 0x41 PUSH1 0x4 MSTORE PUSH1 0x24 PUSH1 0x0 REVERT JUMPDEST PUSH2 0x2D5A DUP3 PUSH2 0x2A5E JUMP JUMPDEST DUP2 ADD DUP2 DUP2 LT PUSH8 0xFFFFFFFFFFFFFFFF DUP3 GT OR ISZERO PUSH2 0x2D79 JUMPI PUSH2 0x2D78 PUSH2 0x2D22 JUMP JUMPDEST JUMPDEST DUP1 PUSH1 0x40 MSTORE POP POP POP JUMP JUMPDEST PUSH1 0x0 PUSH2 0x2D8C PUSH2 0x2881 JUMP JUMPDEST SWAP1 POP PUSH2 0x2D98 DUP3 DUP3 PUSH2 0x2D51 JUMP JUMPDEST SWAP2 SWAP1 POP JUMP JUMPDEST PUSH1 0x0 PUSH8 0xFFFFFFFFFFFFFFFF DUP3 GT ISZERO PUSH2 0x2DB8 JUMPI PUSH2 0x2DB7 PUSH2 0x2D22 JUMP JUMPDEST JUMPDEST PUSH2 0x2DC1 DUP3 PUSH2 0x2A5E JUMP JUMPDEST SWAP1 POP PUSH1 0x20 DUP2 ADD SWAP1 POP SWAP2 SWAP1 POP JUMP JUMPDEST DUP3 DUP2 DUP4 CALLDATACOPY PUSH1 0x0 DUP4 DUP4 ADD MSTORE POP POP POP JUMP JUMPDEST PUSH1 0x0 PUSH2 0x2DF0 PUSH2 0x2DEB DUP5 PUSH2 0x2D9D JUMP JUMPDEST PUSH2 0x2D82 JUMP JUMPDEST SWAP1 POP DUP3 DUP2 MSTORE PUSH1 0x20 DUP2 ADD DUP5 DUP5 DUP5 ADD GT ISZERO PUSH2 0x2E0C JUMPI PUSH2 0x2E0B PUSH2 0x2D1D JUMP JUMPDEST JUMPDEST PUSH2 0x2E17 DUP5 DUP3 DUP6 PUSH2 0x2DCE JUMP JUMPDEST POP SWAP4 SWAP3 POP POP POP JUMP JUMPDEST PUSH1 0x0 DUP3 PUSH1 0x1F DUP4 ADD SLT PUSH2 0x2E34 JUMPI PUSH2 0x2E33 PUSH2 0x2D18 JUMP JUMPDEST JUMPDEST DUP2 CALLDATALOAD PUSH2 0x2E44 DUP5 DUP3 PUSH1 0x20 DUP7 ADD PUSH2 0x2DDD JUMP JUMPDEST SWAP2 POP POP SWAP3 SWAP2 POP POP JUMP JUMPDEST PUSH1 0x0 PUSH1 0x20 DUP3 DUP5 SUB SLT ISZERO PUSH2 0x2E63 JUMPI PUSH2 0x2E62 PUSH2 0x288B JUMP JUMPDEST JUMPDEST PUSH1 0x0 DUP3 ADD CALLDATALOAD PUSH8 0xFFFFFFFFFFFFFFFF DUP2 GT ISZERO PUSH2 0x2E81 JUMPI PUSH2 0x2E80 PUSH2 0x2890 JUMP JUMPDEST JUMPDEST PUSH2 0x2E8D DUP5 DUP3 DUP6 ADD PUSH2 0x2E1F JUMP JUMPDEST SWAP2 POP POP SWAP3 SWAP2 POP POP JUMP JUMPDEST PUSH1 0x0 PUSH8 0xFFFFFFFFFFFFFFFF DUP3 GT ISZERO PUSH2 0x2EB1 JUMPI PUSH2 0x2EB0 PUSH2 0x2D22 JUMP JUMPDEST JUMPDEST PUSH2 0x2EBA DUP3 PUSH2 0x2A5E JUMP JUMPDEST SWAP1 POP PUSH1 0x20 DUP2 ADD SWAP1 POP SWAP2 SWAP1 POP JUMP JUMPDEST PUSH1 0x0 PUSH2 0x2EDA PUSH2 0x2ED5 DUP5 PUSH2 0x2E96 JUMP JUMPDEST PUSH2 0x2D82 JUMP JUMPDEST SWAP1 POP DUP3 DUP2 MSTORE PUSH1 0x20 DUP2 ADD DUP5 DUP5 DUP5 ADD GT ISZERO PUSH2 0x2EF6 JUMPI PUSH2 0x2EF5 PUSH2 0x2D1D JUMP JUMPDEST JUMPDEST PUSH2 0x2F01 DUP5 DUP3 DUP6 PUSH2 0x2DCE JUMP JUMPDEST POP SWAP4 SWAP3 POP POP POP JUMP JUMPDEST PUSH1 0x0 DUP3 PUSH1 0x1F DUP4 ADD SLT PUSH2 0x2F1E JUMPI PUSH2 0x2F1D PUSH2 0x2D18 JUMP JUMPDEST JUMPDEST DUP2 CALLDATALOAD PUSH2 0x2F2E DUP5 DUP3 PUSH1 0x20 DUP7 ADD PUSH2 0x2EC7 JUMP JUMPDEST SWAP2 POP POP SWAP3 SWAP2 POP POP JUMP JUMPDEST PUSH1 0x0 DUP1 PUSH1 0x0 DUP1 PUSH1 0x80 DUP6 DUP8 SUB SLT ISZERO PUSH2 0x2F51 JUMPI PUSH2 0x2F50 PUSH2 0x288B JUMP JUMPDEST JUMPDEST PUSH1 0x0 PUSH2 0x2F5F DUP8 DUP3 DUP9 ADD PUSH2 0x2999 JUMP JUMPDEST SWAP5 POP POP PUSH1 0x20 PUSH2 0x2F70 DUP8 DUP3 DUP9 ADD PUSH2 0x2999 JUMP JUMPDEST SWAP4 POP POP PUSH1 0x40 PUSH2 0x2F81 DUP8 DUP3 DUP9 ADD PUSH2 0x2AE1 JUMP JUMPDEST SWAP3 POP POP PUSH1 0x60 DUP6 ADD CALLDATALOAD PUSH8 0xFFFFFFFFFFFFFFFF DUP2 GT ISZERO PUSH2 0x2FA2 JUMPI PUSH2 0x2FA1 PUSH2 0x2890 JUMP JUMPDEST JUMPDEST PUSH2 0x2FAE DUP8 DUP3 DUP9 ADD PUSH2 0x2F09 JUMP JUMPDEST SWAP2 POP POP SWAP3 SWAP6 SWAP2 SWAP5 POP SWAP3 POP JUMP JUMPDEST PUSH1 0x0 DUP1 PUSH1 0x40 DUP4 DUP6 SUB SLT ISZERO PUSH2 0x2FD1 JUMPI PUSH2 0x2FD0 PUSH2 0x288B JUMP JUMPDEST JUMPDEST PUSH1 0x0 PUSH2 0x2FDF DUP6 DUP3 DUP7 ADD PUSH2 0x2999 JUMP JUMPDEST SWAP3 POP POP PUSH1 0x20 PUSH2 0x2FF0 DUP6 DUP3 DUP7 ADD PUSH2 0x2999 JUMP JUMPDEST SWAP2 POP POP SWAP3 POP SWAP3 SWAP1 POP JUMP JUMPDEST PUSH32 0x4E487B7100000000000000000000000000000000000000000000000000000000 PUSH1 0x0 MSTORE PUSH1 0x22 PUSH1 0x4 MSTORE PUSH1 0x24 PUSH1 0x0 REVERT JUMPDEST PUSH1 0x0 PUSH1 0x2 DUP3 DIV SWAP1 POP PUSH1 0x1 DUP3 AND DUP1 PUSH2 0x3041 JUMPI PUSH1 0x7F DUP3 AND SWAP2 POP JUMPDEST PUSH1 0x20 DUP3 LT DUP2 EQ ISZERO PUSH2 0x3055 JUMPI PUSH2 0x3054 PUSH2 0x2FFA JUMP JUMPDEST JUMPDEST POP SWAP2 SWAP1 POP JUMP JUMPDEST PUSH32 0x4552433732313A20617070726F76656420717565727920666F72206E6F6E6578 PUSH1 0x0 DUP3 ADD MSTORE PUSH32 0x697374656E7420746F6B656E0000000000000000000000000000000000000000 PUSH1 0x20 DUP3 ADD MSTORE POP JUMP JUMPDEST PUSH1 0x0 PUSH2 0x30B7 PUSH1 0x2C DUP4 PUSH2 0x2A1A JUMP JUMPDEST SWAP2 POP PUSH2 0x30C2 DUP3 PUSH2 0x305B JUMP JUMPDEST PUSH1 0x40 DUP3 ADD SWAP1 POP SWAP2 SWAP1 POP JUMP JUMPDEST PUSH1 0x0 PUSH1 0x20 DUP3 ADD SWAP1 POP DUP2 DUP2 SUB PUSH1 0x0 DUP4 ADD MSTORE PUSH2 0x30E6 DUP2 PUSH2 0x30AA JUMP JUMPDEST SWAP1 POP SWAP2 SWAP1 POP JUMP JUMPDEST PUSH32 0x4552433732313A20617070726F76616C20746F2063757272656E74206F776E65 PUSH1 0x0 DUP3 ADD MSTORE PUSH32 0x7200000000000000000000000000000000000000000000000000000000000000 PUSH1 0x20 DUP3 ADD MSTORE POP JUMP JUMPDEST PUSH1 0x0 PUSH2 0x3149 PUSH1 0x21 DUP4 PUSH2 0x2A1A JUMP JUMPDEST SWAP2 POP PUSH2 0x3154 DUP3 PUSH2 0x30ED JUMP JUMPDEST PUSH1 0x40 DUP3 ADD SWAP1 POP SWAP2 SWAP1 POP JUMP JUMPDEST PUSH1 0x0 PUSH1 0x20 DUP3 ADD SWAP1 POP DUP2 DUP2 SUB PUSH1 0x0 DUP4 ADD MSTORE PUSH2 0x3178 DUP2 PUSH2 0x313C JUMP JUMPDEST SWAP1 POP SWAP2 SWAP1 POP JUMP JUMPDEST PUSH32 0x4552433732313A20617070726F76652063616C6C6572206973206E6F74206F77 PUSH1 0x0 DUP3 ADD MSTORE PUSH32 0x6E6572206E6F7220617070726F76656420666F7220616C6C0000000000000000 PUSH1 0x20 DUP3 ADD MSTORE POP JUMP JUMPDEST PUSH1 0x0 PUSH2 0x31DB PUSH1 0x38 DUP4 PUSH2 0x2A1A JUMP JUMPDEST SWAP2 POP PUSH2 0x31E6 DUP3 PUSH2 0x317F JUMP JUMPDEST PUSH1 0x40 DUP3 ADD SWAP1 POP SWAP2 SWAP1 POP JUMP JUMPDEST PUSH1 0x0 PUSH1 0x20 DUP3 ADD SWAP1 POP DUP2 DUP2 SUB PUSH1 0x0 DUP4 ADD MSTORE PUSH2 0x320A DUP2 PUSH2 0x31CE JUMP JUMPDEST SWAP1 POP SWAP2 SWAP1 POP JUMP JUMPDEST PUSH32 0x5457494E4D42525348503A2074686973206D6574686F64206973206E6F742073 PUSH1 0x0 DUP3 ADD MSTORE PUSH32 0x7570706F72746564000000000000000000000000000000000000000000000000 PUSH1 0x20 DUP3 ADD MSTORE POP JUMP JUMPDEST PUSH1 0x0 PUSH2 0x326D PUSH1 0x28 DUP4 PUSH2 0x2A1A JUMP JUMPDEST SWAP2 POP PUSH2 0x3278 DUP3 PUSH2 0x3211 JUMP JUMPDEST PUSH1 0x40 DUP3 ADD SWAP1 POP SWAP2 SWAP1 POP JUMP JUMPDEST PUSH1 0x0 PUSH1 0x20 DUP3 ADD SWAP1 POP DUP2 DUP2 SUB PUSH1 0x0 DUP4 ADD MSTORE PUSH2 0x329C DUP2 PUSH2 0x3260 JUMP JUMPDEST SWAP1 POP SWAP2 SWAP1 POP JUMP JUMPDEST PUSH32 0x536F7272792C20596F7572206861766520746F206D696E74204D425253485020 PUSH1 0x0 DUP3 ADD MSTORE PUSH32 0x66697273742E0000000000000000000000000000000000000000000000000000 PUSH1 0x20 DUP3 ADD MSTORE POP JUMP JUMPDEST PUSH1 0x0 PUSH2 0x32FF PUSH1 0x26 DUP4 PUSH2 0x2A1A JUMP JUMPDEST SWAP2 POP PUSH2 0x330A DUP3 PUSH2 0x32A3 JUMP JUMPDEST PUSH1 0x40 DUP3 ADD SWAP1 POP SWAP2 SWAP1 POP JUMP JUMPDEST PUSH1 0x0 PUSH1 0x20 DUP3 ADD SWAP1 POP DUP2 DUP2 SUB PUSH1 0x0 DUP4 ADD MSTORE PUSH2 0x332E DUP2 PUSH2 0x32F2 JUMP JUMPDEST SWAP1 POP SWAP2 SWAP1 POP JUMP JUMPDEST PUSH32 0x546869732057616C6C6574205573657220697320616C7265616479206D656D62 PUSH1 0x0 DUP3 ADD MSTORE PUSH32 0x6572210000000000000000000000000000000000000000000000000000000000 PUSH1 0x20 DUP3 ADD MSTORE POP JUMP JUMPDEST PUSH1 0x0 PUSH2 0x3391 PUSH1 0x23 DUP4 PUSH2 0x2A1A JUMP JUMPDEST SWAP2 POP PUSH2 0x339C DUP3 PUSH2 0x3335 JUMP JUMPDEST PUSH1 0x40 DUP3 ADD SWAP1 POP SWAP2 SWAP1 POP JUMP JUMPDEST PUSH1 0x0 PUSH1 0x20 DUP3 ADD SWAP1 POP DUP2 DUP2 SUB PUSH1 0x0 DUP4 ADD MSTORE PUSH2 0x33C0 DUP2 PUSH2 0x3384 JUMP JUMPDEST SWAP1 POP SWAP2 SWAP1 POP JUMP JUMPDEST PUSH32 0x5468697320757365722068617320616C7265616479206265656E20696E766974 PUSH1 0x0 DUP3 ADD MSTORE PUSH32 0x65642E202054686520696E7669746174696F6E2077696C6C2065787069726520 PUSH1 0x20 DUP3 ADD MSTORE PUSH32 0x696E203320646179732028373220686F757273292C20736F20706C6561736520 PUSH1 0x40 DUP3 ADD MSTORE PUSH32 0x74727920616761696E2E00000000000000000000000000000000000000000000 PUSH1 0x60 DUP3 ADD MSTORE POP JUMP JUMPDEST PUSH1 0x0 PUSH2 0x346F PUSH1 0x6A DUP4 PUSH2 0x2A1A JUMP JUMPDEST SWAP2 POP PUSH2 0x347A DUP3 PUSH2 0x33C7 JUMP JUMPDEST PUSH1 0x80 DUP3 ADD SWAP1 POP SWAP2 SWAP1 POP JUMP JUMPDEST PUSH1 0x0 PUSH1 0x20 DUP3 ADD SWAP1 POP DUP2 DUP2 SUB PUSH1 0x0 DUP4 ADD MSTORE PUSH2 0x349E DUP2 PUSH2 0x3462 JUMP JUMPDEST SWAP1 POP SWAP2 SWAP1 POP JUMP JUMPDEST PUSH32 0x4E487B7100000000000000000000000000000000000000000000000000000000 PUSH1 0x0 MSTORE PUSH1 0x11 PUSH1 0x4 MSTORE PUSH1 0x24 PUSH1 0x0 REVERT JUMPDEST PUSH1 0x0 PUSH2 0x34DF DUP3 PUSH2 0x29DB JUMP JUMPDEST SWAP2 POP PUSH2 0x34EA DUP4 PUSH2 0x29DB JUMP JUMPDEST SWAP3 POP DUP3 PUSH32 0xFFFFFFFFFFFFFFFFFFFFFFFFFFFFFFFFFFFFFFFFFFFFFFFFFFFFFFFFFFFFFFFF SUB DUP3 GT ISZERO PUSH2 0x351F JUMPI PUSH2 0x351E PUSH2 0x34A5 JUMP JUMPDEST JUMPDEST DUP3 DUP3 ADD SWAP1 POP SWAP3 SWAP2 POP POP JUMP JUMPDEST PUSH1 0x0 DUP2 SWAP1 POP SWAP2 SWAP1 POP JUMP JUMPDEST PUSH2 0x3545 PUSH2 0x3540 DUP3 PUSH2 0x29DB JUMP JUMPDEST PUSH2 0x352A JUMP JUMPDEST DUP3 MSTORE POP POP JUMP JUMPDEST PUSH1 0x0 DUP2 PUSH1 0x60 SHL SWAP1 POP SWAP2 SWAP1 POP JUMP JUMPDEST PUSH1 0x0 PUSH2 0x3563 DUP3 PUSH2 0x354B JUMP JUMPDEST SWAP1 POP SWAP2 SWAP1 POP JUMP JUMPDEST PUSH1 0x0 PUSH2 0x3575 DUP3 PUSH2 0x3558 JUMP JUMPDEST SWAP1 POP SWAP2 SWAP1 POP JUMP JUMPDEST PUSH2 0x358D PUSH2 0x3588 DUP3 PUSH2 0x2970 JUMP JUMPDEST PUSH2 0x356A JUMP JUMPDEST DUP3 MSTORE POP POP JUMP JUMPDEST PUSH1 0x0 PUSH2 0x359F DUP3 DUP7 PUSH2 0x3534 JUMP JUMPDEST PUSH1 0x20 DUP3 ADD SWAP2 POP PUSH2 0x35AF DUP3 DUP6 PUSH2 0x3534 JUMP JUMPDEST PUSH1 0x20 DUP3 ADD SWAP2 POP PUSH2 0x35BF DUP3 DUP5 PUSH2 0x357C JUMP JUMPDEST PUSH1 0x14 DUP3 ADD SWAP2 POP DUP2 SWAP1 POP SWAP5 SWAP4 POP POP POP POP JUMP JUMPDEST PUSH32 0x4E487B7100000000000000000000000000000000000000000000000000000000 PUSH1 0x0 MSTORE PUSH1 0x12 PUSH1 0x4 MSTORE PUSH1 0x24 PUSH1 0x0 REVERT JUMPDEST PUSH1 0x0 PUSH2 0x360A DUP3 PUSH2 0x29DB JUMP JUMPDEST SWAP2 POP PUSH2 0x3615 DUP4 PUSH2 0x29DB JUMP JUMPDEST SWAP3 POP DUP3 PUSH2 0x3625 JUMPI PUSH2 0x3624 PUSH2 0x35D0 JUMP JUMPDEST JUMPDEST DUP3 DUP3 MOD SWAP1 POP SWAP3 SWAP2 POP POP JUMP JUMPDEST PUSH32 0x4552433732313A206F776E657220717565727920666F72206E6F6E6578697374 PUSH1 0x0 DUP3 ADD MSTORE PUSH32 0x656E7420746F6B656E0000000000000000000000000000000000000000000000 PUSH1 0x20 DUP3 ADD MSTORE POP JUMP JUMPDEST PUSH1 0x0 PUSH2 0x368C PUSH1 0x29 DUP4 PUSH2 0x2A1A JUMP JUMPDEST SWAP2 POP PUSH2 0x3697 DUP3 PUSH2 0x3630 JUMP JUMPDEST PUSH1 0x40 DUP3 ADD SWAP1 POP SWAP2 SWAP1 POP JUMP JUMPDEST PUSH1 0x0 PUSH1 0x20 DUP3 ADD SWAP1 POP DUP2 DUP2 SUB PUSH1 0x0 DUP4 ADD MSTORE PUSH2 0x36BB DUP2 PUSH2 0x367F JUMP JUMPDEST SWAP1 POP SWAP2 SWAP1 POP JUMP JUMPDEST PUSH32 0x4552433732313A2062616C616E636520717565727920666F7220746865207A65 PUSH1 0x0 DUP3 ADD MSTORE PUSH32 0x726F206164647265737300000000000000000000000000000000000000000000 PUSH1 0x20 DUP3 ADD MSTORE POP JUMP JUMPDEST PUSH1 0x0 PUSH2 0x371E PUSH1 0x2A DUP4 PUSH2 0x2A1A JUMP JUMPDEST SWAP2 POP PUSH2 0x3729 DUP3 PUSH2 0x36C2 JUMP JUMPDEST PUSH1 0x40 DUP3 ADD SWAP1 POP SWAP2 SWAP1 POP JUMP JUMPDEST PUSH1 0x0 PUSH1 0x20 DUP3 ADD SWAP1 POP DUP2 DUP2 SUB PUSH1 0x0 DUP4 ADD MSTORE PUSH2 0x374D DUP2 PUSH2 0x3711 JUMP JUMPDEST SWAP1 POP SWAP2 SWAP1 POP JUMP JUMPDEST PUSH32 0x4F776E61626C653A2063616C6C6572206973206E6F7420746865206F776E6572 PUSH1 0x0 DUP3 ADD MSTORE POP JUMP JUMPDEST PUSH1 0x0 PUSH2 0x378A PUSH1 0x20 DUP4 PUSH2 0x2A1A JUMP JUMPDEST SWAP2 POP PUSH2 0x3795 DUP3 PUSH2 0x3754 JUMP JUMPDEST PUSH1 0x20 DUP3 ADD SWAP1 POP SWAP2 SWAP1 POP JUMP JUMPDEST PUSH1 0x0 PUSH1 0x20 DUP3 ADD SWAP1 POP DUP2 DUP2 SUB PUSH1 0x0 DUP4 ADD MSTORE PUSH2 0x37B9 DUP2 PUSH2 0x377D JUMP JUMPDEST SWAP1 POP SWAP2 SWAP1 POP JUMP JUMPDEST PUSH32 0x596F7520616C72656164792068617665204D42525348502E0000000000000000 PUSH1 0x0 DUP3 ADD MSTORE POP JUMP JUMPDEST PUSH1 0x0 PUSH2 0x37F6 PUSH1 0x18 DUP4 PUSH2 0x2A1A JUMP JUMPDEST SWAP2 POP PUSH2 0x3801 DUP3 PUSH2 0x37C0 JUMP JUMPDEST PUSH1 0x20 DUP3 ADD SWAP1 POP SWAP2 SWAP1 POP JUMP JUMPDEST PUSH1 0x0 PUSH1 0x20 DUP3 ADD SWAP1 POP DUP2 DUP2 SUB PUSH1 0x0 DUP4 ADD MSTORE PUSH2 0x3825 DUP2 PUSH2 0x37E9 JUMP JUMPDEST SWAP1 POP SWAP2 SWAP1 POP JUMP JUMPDEST PUSH1 0x0 PUSH2 0x3837 DUP3 PUSH2 0x29DB JUMP JUMPDEST SWAP2 POP PUSH32 0xFFFFFFFFFFFFFFFFFFFFFFFFFFFFFFFFFFFFFFFFFFFFFFFFFFFFFFFFFFFFFFFF DUP3 EQ ISZERO PUSH2 0x386A JUMPI PUSH2 0x3869 PUSH2 0x34A5 JUMP JUMPDEST JUMPDEST PUSH1 0x1 DUP3 ADD SWAP1 POP SWAP2 SWAP1 POP JUMP JUMPDEST PUSH1 0x0 PUSH2 0x3880 DUP3 PUSH2 0x29DB JUMP JUMPDEST SWAP2 POP PUSH2 0x388B DUP4 PUSH2 0x29DB JUMP JUMPDEST SWAP3 POP DUP3 PUSH2 0x389B JUMPI PUSH2 0x389A PUSH2 0x35D0 JUMP JUMPDEST JUMPDEST DUP3 DUP3 DIV SWAP1 POP SWAP3 SWAP2 POP POP JUMP JUMPDEST PUSH1 0x0 DUP2 SWAP1 POP SWAP3 SWAP2 POP POP JUMP JUMPDEST PUSH32 0x7B226E616D65223A20225477696E746F706961204D656D626572736869702023 PUSH1 0x0 DUP3 ADD MSTORE POP JUMP JUMPDEST PUSH1 0x0 PUSH2 0x38E7 PUSH1 0x20 DUP4 PUSH2 0x38A6 JUMP JUMPDEST SWAP2 POP PUSH2 0x38F2 DUP3 PUSH2 0x38B1 JUMP JUMPDEST PUSH1 0x20 DUP3 ADD SWAP1 POP SWAP2 SWAP1 POP JUMP JUMPDEST PUSH1 0x0 PUSH2 0x3908 DUP3 PUSH2 0x2A0F JUMP JUMPDEST PUSH2 0x3912 DUP2 DUP6 PUSH2 0x38A6 JUMP JUMPDEST SWAP4 POP PUSH2 0x3922 DUP2 DUP6 PUSH1 0x20 DUP7 ADD PUSH2 0x2A2B JUMP JUMPDEST DUP1 DUP5 ADD SWAP2 POP POP SWAP3 SWAP2 POP POP JUMP JUMPDEST PUSH32 0x2000000000000000000000000000000000000000000000000000000000000000 PUSH1 0x0 DUP3 ADD MSTORE POP JUMP JUMPDEST PUSH1 0x0 PUSH2 0x3964 PUSH1 0x1 DUP4 PUSH2 0x38A6 JUMP JUMPDEST SWAP2 POP PUSH2 0x396F DUP3 PUSH2 0x392E JUMP JUMPDEST PUSH1 0x1 DUP3 ADD SWAP1 POP SWAP2 SWAP1 POP JUMP JUMPDEST PUSH1 0x0 DUP2 SWAP1 POP DUP2 PUSH1 0x0 MSTORE PUSH1 0x20 PUSH1 0x0 KECCAK256 SWAP1 POP SWAP2 SWAP1 POP JUMP JUMPDEST PUSH1 0x0 DUP2 SLOAD PUSH2 0x399C DUP2 PUSH2 0x3029 JUMP JUMPDEST PUSH2 0x39A6 DUP2 DUP7 PUSH2 0x38A6 JUMP JUMPDEST SWAP5 POP PUSH1 0x1 DUP3 AND PUSH1 0x0 DUP2 EQ PUSH2 0x39C1 JUMPI PUSH1 0x1 DUP2 EQ PUSH2 0x39D2 JUMPI PUSH2 0x3A05 JUMP JUMPDEST PUSH1 0xFF NOT DUP4 AND DUP7 MSTORE DUP2 DUP7 ADD SWAP4 POP PUSH2 0x3A05 JUMP JUMPDEST PUSH2 0x39DB DUP6 PUSH2 0x397A JUMP JUMPDEST PUSH1 0x0 JUMPDEST DUP4 DUP2 LT ISZERO PUSH2 0x39FD JUMPI DUP2 SLOAD DUP2 DUP10 ADD MSTORE PUSH1 0x1 DUP3 ADD SWAP2 POP PUSH1 0x20 DUP2 ADD SWAP1 POP PUSH2 0x39DE JUMP JUMPDEST DUP4 DUP9 ADD SWAP6 POP POP POP JUMPDEST POP POP POP SWAP3 SWAP2 POP POP JUMP JUMPDEST PUSH32 0x222C202265787465726E616C5F75726C223A2268747470733A2F2F7477697474 PUSH1 0x0 DUP3 ADD MSTORE PUSH32 0x65722E636F6D2F00000000000000000000000000000000000000000000000000 PUSH1 0x20 DUP3 ADD MSTORE POP JUMP JUMPDEST PUSH1 0x0 PUSH2 0x3A6A PUSH1 0x27 DUP4 PUSH2 0x38A6 JUMP JUMPDEST SWAP2 POP PUSH2 0x3A75 DUP3 PUSH2 0x3A0E JUMP JUMPDEST PUSH1 0x27 DUP3 ADD SWAP1 POP SWAP2 SWAP1 POP JUMP JUMPDEST PUSH32 0x222C20226465736372697074696F6E223A20225B56696577206F6E2054776974 PUSH1 0x0 DUP3 ADD MSTORE PUSH32 0x7465722061626F7574206D656D6265725D2868747470733A2F2F747769747465 PUSH1 0x20 DUP3 ADD MSTORE PUSH32 0x722E636F6D2F0000000000000000000000000000000000000000000000000000 PUSH1 0x40 DUP3 ADD MSTORE POP JUMP JUMPDEST PUSH1 0x0 PUSH2 0x3B02 PUSH1 0x46 DUP4 PUSH2 0x38A6 JUMP JUMPDEST SWAP2 POP PUSH2 0x3B0D DUP3 PUSH2 0x3A80 JUMP JUMPDEST PUSH1 0x46 DUP3 ADD SWAP1 POP SWAP2 SWAP1 POP JUMP JUMPDEST PUSH32 0x292E202054686973204E465420697320666F7220546865204D656D6265727320 PUSH1 0x0 DUP3 ADD MSTORE PUSH32 0x6F6620746865205477696E746F70696120636F6D6D756E6974792072756E2062 PUSH1 0x20 DUP3 ADD MSTORE PUSH32 0x792073796E73636869736D6F20496E632E202020F09F8F862054686520726967 PUSH1 0x40 DUP3 ADD MSTORE PUSH32 0x687420746F20696E76697465206E6577206D656D626572732E20202020F09F8E PUSH1 0x60 DUP3 ADD MSTORE PUSH32 0x8920507265666572656E7469616C2061636365737320746F2062656E65666974 PUSH1 0x80 DUP3 ADD MSTORE PUSH32 0x732072656C6174656420746F206F75722073657276696365732E20202020F09F PUSH1 0xA0 DUP3 ADD MSTORE PUSH32 0x9A802054686520726967687420746F20706172746963697061746520696E2066 PUSH1 0xC0 DUP3 ADD MSTORE PUSH32 0x75747572652074657374696E67206F66206F75722073657276696365732E222C PUSH1 0xE0 DUP3 ADD MSTORE PUSH32 0x2022616E696D6174696F6E5F75726C223A202200000000000000000000000000 PUSH2 0x100 DUP3 ADD MSTORE POP JUMP JUMPDEST PUSH1 0x0 PUSH2 0x3C80 PUSH2 0x113 DUP4 PUSH2 0x38A6 JUMP JUMPDEST SWAP2 POP PUSH2 0x3C8B DUP3 PUSH2 0x3B18 JUMP JUMPDEST PUSH2 0x113 DUP3 ADD SWAP1 POP SWAP2 SWAP1 POP JUMP JUMPDEST PUSH32 0x222C2022696D616765223A202200000000000000000000000000000000000000 PUSH1 0x0 DUP3 ADD MSTORE POP JUMP JUMPDEST PUSH1 0x0 PUSH2 0x3CCD PUSH1 0xD DUP4 PUSH2 0x38A6 JUMP JUMPDEST SWAP2 POP PUSH2 0x3CD8 DUP3 PUSH2 0x3C97 JUMP JUMPDEST PUSH1 0xD DUP3 ADD SWAP1 POP SWAP2 SWAP1 POP JUMP JUMPDEST PUSH32 0x222C202261747472696275746573223A5B7B2274726169745F74797065223A20 PUSH1 0x0 DUP3 ADD MSTORE PUSH32 0x224D696E746564204279222C2276616C7565223A202200000000000000000000 PUSH1 0x20 DUP3 ADD MSTORE POP JUMP JUMPDEST PUSH1 0x0 PUSH2 0x3D3F PUSH1 0x36 DUP4 PUSH2 0x38A6 JUMP JUMPDEST SWAP2 POP PUSH2 0x3D4A DUP3 PUSH2 0x3CE3 JUMP JUMPDEST PUSH1 0x36 DUP3 ADD SWAP1 POP SWAP2 SWAP1 POP JUMP JUMPDEST PUSH32 0x227D2C7B2274726169745F74797065223A20224C61746974756465222C202276 PUSH1 0x0 DUP3 ADD MSTORE PUSH32 0x616C7565223A2200000000000000000000000000000000000000000000000000 PUSH1 0x20 DUP3 ADD MSTORE POP JUMP JUMPDEST PUSH1 0x0 PUSH2 0x3DB1 PUSH1 0x27 DUP4 PUSH2 0x38A6 JUMP JUMPDEST SWAP2 POP PUSH2 0x3DBC DUP3 PUSH2 0x3D55 JUMP JUMPDEST PUSH1 0x27 DUP3 ADD SWAP1 POP SWAP2 SWAP1 POP JUMP JUMPDEST PUSH32 0x227D2C7B2274726169745F74797065223A224C6F6E676974756465222C202276 PUSH1 0x0 DUP3 ADD MSTORE PUSH32 0x616C7565223A2200000000000000000000000000000000000000000000000000 PUSH1 0x20 DUP3 ADD MSTORE POP JUMP JUMPDEST PUSH1 0x0 PUSH2 0x3E23 PUSH1 0x27 DUP4 PUSH2 0x38A6 JUMP JUMPDEST SWAP2 POP PUSH2 0x3E2E DUP3 PUSH2 0x3DC7 JUMP JUMPDEST PUSH1 0x27 DUP3 ADD SWAP1 POP SWAP2 SWAP1 POP JUMP JUMPDEST PUSH32 0x227D2C7B22646973706C61795F74797065223A202264617465222C2274726169 PUSH1 0x0 DUP3 ADD MSTORE PUSH32 0x745F74797065223A202244617465206F66204A6F696E696E67222C2276616C75 PUSH1 0x20 DUP3 ADD MSTORE PUSH32 0x65223A2200000000000000000000000000000000000000000000000000000000 PUSH1 0x40 DUP3 ADD MSTORE POP JUMP JUMPDEST PUSH1 0x0 PUSH2 0x3EBB PUSH1 0x44 DUP4 PUSH2 0x38A6 JUMP JUMPDEST SWAP2 POP PUSH2 0x3EC6 DUP3 PUSH2 0x3E39 JUMP JUMPDEST PUSH1 0x44 DUP3 ADD SWAP1 POP SWAP2 SWAP1 POP JUMP JUMPDEST PUSH32 0x227D2C7B2274726169745F74797065223A2022496E7669746564206279222C20 PUSH1 0x0 DUP3 ADD MSTORE PUSH32 0x2276616C7565223A220000000000000000000000000000000000000000000000 PUSH1 0x20 DUP3 ADD MSTORE POP JUMP JUMPDEST PUSH1 0x0 PUSH2 0x3F2D PUSH1 0x29 DUP4 PUSH2 0x38A6 JUMP JUMPDEST SWAP2 POP PUSH2 0x3F38 DUP3 PUSH2 0x3ED1 JUMP JUMPDEST PUSH1 0x29 DUP3 ADD SWAP1 POP SWAP2 SWAP1 POP JUMP JUMPDEST PUSH32 0x227D2C7B2274726169745F74797065223A224E756D626572206F6620496E7669 PUSH1 0x0 DUP3 ADD MSTORE PUSH32 0x7465222C202276616C7565223A22000000000000000000000000000000000000 PUSH1 0x20 DUP3 ADD MSTORE POP JUMP JUMPDEST PUSH1 0x0 PUSH2 0x3F9F PUSH1 0x2E DUP4 PUSH2 0x38A6 JUMP JUMPDEST SWAP2 POP PUSH2 0x3FAA DUP3 PUSH2 0x3F43 JUMP JUMPDEST PUSH1 0x2E DUP3 ADD SWAP1 POP SWAP2 SWAP1 POP JUMP JUMPDEST PUSH32 0x227D5D7D00000000000000000000000000000000000000000000000000000000 PUSH1 0x0 DUP3 ADD MSTORE POP JUMP JUMPDEST PUSH1 0x0 PUSH2 0x3FEB PUSH1 0x4 DUP4 PUSH2 0x38A6 JUMP JUMPDEST SWAP2 POP PUSH2 0x3FF6 DUP3 PUSH2 0x3FB5 JUMP JUMPDEST PUSH1 0x4 DUP3 ADD SWAP1 POP SWAP2 SWAP1 POP JUMP JUMPDEST PUSH1 0x0 PUSH2 0x400C DUP3 PUSH2 0x38DA JUMP JUMPDEST SWAP2 POP PUSH2 0x4018 DUP3 DUP16 PUSH2 0x38FD JUMP JUMPDEST SWAP2 POP PUSH2 0x4023 DUP3 PUSH2 0x3957 JUMP JUMPDEST SWAP2 POP PUSH2 0x402F DUP3 DUP15 PUSH2 0x398F JUMP JUMPDEST SWAP2 POP PUSH2 0x403A DUP3 PUSH2 0x3A5D JUMP JUMPDEST SWAP2 POP PUSH2 0x4046 DUP3 DUP14 PUSH2 0x398F JUMP JUMPDEST SWAP2 POP PUSH2 0x4051 DUP3 PUSH2 0x3AF5 JUMP JUMPDEST SWAP2 POP PUSH2 0x405D DUP3 DUP13 PUSH2 0x398F JUMP JUMPDEST SWAP2 POP PUSH2 0x4068 DUP3 PUSH2 0x3C72 JUMP JUMPDEST SWAP2 POP PUSH2 0x4074 DUP3 DUP12 PUSH2 0x398F JUMP JUMPDEST SWAP2 POP PUSH2 0x407F DUP3 PUSH2 0x3CC0 JUMP JUMPDEST SWAP2 POP PUSH2 0x408B DUP3 DUP11 PUSH2 0x398F JUMP JUMPDEST SWAP2 POP PUSH2 0x4096 DUP3 PUSH2 0x3D32 JUMP JUMPDEST SWAP2 POP PUSH2 0x40A2 DUP3 DUP10 PUSH2 0x38FD JUMP JUMPDEST SWAP2 POP PUSH2 0x40AD DUP3 PUSH2 0x3DA4 JUMP JUMPDEST SWAP2 POP PUSH2 0x40B9 DUP3 DUP9 PUSH2 0x38FD JUMP JUMPDEST SWAP2 POP PUSH2 0x40C4 DUP3 PUSH2 0x3E16 JUMP JUMPDEST SWAP2 POP PUSH2 0x40D0 DUP3 DUP8 PUSH2 0x38FD JUMP JUMPDEST SWAP2 POP PUSH2 0x40DB DUP3 PUSH2 0x3EAE JUMP JUMPDEST SWAP2 POP PUSH2 0x40E7 DUP3 DUP7 PUSH2 0x38FD JUMP JUMPDEST SWAP2 POP PUSH2 0x40F2 DUP3 PUSH2 0x3F20 JUMP JUMPDEST SWAP2 POP PUSH2 0x40FE DUP3 DUP6 PUSH2 0x38FD JUMP JUMPDEST SWAP2 POP PUSH2 0x4109 DUP3 PUSH2 0x3F92 JUMP JUMPDEST SWAP2 POP PUSH2 0x4115 DUP3 DUP5 PUSH2 0x38FD JUMP JUMPDEST SWAP2 POP PUSH2 0x4120 DUP3 PUSH2 0x3FDE JUMP JUMPDEST SWAP2 POP DUP2 SWAP1 POP SWAP14 SWAP13 POP POP POP POP POP POP POP POP POP POP POP POP POP JUMP JUMPDEST PUSH32 0x646174613A6170706C69636174696F6E2F6A736F6E3B6261736536342C000000 PUSH1 0x0 DUP3 ADD MSTORE POP JUMP JUMPDEST PUSH1 0x0 PUSH2 0x416C PUSH1 0x1D DUP4 PUSH2 0x38A6 JUMP JUMPDEST SWAP2 POP PUSH2 0x4177 DUP3 PUSH2 0x4136 JUMP JUMPDEST PUSH1 0x1D DUP3 ADD SWAP1 POP SWAP2 SWAP1 POP JUMP JUMPDEST PUSH1 0x0 PUSH2 0x418D DUP3 PUSH2 0x415F JUMP JUMPDEST SWAP2 POP PUSH2 0x4199 DUP3 DUP5 PUSH2 0x38FD JUMP JUMPDEST SWAP2 POP DUP2 SWAP1 POP SWAP3 SWAP2 POP POP JUMP JUMPDEST PUSH32 0x4F776E61626C653A206E6577206F776E657220697320746865207A65726F2061 PUSH1 0x0 DUP3 ADD MSTORE PUSH32 0x6464726573730000000000000000000000000000000000000000000000000000 PUSH1 0x20 DUP3 ADD MSTORE POP JUMP JUMPDEST PUSH1 0x0 PUSH2 0x4200 PUSH1 0x26 DUP4 PUSH2 0x2A1A JUMP JUMPDEST SWAP2 POP PUSH2 0x420B DUP3 PUSH2 0x41A4 JUMP JUMPDEST PUSH1 0x40 DUP3 ADD SWAP1 POP SWAP2 SWAP1 POP JUMP JUMPDEST PUSH1 0x0 PUSH1 0x20 DUP3 ADD SWAP1 POP DUP2 DUP2 SUB PUSH1 0x0 DUP4 ADD MSTORE PUSH2 0x422F DUP2 PUSH2 0x41F3 JUMP JUMPDEST SWAP1 POP SWAP2 SWAP1 POP JUMP JUMPDEST PUSH32 0x4552433732313A20617070726F766520746F2063616C6C657200000000000000 PUSH1 0x0 DUP3 ADD MSTORE POP JUMP JUMPDEST PUSH1 0x0 PUSH2 0x426C PUSH1 0x19 DUP4 PUSH2 0x2A1A JUMP JUMPDEST SWAP2 POP PUSH2 0x4277 DUP3 PUSH2 0x4236 JUMP JUMPDEST PUSH1 0x20 DUP3 ADD SWAP1 POP SWAP2 SWAP1 POP JUMP JUMPDEST PUSH1 0x0 PUSH1 0x20 DUP3 ADD SWAP1 POP DUP2 DUP2 SUB PUSH1 0x0 DUP4 ADD MSTORE PUSH2 0x429B DUP2 PUSH2 0x425F JUMP JUMPDEST SWAP1 POP SWAP2 SWAP1 POP JUMP JUMPDEST PUSH32 0x45524337323155524953746F726167653A2055524920736574206F66206E6F6E PUSH1 0x0 DUP3 ADD MSTORE PUSH32 0x6578697374656E7420746F6B656E000000000000000000000000000000000000 PUSH1 0x20 DUP3 ADD MSTORE POP JUMP JUMPDEST PUSH1 0x0 PUSH2 0x42FE PUSH1 0x2E DUP4 PUSH2 0x2A1A JUMP JUMPDEST SWAP2 POP PUSH2 0x4309 DUP3 PUSH2 0x42A2 JUMP JUMPDEST PUSH1 0x40 DUP3 ADD SWAP1 POP SWAP2 SWAP1 POP JUMP JUMPDEST PUSH1 0x0 PUSH1 0x20 DUP3 ADD SWAP1 POP DUP2 DUP2 SUB PUSH1 0x0 DUP4 ADD MSTORE PUSH2 0x432D DUP2 PUSH2 0x42F1 JUMP JUMPDEST SWAP1 POP SWAP2 SWAP1 POP JUMP JUMPDEST PUSH1 0x0 PUSH2 0x433F DUP3 PUSH2 0x29DB JUMP JUMPDEST SWAP2 POP PUSH2 0x434A DUP4 PUSH2 0x29DB JUMP JUMPDEST SWAP3 POP DUP3 DUP3 LT ISZERO PUSH2 0x435D JUMPI PUSH2 0x435C PUSH2 0x34A5 JUMP JUMPDEST JUMPDEST DUP3 DUP3 SUB SWAP1 POP SWAP3 SWAP2 POP POP JUMP JUMPDEST PUSH32 0x4E487B7100000000000000000000000000000000000000000000000000000000 PUSH1 0x0 MSTORE PUSH1 0x32 PUSH1 0x4 MSTORE PUSH1 0x24 PUSH1 0x0 REVERT JUMPDEST PUSH1 0x0 PUSH2 0x43A2 DUP3 PUSH2 0x29DB JUMP JUMPDEST SWAP2 POP PUSH2 0x43AD DUP4 PUSH2 0x29DB JUMP JUMPDEST SWAP3 POP DUP2 PUSH32 0xFFFFFFFFFFFFFFFFFFFFFFFFFFFFFFFFFFFFFFFFFFFFFFFFFFFFFFFFFFFFFFFF DIV DUP4 GT DUP3 ISZERO ISZERO AND ISZERO PUSH2 0x43E6 JUMPI PUSH2 0x43E5 PUSH2 0x34A5 JUMP JUMPDEST JUMPDEST DUP3 DUP3 MUL SWAP1 POP SWAP3 SWAP2 POP POP JUMP JUMPDEST PUSH32 0x4552433732313A207472616E7366657220746F206E6F6E204552433732315265 PUSH1 0x0 DUP3 ADD MSTORE PUSH32 0x63656976657220696D706C656D656E7465720000000000000000000000000000 PUSH1 0x20 DUP3 ADD MSTORE POP JUMP JUMPDEST PUSH1 0x0 PUSH2 0x444D PUSH1 0x32 DUP4 PUSH2 0x2A1A JUMP JUMPDEST SWAP2 POP PUSH2 0x4458 DUP3 PUSH2 0x43F1 JUMP JUMPDEST PUSH1 0x40 DUP3 ADD SWAP1 POP SWAP2 SWAP1 POP JUMP JUMPDEST PUSH1 0x0 PUSH1 0x20 DUP3 ADD SWAP1 POP DUP2 DUP2 SUB PUSH1 0x0 DUP4 ADD MSTORE PUSH2 0x447C DUP2 PUSH2 0x4440 JUMP JUMPDEST SWAP1 POP SWAP2 SWAP1 POP JUMP JUMPDEST PUSH32 0x4552433732313A206D696E7420746F20746865207A65726F2061646472657373 PUSH1 0x0 DUP3 ADD MSTORE POP JUMP JUMPDEST PUSH1 0x0 PUSH2 0x44B9 PUSH1 0x20 DUP4 PUSH2 0x2A1A JUMP JUMPDEST SWAP2 POP PUSH2 0x44C4 DUP3 PUSH2 0x4483 JUMP JUMPDEST PUSH1 0x20 DUP3 ADD SWAP1 POP SWAP2 SWAP1 POP JUMP JUMPDEST PUSH1 0x0 PUSH1 0x20 DUP3 ADD SWAP1 POP DUP2 DUP2 SUB PUSH1 0x0 DUP4 ADD MSTORE PUSH2 0x44E8 DUP2 PUSH2 0x44AC JUMP JUMPDEST SWAP1 POP SWAP2 SWAP1 POP JUMP JUMPDEST PUSH32 0x4552433732313A20746F6B656E20616C7265616479206D696E74656400000000 PUSH1 0x0 DUP3 ADD MSTORE POP JUMP JUMPDEST PUSH1 0x0 PUSH2 0x4525 PUSH1 0x1C DUP4 PUSH2 0x2A1A JUMP JUMPDEST SWAP2 POP PUSH2 0x4530 DUP3 PUSH2 0x44EF JUMP JUMPDEST PUSH1 0x20 DUP3 ADD SWAP1 POP SWAP2 SWAP1 POP JUMP JUMPDEST PUSH1 0x0 PUSH1 0x20 DUP3 ADD SWAP1 POP DUP2 DUP2 SUB PUSH1 0x0 DUP4 ADD MSTORE PUSH2 0x4554 DUP2 PUSH2 0x4518 JUMP JUMPDEST SWAP1 POP SWAP2 SWAP1 POP JUMP JUMPDEST PUSH1 0x0 DUP2 MLOAD SWAP1 POP SWAP2 SWAP1 POP JUMP JUMPDEST PUSH1 0x0 DUP3 DUP3 MSTORE PUSH1 0x20 DUP3 ADD SWAP1 POP SWAP3 SWAP2 POP POP JUMP JUMPDEST PUSH1 0x0 PUSH2 0x4582 DUP3 PUSH2 0x455B JUMP JUMPDEST PUSH2 0x458C DUP2 DUP6 PUSH2 0x4566 JUMP JUMPDEST SWAP4 POP PUSH2 0x459C DUP2 DUP6 PUSH1 0x20 DUP7 ADD PUSH2 0x2A2B JUMP JUMPDEST PUSH2 0x45A5 DUP2 PUSH2 0x2A5E JUMP JUMPDEST DUP5 ADD SWAP2 POP POP SWAP3 SWAP2 POP POP JUMP JUMPDEST PUSH1 0x0 PUSH1 0x80 DUP3 ADD SWAP1 POP PUSH2 0x45C5 PUSH1 0x0 DUP4 ADD DUP8 PUSH2 0x2B23 JUMP JUMPDEST PUSH2 0x45D2 PUSH1 0x20 DUP4 ADD DUP7 PUSH2 0x2B23 JUMP JUMPDEST PUSH2 0x45DF PUSH1 0x40 DUP4 ADD DUP6 PUSH2 0x29E5 JUMP JUMPDEST DUP2 DUP2 SUB PUSH1 0x60 DUP4 ADD MSTORE PUSH2 0x45F1 DUP2 DUP5 PUSH2 0x4577 JUMP JUMPDEST SWAP1 POP SWAP6 SWAP5 POP POP POP POP POP JUMP JUMPDEST PUSH1 0x0 DUP2 MLOAD SWAP1 POP PUSH2 0x460B DUP2 PUSH2 0x28C1 JUMP JUMPDEST SWAP3 SWAP2 POP POP JUMP JUMPDEST PUSH1 0x0 PUSH1 0x20 DUP3 DUP5 SUB SLT ISZERO PUSH2 0x4627 JUMPI PUSH2 0x4626 PUSH2 0x288B JUMP JUMPDEST JUMPDEST PUSH1 0x0 PUSH2 0x4635 DUP5 DUP3 DUP6 ADD PUSH2 0x45FC JUMP JUMPDEST SWAP2 POP POP SWAP3 SWAP2 POP POP JUMP INVALID PUSH9 0x747470733A2F2F6761 PUSH21 0x657761792E70696E6174612E636C6F75642F697066 PUSH20 0x2F516D5958766A5179647576517A746F6E454C6D PUSH11 0x42506D3152426B646E6159 PUSH10 0x714B395734364548707A PUSH25 0x32386968747470733A2F2F676174657761792E70696E617461 0x2E PUSH4 0x6C6F7564 0x2F PUSH10 0x7066732F516D50525970 POP PUSH11 0x62445358333743654E5457 PUSH10 0x4D78576E336479354C77 PUSH10 0x6F353966706A33646674 BASEFEE 0x4B PUSH17 0x684368747470733A2F2F67617465776179 0x2E PUSH17 0x696E6174612E636C6F75642F697066732F MLOAD PUSH14 0x4E55427064743862466172634445 GAS PUSH16 0x6259376B515371414B6A395863593750 MSTORE8 PUSH6 0x5A686736384A PUSH7 0x31357741424344 GASLIMIT CHAINID SELFBALANCE BASEFEE 0x49 0x4A 0x4B 0x4C 0x4D 0x4E 0x4F POP MLOAD MSTORE MSTORE8 SLOAD SSTORE JUMP JUMPI PC MSIZE GAS PUSH2 0x6263 PUSH5 0x6566676869 PUSH11 0x6B6C6D6E6F707172737475 PUSH23 0x7778797A303132333435363738392B2F68747470733A2F 0x2F PUSH8 0x6174657761792E70 PUSH10 0x6E6174612E636C6F7564 0x2F PUSH10 0x7066732F516D5A35706E PUSH26 0x734E4742327A6F52384B737471394C70375138746D4143683948 MSTORE BASEFEE PUSH15 0x4C55506D3646454A51446874747073 GASPRICE 0x2F 0x2F PUSH8 0x6174657761792E70 PUSH10 0x6E6174612E636C6F7564 0x2F PUSH10 0x7066732F516D5250616B PUSH10 0x7379554D774448456D47 MLOAD PUSH24 0x516E574E643468647744734D57555645387A67415A557546 SLOAD SLOAD PUSH9 0x68747470733A2F2F67 PUSH2 0x7465 PUSH24 0x61792E70696E6174612E636C6F75642F697066732F516D50 0x4D PUSH12 0x3678634C58647A686B4C6844 MSTORE JUMP GAS PUSH18 0x5465705459344D324C62336358443447444B 0x4A CALLER MLOAD PUSH18 0x365331A26469706673582212202782766D8A DUP14 POP 0x4B MSIZE MOD PUSH10 0xAB4DF4411C6FFAC0112C PC CALLCODE 0x28 0xDE 0xA7 CHAINID ADDMOD SWAP9 RETURNDATACOPY DIV DUP13 PUSH5 0x736F6C6343 STOP ADDMOD 0xC STOP CALLER "
		},
		"gasEstimates": {
			"creation": {
				"codeDepositCost": "3716000",
				"executionCost": "infinite",
				"totalCost": "infinite"
			},
			"external": {
				"allMemberInfo(uint256)": "infinite",
				"approve(address,uint256)": "infinite",
				"balanceOf(address)": "2924",
				"collectionName()": "infinite",
				"collectionSymbol()": "infinite",
				"editLatLng(uint256,uint256)": "infinite",
				"getApproved(uint256)": "5250",
				"inviteAddress(address)": "infinite",
				"isApprovedForAll(address,address)": "infinite",
				"mintTWINMBRSHP(string)": "infinite",
				"name()": "infinite",
				"owner()": "2611",
				"ownerOf(uint256)": "3000",
				"ownerOfMBRSHP(address)": "2860",
				"random()": "infinite",
				"renounceOwnership()": "30441",
				"safeTransferFrom(address,address,uint256)": "infinite",
				"safeTransferFrom(address,address,uint256,bytes)": "infinite",
				"setApprovalForAll(address,bool)": "infinite",
				"supportsInterface(bytes4)": "797",
				"symbol()": "infinite",
				"tokenURI(uint256)": "infinite",
				"transferFrom(address,address,uint256)": "infinite",
				"transferOwnership(address)": "30855"
			}
		},
		"methodIdentifiers": {
			"allMemberInfo(uint256)": "57729dbc",
			"approve(address,uint256)": "095ea7b3",
			"balanceOf(address)": "70a08231",
			"collectionName()": "e5326ab1",
			"collectionSymbol()": "2f39352a",
			"editLatLng(uint256,uint256)": "605a0512",
			"getApproved(uint256)": "081812fc",
			"inviteAddress(address)": "5c76577c",
			"isApprovedForAll(address,address)": "e985e9c5",
			"mintTWINMBRSHP(string)": "b12fccec",
			"name()": "06fdde03",
			"owner()": "8da5cb5b",
			"ownerOf(uint256)": "6352211e",
			"ownerOfMBRSHP(address)": "03d22e39",
			"random()": "5ec01e4d",
			"renounceOwnership()": "715018a6",
			"safeTransferFrom(address,address,uint256)": "42842e0e",
			"safeTransferFrom(address,address,uint256,bytes)": "b88d4fde",
			"setApprovalForAll(address,bool)": "a22cb465",
			"supportsInterface(bytes4)": "01ffc9a7",
			"symbol()": "95d89b41",
			"tokenURI(uint256)": "c87b56dd",
			"transferFrom(address,address,uint256)": "23b872dd",
			"transferOwnership(address)": "f2fde38b"
		}
	},
	"abi": [
		{
			"inputs": [],
			"stateMutability": "nonpayable",
			"type": "constructor"
		},
		{
			"anonymous": false,
			"inputs": [
				{
					"indexed": true,
					"internalType": "address",
					"name": "owner",
					"type": "address"
				},
				{
					"indexed": true,
					"internalType": "address",
					"name": "approved",
					"type": "address"
				},
				{
					"indexed": true,
					"internalType": "uint256",
					"name": "tokenId",
					"type": "uint256"
				}
			],
			"name": "Approval",
			"type": "event"
		},
		{
			"anonymous": false,
			"inputs": [
				{
					"indexed": true,
					"internalType": "address",
					"name": "owner",
					"type": "address"
				},
				{
					"indexed": true,
					"internalType": "address",
					"name": "operator",
					"type": "address"
				},
				{
					"indexed": false,
					"internalType": "bool",
					"name": "approved",
					"type": "bool"
				}
			],
			"name": "ApprovalForAll",
			"type": "event"
		},
		{
			"anonymous": false,
			"inputs": [
				{
					"indexed": true,
					"internalType": "address",
					"name": "previousOwner",
					"type": "address"
				},
				{
					"indexed": true,
					"internalType": "address",
					"name": "newOwner",
					"type": "address"
				}
			],
			"name": "OwnershipTransferred",
			"type": "event"
		},
		{
			"anonymous": false,
			"inputs": [
				{
					"indexed": true,
					"internalType": "address",
					"name": "from",
					"type": "address"
				},
				{
					"indexed": true,
					"internalType": "address",
					"name": "to",
					"type": "address"
				},
				{
					"indexed": true,
					"internalType": "uint256",
					"name": "tokenId",
					"type": "uint256"
				}
			],
			"name": "Transfer",
			"type": "event"
		},
		{
			"inputs": [
				{
					"internalType": "uint256",
					"name": "",
					"type": "uint256"
				}
			],
			"name": "allMemberInfo",
			"outputs": [
				{
					"internalType": "address",
					"name": "memberAddress",
					"type": "address"
				},
				{
					"internalType": "string",
					"name": "twtrId",
					"type": "string"
				},
				{
					"internalType": "uint256",
					"name": "lat",
					"type": "uint256"
				},
				{
					"internalType": "uint256",
					"name": "lng",
					"type": "uint256"
				},
				{
					"internalType": "uint256",
					"name": "mintedtime",
					"type": "uint256"
				},
				{
					"internalType": "uint256",
					"name": "numberOfInvite",
					"type": "uint256"
				},
				{
					"internalType": "string",
					"name": "invitedBy",
					"type": "string"
				},
				{
					"internalType": "address",
					"name": "inviterAddress",
					"type": "address"
				}
			],
			"stateMutability": "view",
			"type": "function"
		},
		{
			"inputs": [
				{
					"internalType": "address",
					"name": "to",
					"type": "address"
				},
				{
					"internalType": "uint256",
					"name": "tokenId",
					"type": "uint256"
				}
			],
			"name": "approve",
			"outputs": [],
			"stateMutability": "nonpayable",
			"type": "function"
		},
		{
			"inputs": [
				{
					"internalType": "address",
					"name": "owner",
					"type": "address"
				}
			],
			"name": "balanceOf",
			"outputs": [
				{
					"internalType": "uint256",
					"name": "",
					"type": "uint256"
				}
			],
			"stateMutability": "view",
			"type": "function"
		},
		{
			"inputs": [],
			"name": "collectionName",
			"outputs": [
				{
					"internalType": "string",
					"name": "",
					"type": "string"
				}
			],
			"stateMutability": "view",
			"type": "function"
		},
		{
			"inputs": [],
			"name": "collectionSymbol",
			"outputs": [
				{
					"internalType": "string",
					"name": "",
					"type": "string"
				}
			],
			"stateMutability": "view",
			"type": "function"
		},
		{
			"inputs": [
				{
					"internalType": "uint256",
					"name": "_lat",
					"type": "uint256"
				},
				{
					"internalType": "uint256",
					"name": "_lng",
					"type": "uint256"
				}
			],
			"name": "editLatLng",
			"outputs": [],
			"stateMutability": "nonpayable",
			"type": "function"
		},
		{
			"inputs": [
				{
					"internalType": "uint256",
					"name": "tokenId",
					"type": "uint256"
				}
			],
			"name": "getApproved",
			"outputs": [
				{
					"internalType": "address",
					"name": "",
					"type": "address"
				}
			],
			"stateMutability": "view",
			"type": "function"
		},
		{
			"inputs": [
				{
					"internalType": "address",
					"name": "_inviteAddress",
					"type": "address"
				}
			],
			"name": "inviteAddress",
			"outputs": [],
			"stateMutability": "nonpayable",
			"type": "function"
		},
		{
			"inputs": [
				{
					"internalType": "address",
					"name": "owner",
					"type": "address"
				},
				{
					"internalType": "address",
					"name": "operator",
					"type": "address"
				}
			],
			"name": "isApprovedForAll",
			"outputs": [
				{
					"internalType": "bool",
					"name": "",
					"type": "bool"
				}
			],
			"stateMutability": "view",
			"type": "function"
		},
		{
			"inputs": [
				{
					"internalType": "string",
					"name": "_twtrId",
					"type": "string"
				}
			],
			"name": "mintTWINMBRSHP",
			"outputs": [],
			"stateMutability": "nonpayable",
			"type": "function"
		},
		{
			"inputs": [],
			"name": "name",
			"outputs": [
				{
					"internalType": "string",
					"name": "",
					"type": "string"
				}
			],
			"stateMutability": "view",
			"type": "function"
		},
		{
			"inputs": [],
			"name": "owner",
			"outputs": [
				{
					"internalType": "address",
					"name": "",
					"type": "address"
				}
			],
			"stateMutability": "view",
			"type": "function"
		},
		{
			"inputs": [
				{
					"internalType": "uint256",
					"name": "tokenId",
					"type": "uint256"
				}
			],
			"name": "ownerOf",
			"outputs": [
				{
					"internalType": "address",
					"name": "",
					"type": "address"
				}
			],
			"stateMutability": "view",
			"type": "function"
		},
		{
			"inputs": [
				{
					"internalType": "address",
					"name": "",
					"type": "address"
				}
			],
			"name": "ownerOfMBRSHP",
			"outputs": [
				{
					"internalType": "uint256",
					"name": "",
					"type": "uint256"
				}
			],
			"stateMutability": "view",
			"type": "function"
		},
		{
			"inputs": [],
			"name": "random",
			"outputs": [
				{
					"internalType": "uint256",
					"name": "",
					"type": "uint256"
				}
			],
			"stateMutability": "view",
			"type": "function"
		},
		{
			"inputs": [],
			"name": "renounceOwnership",
			"outputs": [],
			"stateMutability": "nonpayable",
			"type": "function"
		},
		{
			"inputs": [
				{
					"internalType": "address",
					"name": "from",
					"type": "address"
				},
				{
					"internalType": "address",
					"name": "to",
					"type": "address"
				},
				{
					"internalType": "uint256",
					"name": "tokenId",
					"type": "uint256"
				}
			],
			"name": "safeTransferFrom",
			"outputs": [],
			"stateMutability": "pure",
			"type": "function"
		},
		{
			"inputs": [
				{
					"internalType": "address",
					"name": "from",
					"type": "address"
				},
				{
					"internalType": "address",
					"name": "to",
					"type": "address"
				},
				{
					"internalType": "uint256",
					"name": "tokenId",
					"type": "uint256"
				},
				{
					"internalType": "bytes",
					"name": "_data",
					"type": "bytes"
				}
			],
			"name": "safeTransferFrom",
			"outputs": [],
			"stateMutability": "pure",
			"type": "function"
		},
		{
			"inputs": [
				{
					"internalType": "address",
					"name": "operator",
					"type": "address"
				},
				{
					"internalType": "bool",
					"name": "approved",
					"type": "bool"
				}
			],
			"name": "setApprovalForAll",
			"outputs": [],
			"stateMutability": "nonpayable",
			"type": "function"
		},
		{
			"inputs": [
				{
					"internalType": "bytes4",
					"name": "interfaceId",
					"type": "bytes4"
				}
			],
			"name": "supportsInterface",
			"outputs": [
				{
					"internalType": "bool",
					"name": "",
					"type": "bool"
				}
			],
			"stateMutability": "view",
			"type": "function"
		},
		{
			"inputs": [],
			"name": "symbol",
			"outputs": [
				{
					"internalType": "string",
					"name": "",
					"type": "string"
				}
			],
			"stateMutability": "view",
			"type": "function"
		},
		{
			"inputs": [
				{
					"internalType": "uint256",
					"name": "_tokenId",
					"type": "uint256"
				}
			],
			"name": "tokenURI",
			"outputs": [
				{
					"internalType": "string",
					"name": "",
					"type": "string"
				}
			],
			"stateMutability": "view",
			"type": "function"
		},
		{
			"inputs": [
				{
					"internalType": "address",
					"name": "from",
					"type": "address"
				},
				{
					"internalType": "address",
					"name": "to",
					"type": "address"
				},
				{
					"internalType": "uint256",
					"name": "tokenId",
					"type": "uint256"
				}
			],
			"name": "transferFrom",
			"outputs": [],
			"stateMutability": "pure",
			"type": "function"
		},
		{
			"inputs": [
				{
					"internalType": "address",
					"name": "newOwner",
					"type": "address"
				}
			],
			"name": "transferOwnership",
			"outputs": [],
			"stateMutability": "nonpayable",
			"type": "function"
		}
	]
}